{
  "contractName": "marketPlace",
  "abi": [
    {
      "constant": true,
      "inputs": [
        {
          "internalType": "address",
          "name": "_address",
          "type": "address"
        }
      ],
      "name": "adminExists",
      "outputs": [
        {
          "internalType": "bool",
          "name": "",
          "type": "bool"
        }
      ],
      "payable": false,
      "stateMutability": "view",
      "type": "function"
    },
    {
      "constant": true,
      "inputs": [
        {
          "internalType": "address",
          "name": "",
          "type": "address"
        }
      ],
      "name": "allArtist",
      "outputs": [
        {
          "internalType": "bool",
          "name": "",
          "type": "bool"
        }
      ],
      "payable": false,
      "stateMutability": "view",
      "type": "function"
    },
    {
      "constant": true,
      "inputs": [
        {
          "internalType": "uint256",
          "name": "",
          "type": "uint256"
        }
      ],
      "name": "applications",
      "outputs": [
        {
          "internalType": "address",
          "name": "",
          "type": "address"
        }
      ],
      "payable": false,
      "stateMutability": "view",
      "type": "function"
    },
    {
      "constant": true,
      "inputs": [
        {
          "internalType": "address",
          "name": "",
          "type": "address"
        }
      ],
      "name": "artists",
      "outputs": [
        {
          "internalType": "string",
          "name": "name",
          "type": "string"
        },
        {
          "internalType": "uint256",
          "name": "userReputation",
          "type": "uint256"
        },
        {
          "internalType": "uint256",
          "name": "userFnishedWorks",
          "type": "uint256"
        },
        {
          "internalType": "uint256",
          "name": "numberRatings",
          "type": "uint256"
        }
      ],
      "payable": false,
      "stateMutability": "view",
      "type": "function"
    },
    {
      "constant": false,
      "inputs": [
        {
          "internalType": "address",
          "name": "_artist",
          "type": "address"
        }
      ],
      "name": "ban",
      "outputs": [],
      "payable": false,
      "stateMutability": "nonpayable",
      "type": "function"
    },
    {
      "constant": true,
      "inputs": [
        {
          "internalType": "address",
          "name": "",
          "type": "address"
        }
      ],
      "name": "blackList",
      "outputs": [
        {
          "internalType": "bool",
          "name": "",
          "type": "bool"
        }
      ],
      "payable": false,
      "stateMutability": "view",
      "type": "function"
    },
    {
      "constant": true,
      "inputs": [
        {
          "internalType": "address",
          "name": "",
          "type": "address"
        }
      ],
      "name": "companies",
      "outputs": [
        {
          "internalType": "string",
          "name": "name",
          "type": "string"
        },
        {
          "internalType": "bool",
          "name": "has_demand",
          "type": "bool"
        }
      ],
      "payable": false,
      "stateMutability": "view",
      "type": "function"
    },
    {
      "constant": true,
      "inputs": [
        {
          "internalType": "uint256",
          "name": "",
          "type": "uint256"
        }
      ],
      "name": "companies_addresses",
      "outputs": [
        {
          "internalType": "address",
          "name": "",
          "type": "address"
        }
      ],
      "payable": false,
      "stateMutability": "view",
      "type": "function"
    },
    {
      "constant": true,
      "inputs": [
        {
          "internalType": "string",
          "name": "",
          "type": "string"
        },
        {
          "internalType": "address",
          "name": "",
          "type": "address"
        }
      ],
      "name": "dem_key",
      "outputs": [
        {
          "internalType": "uint256",
          "name": "",
          "type": "uint256"
        }
      ],
      "payable": false,
      "stateMutability": "view",
      "type": "function"
    },
    {
      "constant": true,
      "inputs": [
        {
          "internalType": "uint256",
          "name": "",
          "type": "uint256"
        }
      ],
      "name": "dems",
      "outputs": [
        {
          "internalType": "string",
          "name": "company",
          "type": "string"
        },
        {
          "internalType": "string",
          "name": "demand",
          "type": "string"
        },
        {
          "internalType": "uint256",
          "name": "delay",
          "type": "uint256"
        },
        {
          "internalType": "string",
          "name": "description",
          "type": "string"
        },
        {
          "internalType": "enum marketPlace.Status",
          "name": "status",
          "type": "uint8"
        },
        {
          "internalType": "uint256",
          "name": "remuneration",
          "type": "uint256"
        },
        {
          "internalType": "address",
          "name": "company_address",
          "type": "address"
        }
      ],
      "payable": false,
      "stateMutability": "view",
      "type": "function"
    },
    {
      "constant": true,
      "inputs": [
        {
          "internalType": "address",
          "name": "_artist",
          "type": "address"
        },
        {
          "internalType": "string",
          "name": "_art_piece",
          "type": "string"
        },
        {
          "internalType": "address",
          "name": "_rater",
          "type": "address"
        }
      ],
      "name": "existReview",
      "outputs": [
        {
          "internalType": "uint256",
          "name": "",
          "type": "uint256"
        }
      ],
      "payable": false,
      "stateMutability": "view",
      "type": "function"
    },
    {
      "constant": true,
      "inputs": [
        {
          "internalType": "address",
          "name": "_artist",
          "type": "address"
        }
      ],
      "name": "getArtist",
      "outputs": [
        {
          "internalType": "string",
          "name": "",
          "type": "string"
        }
      ],
      "payable": false,
      "stateMutability": "view",
      "type": "function"
    },
    {
      "constant": true,
      "inputs": [
        {
          "internalType": "address",
          "name": "_artist",
          "type": "address"
        },
        {
          "internalType": "string",
          "name": "_art_piece",
          "type": "string"
        },
        {
          "internalType": "address",
          "name": "_reviewer",
          "type": "address"
        }
      ],
      "name": "getRating",
      "outputs": [
        {
          "internalType": "uint256",
          "name": "",
          "type": "uint256"
        }
      ],
      "payable": false,
      "stateMutability": "view",
      "type": "function"
    },
    {
      "constant": true,
      "inputs": [
        {
          "internalType": "address",
          "name": "_artist",
          "type": "address"
        }
      ],
      "name": "isArtist",
      "outputs": [
        {
          "internalType": "bool",
          "name": "",
          "type": "bool"
        }
      ],
      "payable": false,
      "stateMutability": "view",
      "type": "function"
    },
    {
      "constant": true,
      "inputs": [],
      "name": "owner",
      "outputs": [
        {
          "internalType": "address",
          "name": "",
          "type": "address"
        }
      ],
      "payable": false,
      "stateMutability": "view",
      "type": "function"
    },
    {
      "constant": false,
      "inputs": [
        {
          "internalType": "string",
          "name": "_name",
          "type": "string"
        }
      ],
      "name": "register",
      "outputs": [],
      "payable": false,
      "stateMutability": "nonpayable",
      "type": "function"
    },
    {
      "constant": false,
      "inputs": [
        {
          "internalType": "address",
          "name": "_artist",
          "type": "address"
        },
        {
          "internalType": "string",
          "name": "_art_piece",
          "type": "string"
        },
        {
          "internalType": "uint256",
          "name": "_rating",
          "type": "uint256"
        }
      ],
      "name": "setReview",
      "outputs": [],
      "payable": false,
      "stateMutability": "nonpayable",
      "type": "function"
    },
    {
      "constant": true,
      "inputs": [],
      "name": "wallet",
      "outputs": [
        {
          "internalType": "address payable",
          "name": "",
          "type": "address"
        }
      ],
      "payable": false,
      "stateMutability": "view",
      "type": "function"
    },
    {
      "constant": false,
      "inputs": [
        {
          "internalType": "string",
          "name": "_company_name",
          "type": "string"
        }
      ],
      "name": "newCompany",
      "outputs": [],
      "payable": false,
      "stateMutability": "nonpayable",
      "type": "function"
    },
    {
      "constant": true,
      "inputs": [],
      "name": "getCompanies",
      "outputs": [
        {
          "internalType": "address[]",
          "name": "",
          "type": "address[]"
        }
      ],
      "payable": false,
      "stateMutability": "view",
      "type": "function"
    },
    {
      "constant": false,
      "inputs": [
        {
          "internalType": "uint256",
          "name": "_delay",
          "type": "uint256"
        },
        {
          "internalType": "string",
          "name": "_description",
          "type": "string"
        },
        {
          "internalType": "uint256",
          "name": "_minRep",
          "type": "uint256"
        },
        {
          "internalType": "string",
          "name": "_demand_name",
          "type": "string"
        },
        {
          "internalType": "uint256",
          "name": "_value",
          "type": "uint256"
        }
      ],
      "name": "addDemands",
      "outputs": [],
      "payable": true,
      "stateMutability": "payable",
      "type": "function"
    },
    {
      "constant": true,
      "inputs": [],
      "name": "getDemands",
      "outputs": [
        {
          "internalType": "string[]",
          "name": "",
          "type": "string[]"
        }
      ],
      "payable": false,
      "stateMutability": "view",
      "type": "function"
    },
    {
      "constant": true,
      "inputs": [
        {
          "internalType": "address",
          "name": "_company",
          "type": "address"
        },
        {
          "internalType": "string",
          "name": "_demand",
          "type": "string"
        }
      ],
      "name": "isDemandofCompany",
      "outputs": [
        {
          "internalType": "bool",
          "name": "",
          "type": "bool"
        }
      ],
      "payable": false,
      "stateMutability": "view",
      "type": "function"
    },
    {
      "constant": false,
      "inputs": [
        {
          "internalType": "string",
          "name": "_demand_name",
          "type": "string"
        },
        {
          "internalType": "uint256",
          "name": "_value",
          "type": "uint256"
        }
      ],
      "name": "addDeposit",
      "outputs": [],
      "payable": true,
      "stateMutability": "payable",
      "type": "function"
    },
    {
      "constant": false,
      "inputs": [
        {
          "internalType": "address",
          "name": "_company",
          "type": "address"
        },
        {
          "internalType": "string",
          "name": "_demand_name",
          "type": "string"
        }
      ],
      "name": "application",
      "outputs": [],
      "payable": true,
      "stateMutability": "payable",
      "type": "function"
    },
    {
      "constant": true,
      "inputs": [
        {
          "internalType": "address",
          "name": "_company",
          "type": "address"
        },
        {
          "internalType": "string",
          "name": "_demand_name",
          "type": "string"
        },
        {
          "internalType": "address",
          "name": "_artist",
          "type": "address"
        }
      ],
      "name": "getAplication",
      "outputs": [
        {
          "internalType": "bool",
          "name": "",
          "type": "bool"
        }
      ],
      "payable": false,
      "stateMutability": "view",
      "type": "function"
    },
    {
      "constant": true,
      "inputs": [],
      "name": "getApps",
      "outputs": [
        {
          "internalType": "address[]",
          "name": "",
          "type": "address[]"
        }
      ],
      "payable": false,
      "stateMutability": "view",
      "type": "function"
    },
    {
      "constant": false,
      "inputs": [
        {
          "internalType": "string",
          "name": "_demand_name",
          "type": "string"
        },
        {
          "internalType": "address payable",
          "name": "_artist",
          "type": "address"
        }
      ],
      "name": "winningOffer",
      "outputs": [],
      "payable": false,
      "stateMutability": "nonpayable",
      "type": "function"
    },
    {
      "constant": false,
      "inputs": [
        {
          "internalType": "address",
          "name": "_company",
          "type": "address"
        },
        {
          "internalType": "string",
          "name": "_demand_name",
          "type": "string"
        },
        {
          "internalType": "string",
          "name": "_art_piece",
          "type": "string"
        },
        {
          "internalType": "string",
          "name": "_url",
          "type": "string"
        }
      ],
      "name": "delivery",
      "outputs": [],
      "payable": false,
      "stateMutability": "nonpayable",
      "type": "function"
    },
    {
      "constant": false,
      "inputs": [
        {
          "internalType": "string",
          "name": "_demand_name",
          "type": "string"
        },
        {
          "internalType": "string",
          "name": "_art_piece",
          "type": "string"
        },
        {
          "internalType": "uint256",
          "name": "_rating",
          "type": "uint256"
        }
      ],
      "name": "artistRating",
      "outputs": [],
      "payable": false,
      "stateMutability": "nonpayable",
      "type": "function"
    },
    {
      "constant": false,
      "inputs": [
        {
          "internalType": "address",
          "name": "_company",
          "type": "address"
        },
        {
          "internalType": "string",
          "name": "_demand_name",
          "type": "string"
        },
        {
          "internalType": "address payable",
          "name": "_artist",
          "type": "address"
        }
      ],
      "name": "artistPayment",
      "outputs": [],
      "payable": true,
      "stateMutability": "payable",
      "type": "function"
    },
    {
      "constant": false,
      "inputs": [
        {
          "internalType": "address",
          "name": "_artist",
          "type": "address"
        }
      ],
      "name": "delay",
      "outputs": [],
      "payable": false,
      "stateMutability": "nonpayable",
      "type": "function"
    },
    {
      "constant": true,
      "inputs": [],
      "name": "getKeys",
      "outputs": [
        {
          "internalType": "uint256",
          "name": "",
          "type": "uint256"
        }
      ],
      "payable": false,
      "stateMutability": "view",
      "type": "function"
    },
    {
      "constant": true,
      "inputs": [
        {
          "internalType": "address",
          "name": "_company",
          "type": "address"
        },
        {
          "internalType": "string",
          "name": "_demand_name",
          "type": "string"
        }
      ],
      "name": "companyDemands",
      "outputs": [
        {
          "internalType": "bool",
          "name": "",
          "type": "bool"
        }
      ],
      "payable": false,
      "stateMutability": "view",
      "type": "function"
    },
    {
      "constant": true,
      "inputs": [
        {
          "internalType": "address",
          "name": "_company",
          "type": "address"
        },
        {
          "internalType": "string",
          "name": "_demand_name",
          "type": "string"
        }
      ],
      "name": "demandKey",
      "outputs": [
        {
          "internalType": "uint256",
          "name": "",
          "type": "uint256"
        }
      ],
      "payable": false,
      "stateMutability": "view",
      "type": "function"
    },
    {
      "constant": true,
      "inputs": [
        {
          "internalType": "address",
          "name": "_company",
          "type": "address"
        }
      ],
      "name": "isCompany",
      "outputs": [
        {
          "internalType": "bool",
          "name": "",
          "type": "bool"
        }
      ],
      "payable": false,
      "stateMutability": "view",
      "type": "function"
    },
    {
      "constant": true,
      "inputs": [
        {
          "internalType": "address",
          "name": "_company",
          "type": "address"
        }
      ],
      "name": "hasDemand",
      "outputs": [
        {
          "internalType": "bool",
          "name": "",
          "type": "bool"
        }
      ],
      "payable": false,
      "stateMutability": "view",
      "type": "function"
    },
    {
      "constant": true,
      "inputs": [
        {
          "internalType": "address",
          "name": "_company",
          "type": "address"
        }
      ],
      "name": "getCompanyName",
      "outputs": [
        {
          "internalType": "string",
          "name": "",
          "type": "string"
        }
      ],
      "payable": false,
      "stateMutability": "view",
      "type": "function"
    }
  ],
  "bytecode": "0x60806040526000600c5533600560006101000a81548173ffffffffffffffffffffffffffffffffffffffff021916908373ffffffffffffffffffffffffffffffffffffffff160217905550336000806101000a81548173ffffffffffffffffffffffffffffffffffffffff021916908373ffffffffffffffffffffffffffffffffffffffff1602179055506200009a620000a060201b60201c565b62000108565b60043390806001815401808255809150509060018203906000526020600020016000909192909190916101000a81548173ffffffffffffffffffffffffffffffffffffffff021916908373ffffffffffffffffffffffffffffffffffffffff16021790555050565b6159cc80620001186000396000f3fe6080604052600436106102255760003560e01c8063a0406ce211610123578063cc715bf0116100ab578063f1e6fe871161006f578063f1e6fe87146108ca578063f2c298be146108f3578063f35c6b1b1461091c578063fad89e6e14610959578063fe8a0ee71461097557610225565b8063cc715bf0146107bf578063cee0d76d146107fc578063d66d756d14610839578063de6aa57414610864578063dfefadff1461088d57610225565b8063a9563db0116100f2578063a9563db0146106d1578063b25bf8bc146106fa578063b949c80414610723578063bad353cf14610760578063c3c660e11461077c57610225565b8063a0406ce2146105f1578063a310cb6a1461062e578063a4ef703114610657578063a90fbd831461069457610225565b80635d7dbbc6116101b15780638da5cb5b116101755780638da5cb5b146104fa5780638fa3e00b1461052557806395ef14681461056257806397c3ccd81461058b5780639be2d095146105b457610225565b80635d7dbbc61461040b578063620e76f5146104275780636b2f65b0146104645780638294b689146104a157806382e8f119146104de57610225565b8063355e6ce8116101f8578063355e6ce8146102fd5780634076419e1461033b5780634838d16514610378578063521eb273146103b55780635ad0da06146103e057610225565b8063069dab8f1461022a57806308352cc51461026a5780630c0b6691146102a75780632150c518146102d2575b600080fd5b34801561023657600080fd5b50610251600480360361024c9190810190614586565b6109b2565b6040516102619493929190615424565b60405180910390f35b34801561027657600080fd5b50610291600480360361028c919081019061499f565b610a7a565b60405161029e91906152b9565b60405180910390f35b3480156102b357600080fd5b506102bc610ab6565b6040516102c991906152ef565b60405180910390f35b3480156102de57600080fd5b506102e7610b44565b6040516102f49190615710565b60405180910390f35b34801561030957600080fd5b50610324600480360361031f9190810190614586565b610b4e565b604051610332929190615370565b60405180910390f35b34801561034757600080fd5b50610362600480360361035d9190810190614603565b610c17565b60405161036f9190615710565b60405180910390f35b34801561038457600080fd5b5061039f600480360361039a9190810190614586565b610cd7565b6040516103ac9190615333565b60405180910390f35b3480156103c157600080fd5b506103ca610cf7565b6040516103d791906152d4565b60405180910390f35b3480156103ec57600080fd5b506103f5610d1c565b6040516104029190615311565b60405180910390f35b610425600480360361042091908101906145af565b610e05565b005b34801561043357600080fd5b5061044e600480360361044991908101906145af565b611230565b60405161045b9190615710565b60405180910390f35b34801561047057600080fd5b5061048b60048036036104869190810190614586565b611296565b6040516104989190615333565b60405180910390f35b3480156104ad57600080fd5b506104c860048036036104c39190810190614603565b6112ec565b6040516104d59190615710565b60405180910390f35b6104f860048036036104f391908101906149c8565b611399565b005b34801561050657600080fd5b5061050f611c56565b60405161051c91906152b9565b60405180910390f35b34801561053157600080fd5b5061054c600480360361054791908101906145af565b611c7c565b6040516105599190615333565b60405180910390f35b34801561056e57600080fd5b5061058960048036036105849190810190614824565b611cf2565b005b34801561059757600080fd5b506105b260048036036105ad9190810190614586565b6122cb565b005b3480156105c057600080fd5b506105db60048036036105d69190810190614586565b6124ea565b6040516105e89190615333565b60405180910390f35b3480156105fd57600080fd5b5061061860048036036106139190810190614586565b61258c565b6040516106259190615333565b60405180910390f35b34801561063a57600080fd5b5061065560048036036106509190810190614586565b6125e2565b005b34801561066357600080fd5b5061067e60048036036106799190810190614586565b612727565b60405161068b919061534e565b60405180910390f35b3480156106a057600080fd5b506106bb60048036036106b69190810190614586565b61280b565b6040516106c89190615333565b60405180910390f35b3480156106dd57600080fd5b506106f860048036036106f391908101906146d1565b61282b565b005b34801561070657600080fd5b50610721600480360361071c919081019061477c565b612bfe565b005b34801561072f57600080fd5b5061074a60048036036107459190810190614586565b612ea9565b604051610757919061534e565b60405180910390f35b61077a6004803603610775919081019061466a565b612f8d565b005b34801561078857600080fd5b506107a3600480360361079e919081019061499f565b61303a565b6040516107b697969594939291906153a0565b60405180910390f35b3480156107cb57600080fd5b506107e660048036036107e191908101906145af565b613271565b6040516107f39190615333565b60405180910390f35b34801561080857600080fd5b50610823600480360361081e9190810190614603565b6132e7565b6040516108309190615333565b60405180910390f35b34801561084557600080fd5b5061084e61339e565b60405161085b91906152ef565b60405180910390f35b34801561087057600080fd5b5061088b60048036036108869190810190614878565b61342c565b005b34801561089957600080fd5b506108b460048036036108af919081019061499f565b613804565b6040516108c191906152b9565b60405180910390f35b3480156108d657600080fd5b506108f160048036036108ec91908101906147e3565b613840565b005b3480156108ff57600080fd5b5061091a600480360361091591908101906147e3565b613af1565b005b34801561092857600080fd5b50610943600480360361093e9190810190614586565b613e60565b6040516109509190615333565b60405180910390f35b610973600480360361096e91908101906148f7565b613eb9565b005b34801561098157600080fd5b5061099c6004803603610997919081019061494b565b61400b565b6040516109a99190615710565b60405180910390f35b6006602052806000526040600020600091509050806000018054600181600116156101000203166002900480601f016020809104026020016040519081016040528092919081815260200182805460018160011615610100020316600290048015610a5e5780601f10610a3357610100808354040283529160200191610a5e565b820191906000526020600020905b815481529060010190602001808311610a4157829003601f168201915b5050505050908060040154908060050154908060060154905084565b60088181548110610a8757fe5b906000526020600020016000915054906101000a900473ffffffffffffffffffffffffffffffffffffffff1681565b60606008805480602002602001604051908101604052809291908181526020018280548015610b3a57602002820191906000526020600020905b8160009054906101000a900473ffffffffffffffffffffffffffffffffffffffff1673ffffffffffffffffffffffffffffffffffffffff1681526020019060010190808311610af0575b5050505050905090565b6000600c54905090565b600d602052806000526040600020600091509050806000018054600181600116156101000203166002900480601f016020809104026020016040519081016040528092919081815260200182805460018160011615610100020316600290048015610bfa5780601f10610bcf57610100808354040283529160200191610bfa565b820191906000526020600020905b815481529060010190602001808311610bdd57829003601f168201915b5050505050908060030160009054906101000a900460ff16905082565b600080600660008673ffffffffffffffffffffffffffffffffffffffff1673ffffffffffffffffffffffffffffffffffffffff16815260200190815260200160002060020184604051610c6a91906152a2565b908152602001604051809103902060010160008473ffffffffffffffffffffffffffffffffffffffff1673ffffffffffffffffffffffffffffffffffffffff168152602001908152602001600020600001541415610ccb5760009050610cd0565b600190505b9392505050565b60026020528060005260406000206000915054906101000a900460ff1681565b6000809054906101000a900473ffffffffffffffffffffffffffffffffffffffff1681565b60606007805480602002602001604051908101604052809291908181526020016000905b82821015610dfc578382906000526020600020018054600181600116156101000203166002900480601f016020809104026020016040519081016040528092919081815260200182805460018160011615610100020316600290048015610de85780601f10610dbd57610100808354040283529160200191610de8565b820191906000526020600020905b815481529060010190602001808311610dcb57829003601f168201915b505050505081526020019060010190610d40565b50505050905090565b3360011515600160008373ffffffffffffffffffffffffffffffffffffffff1673ffffffffffffffffffffffffffffffffffffffff16815260200190815260200160002060009054906101000a900460ff16151514610e99576040517f08c379a0000000000000000000000000000000000000000000000000000000008152600401610e90906155b0565b60405180910390fd5b828260006002811115610ea857fe5b600d60008473ffffffffffffffffffffffffffffffffffffffff1673ffffffffffffffffffffffffffffffffffffffff16815260200190815260200160002060010182604051610ef891906152a2565b908152602001604051809103902060040160009054906101000a900460ff166002811115610f2257fe5b14610f62576040517f08c379a0000000000000000000000000000000000000000000000000000000008152600401610f5990615550565b60405180910390fd5b848460001515600d60008473ffffffffffffffffffffffffffffffffffffffff1673ffffffffffffffffffffffffffffffffffffffff16815260200190815260200160002060010182604051610fb891906152a2565b908152602001604051809103902060060160003373ffffffffffffffffffffffffffffffffffffffff1673ffffffffffffffffffffffffffffffffffffffff16815260200190815260200160002060009054906101000a900460ff16151514611056576040517f08c379a000000000000000000000000000000000000000000000000000000000815260040161104d906156f0565b60405180910390fd5b8686600d60008373ffffffffffffffffffffffffffffffffffffffff1673ffffffffffffffffffffffffffffffffffffffff168152602001908152602001600020600101816040516110a891906152a2565b908152602001604051809103902060050154600660003373ffffffffffffffffffffffffffffffffffffffff1673ffffffffffffffffffffffffffffffffffffffff16815260200190815260200160002060040154101561110857600080fd5b6001600d60008b73ffffffffffffffffffffffffffffffffffffffff1673ffffffffffffffffffffffffffffffffffffffff1681526020019081526020016000206001018960405161115a91906152a2565b908152602001604051809103902060060160003373ffffffffffffffffffffffffffffffffffffffff1673ffffffffffffffffffffffffffffffffffffffff16815260200190815260200160002060006101000a81548160ff02191690831515021790555060093390806001815401808255809150509060018203906000526020600020016000909192909190916101000a81548173ffffffffffffffffffffffffffffffffffffffff021916908373ffffffffffffffffffffffffffffffffffffffff16021790555050505050505050505050565b6000600f8260405161124291906152a2565b908152602001604051809103902060008473ffffffffffffffffffffffffffffffffffffffff1673ffffffffffffffffffffffffffffffffffffffff16815260200190815260200160002054905092915050565b6000600160008373ffffffffffffffffffffffffffffffffffffffff1673ffffffffffffffffffffffffffffffffffffffff16815260200190815260200160002060009054906101000a900460ff169050919050565b6000600660008573ffffffffffffffffffffffffffffffffffffffff1673ffffffffffffffffffffffffffffffffffffffff1681526020019081526020016000206002018360405161133e91906152a2565b908152602001604051809103902060010160008373ffffffffffffffffffffffffffffffffffffffff1673ffffffffffffffffffffffffffffffffffffffff1681526020019081526020016000206000015490509392505050565b8260058110156113de576040517f08c379a00000000000000000000000000000000000000000000000000000000081526004016113d590615650565b60405180910390fd5b3360011515600a60008373ffffffffffffffffffffffffffffffffffffffff1673ffffffffffffffffffffffffffffffffffffffff16815260200190815260200160002060009054906101000a900460ff16151514611472576040517f08c379a0000000000000000000000000000000000000000000000000000000008152600401611469906154d0565b60405180910390fd5b86611c208110156114b8576040517f08c379a00000000000000000000000000000000000000000000000000000000081526004016114af90615610565b60405180910390fd5b8460001515600d60003373ffffffffffffffffffffffffffffffffffffffff1673ffffffffffffffffffffffffffffffffffffffff1681526020019081526020016000206002018260405161150d91906152a2565b908152602001604051809103902060009054906101000a900460ff1615151461156b576040517f08c379a000000000000000000000000000000000000000000000000000000000815260040161156290615630565b60405180910390fd5b33600d60003373ffffffffffffffffffffffffffffffffffffffff1673ffffffffffffffffffffffffffffffffffffffff168152602001908152602001600020600101876040516115bc91906152a2565b908152602001604051809103902060080160006101000a81548173ffffffffffffffffffffffffffffffffffffffff021916908373ffffffffffffffffffffffffffffffffffffffff16021790555034600d60003373ffffffffffffffffffffffffffffffffffffffff1673ffffffffffffffffffffffffffffffffffffffff1681526020019081526020016000206001018760405161165c91906152a2565b90815260200160405180910390206009018190555087600d60003373ffffffffffffffffffffffffffffffffffffffff1673ffffffffffffffffffffffffffffffffffffffff168152602001908152602001600020600101876040516116c291906152a2565b908152602001604051809103902060030190805190602001906116e6929190614373565b506000600d60003373ffffffffffffffffffffffffffffffffffffffff1673ffffffffffffffffffffffffffffffffffffffff1681526020019081526020016000206001018760405161173991906152a2565b908152602001604051809103902060040160006101000a81548160ff0219169083600281111561176557fe5b021790555086600d60003373ffffffffffffffffffffffffffffffffffffffff1673ffffffffffffffffffffffffffffffffffffffff168152602001908152602001600020600101876040516117bb91906152a2565b90815260200160405180910390206005018190555088600d60003373ffffffffffffffffffffffffffffffffffffffff1673ffffffffffffffffffffffffffffffffffffffff1681526020019081526020016000206001018760405161182191906152a2565b90815260200160405180910390206001018190555084600d60003373ffffffffffffffffffffffffffffffffffffffff1673ffffffffffffffffffffffffffffffffffffffff1681526020019081526020016000206001018760405161188791906152a2565b9081526020016040518091039020600d01819055506000600d60003373ffffffffffffffffffffffffffffffffffffffff1673ffffffffffffffffffffffffffffffffffffffff168152602001908152602001600020600101876040516118ee91906152a2565b9081526020016040518091039020600c0160003373ffffffffffffffffffffffffffffffffffffffff1673ffffffffffffffffffffffffffffffffffffffff168152602001908152602001600020819055506001600d60003373ffffffffffffffffffffffffffffffffffffffff1673ffffffffffffffffffffffffffffffffffffffff1681526020019081526020016000206002018760405161199291906152a2565b908152602001604051809103902060006101000a81548160ff0219169083151502179055506001600d60003373ffffffffffffffffffffffffffffffffffffffff1673ffffffffffffffffffffffffffffffffffffffff16815260200190815260200160002060030160006101000a81548160ff0219169083151502179055506007869080600181540180825580915050906001820390600052602060002001600090919290919091509080519060200190611a4f929190614373565b5050611a5b8686613eb9565b600d60003373ffffffffffffffffffffffffffffffffffffffff1673ffffffffffffffffffffffffffffffffffffffff168152602001908152602001600020600001600e6000600c5481526020019081526020016000206000019080546001816001161561010002031660029004611ad49291906143f3565b5085600e6000600c5481526020019081526020016000206001019080519060200190611b01929190614373565b5088600e6000600c548152602001908152602001600020600201819055506000600e6000600c54815260200190815260200160002060040160006101000a81548160ff02191690836002811115611b5457fe5b021790555084600e6000600c5481526020019081526020016000206005018190555033600e6000600c54815260200190815260200160002060060160006101000a81548173ffffffffffffffffffffffffffffffffffffffff021916908373ffffffffffffffffffffffffffffffffffffffff160217905550611be36001600c5461404690919063ffffffff16565b600c81905550600c54600f87604051611bfc91906152a2565b908152602001604051809103902060003373ffffffffffffffffffffffffffffffffffffffff1673ffffffffffffffffffffffffffffffffffffffff16815260200190815260200160002081905550505050505050505050565b600560009054906101000a900473ffffffffffffffffffffffffffffffffffffffff1681565b6000600d60008473ffffffffffffffffffffffffffffffffffffffff1673ffffffffffffffffffffffffffffffffffffffff16815260200190815260200160002060020182604051611cce91906152a2565b908152602001604051809103902060009054906101000a900460ff16905092915050565b3360011515600a60008373ffffffffffffffffffffffffffffffffffffffff1673ffffffffffffffffffffffffffffffffffffffff16815260200190815260200160002060009054906101000a900460ff16151514611d86576040517f08c379a0000000000000000000000000000000000000000000000000000000008152600401611d7d906154d0565b60405180910390fd5b338073ffffffffffffffffffffffffffffffffffffffff163373ffffffffffffffffffffffffffffffffffffffff1614611dbf57600080fd5b8360011515600d60003373ffffffffffffffffffffffffffffffffffffffff1673ffffffffffffffffffffffffffffffffffffffff16815260200190815260200160002060020182604051611e1491906152a2565b908152602001604051809103902060009054906101000a900460ff16151514611e72576040517f08c379a0000000000000000000000000000000000000000000000000000000008152600401611e6990615510565b60405180910390fd5b338560006002811115611e8157fe5b600d60008473ffffffffffffffffffffffffffffffffffffffff1673ffffffffffffffffffffffffffffffffffffffff16815260200190815260200160002060010182604051611ed191906152a2565b908152602001604051809103902060040160009054906101000a900460ff166002811115611efb57fe5b14611f3b576040517f08c379a0000000000000000000000000000000000000000000000000000000008152600401611f3290615550565b60405180910390fd5b33878760011515600d60008573ffffffffffffffffffffffffffffffffffffffff1673ffffffffffffffffffffffffffffffffffffffff16815260200190815260200160002060010183604051611f9291906152a2565b908152602001604051809103902060060160008373ffffffffffffffffffffffffffffffffffffffff1673ffffffffffffffffffffffffffffffffffffffff16815260200190815260200160002060009054906101000a900460ff16151514612030576040517f08c379a0000000000000000000000000000000000000000000000000000000008152600401612027906155d0565b60405180910390fd5b88600d60003373ffffffffffffffffffffffffffffffffffffffff1673ffffffffffffffffffffffffffffffffffffffff1681526020019081526020016000206001018b60405161208191906152a2565b908152602001604051809103902060070160006101000a81548173ffffffffffffffffffffffffffffffffffffffff021916908373ffffffffffffffffffffffffffffffffffffffff1602179055506001600d60003373ffffffffffffffffffffffffffffffffffffffff1673ffffffffffffffffffffffffffffffffffffffff1681526020019081526020016000206001018b60405161212291906152a2565b908152602001604051809103902060040160006101000a81548160ff0219169083600281111561214e57fe5b02179055506121c7600d60003373ffffffffffffffffffffffffffffffffffffffff1673ffffffffffffffffffffffffffffffffffffffff1681526020019081526020016000206001018b6040516121a691906152a2565b9081526020016040518091039020600101544261404690919063ffffffff16565b600d60003373ffffffffffffffffffffffffffffffffffffffff1673ffffffffffffffffffffffffffffffffffffffff1681526020019081526020016000206001018b60405161221791906152a2565b9081526020016040518091039020600201819055506001600e6000600f8d60405161224291906152a2565b908152602001604051809103902060003373ffffffffffffffffffffffffffffffffffffffff1673ffffffffffffffffffffffffffffffffffffffff16815260200190815260200160002054815260200190815260200160002060040160006101000a81548160ff021916908360028111156122ba57fe5b021790555050505050505050505050565b33600115156122d9336124ea565b15151461231b576040517f08c379a000000000000000000000000000000000000000000000000000000000815260040161231290615690565b60405180910390fd5b8160011515600260008373ffffffffffffffffffffffffffffffffffffffff1673ffffffffffffffffffffffffffffffffffffffff16815260200190815260200160002060009054906101000a900460ff16151515146123b0576040517f08c379a00000000000000000000000000000000000000000000000000000000081526004016123a790615490565b60405180910390fd5b8260011515600160008373ffffffffffffffffffffffffffffffffffffffff1673ffffffffffffffffffffffffffffffffffffffff16815260200190815260200160002060009054906101000a900460ff16151514612444576040517f08c379a000000000000000000000000000000000000000000000000000000000815260040161243b906155b0565b60405180910390fd5b6001600260008673ffffffffffffffffffffffffffffffffffffffff1673ffffffffffffffffffffffffffffffffffffffff16815260200190815260200160002060006101000a81548160ff0219169083151502179055506000600660008673ffffffffffffffffffffffffffffffffffffffff1673ffffffffffffffffffffffffffffffffffffffff1681526020019081526020016000206004018190555050505050565b600080600090505b600480549050811015612581576004818154811061250c57fe5b9060005260206000200160009054906101000a900473ffffffffffffffffffffffffffffffffffffffff1673ffffffffffffffffffffffffffffffffffffffff168373ffffffffffffffffffffffffffffffffffffffff161415612574576001915050612587565b80806001019150506124f2565b50600090505b919050565b6000600a60008373ffffffffffffffffffffffffffffffffffffffff1673ffffffffffffffffffffffffffffffffffffffff16815260200190815260200160002060009054906101000a900460ff169050919050565b6126386001600660008473ffffffffffffffffffffffffffffffffffffffff1673ffffffffffffffffffffffffffffffffffffffff1681526020019081526020016000206005015461409b90919063ffffffff16565b600660008373ffffffffffffffffffffffffffffffffffffffff1673ffffffffffffffffffffffffffffffffffffffff168152602001908152602001600020600401819055506126d46005600660008473ffffffffffffffffffffffffffffffffffffffff1673ffffffffffffffffffffffffffffffffffffffff1681526020019081526020016000206006015461409b90919063ffffffff16565b600660008373ffffffffffffffffffffffffffffffffffffffff1673ffffffffffffffffffffffffffffffffffffffff16815260200190815260200160002060060181905550612723816140e5565b5050565b6060600d60008373ffffffffffffffffffffffffffffffffffffffff1673ffffffffffffffffffffffffffffffffffffffff1681526020019081526020016000206000018054600181600116156101000203166002900480601f0160208091040260200160405190810160405280929190818152602001828054600181600116156101000203166002900480156127ff5780601f106127d4576101008083540402835291602001916127ff565b820191906000526020600020905b8154815290600101906020018083116127e257829003601f168201915b50505050509050919050565b60016020528060005260406000206000915054906101000a900460ff1681565b8383338073ffffffffffffffffffffffffffffffffffffffff16600d60008573ffffffffffffffffffffffffffffffffffffffff1673ffffffffffffffffffffffffffffffffffffffff1681526020019081526020016000206001018360405161289591906152a2565b908152602001604051809103902060070160009054906101000a900473ffffffffffffffffffffffffffffffffffffffff1673ffffffffffffffffffffffffffffffffffffffff161461291d576040517f08c379a0000000000000000000000000000000000000000000000000000000008152600401612914906156d0565b60405180910390fd5b86866001600281111561292c57fe5b600d60008473ffffffffffffffffffffffffffffffffffffffff1673ffffffffffffffffffffffffffffffffffffffff1681526020019081526020016000206001018260405161297c91906152a2565b908152602001604051809103902060040160009054906101000a900460ff1660028111156129a657fe5b146129e6576040517f08c379a00000000000000000000000000000000000000000000000000000000081526004016129dd90615590565b60405180910390fd5b888842600d60008473ffffffffffffffffffffffffffffffffffffffff1673ffffffffffffffffffffffffffffffffffffffff16815260200190815260200160002060010182604051612a3991906152a2565b90815260200160405180910390206002015411612a8b576040517f08c379a0000000000000000000000000000000000000000000000000000000008152600401612a8290615570565b60405180910390fd5b88600d60008d73ffffffffffffffffffffffffffffffffffffffff1673ffffffffffffffffffffffffffffffffffffffff1681526020019081526020016000206001018b604051612adc91906152a2565b9081526020016040518091039020600a019080519060200190612b00929190614373565b506001600d60008d73ffffffffffffffffffffffffffffffffffffffff1673ffffffffffffffffffffffffffffffffffffffff1681526020019081526020016000206001018b604051612b5391906152a2565b9081526020016040518091039020600b0160006101000a81548160ff02191690831515021790555087600660003373ffffffffffffffffffffffffffffffffffffffff1673ffffffffffffffffffffffffffffffffffffffff1681526020019081526020016000206002018a604051612bcc91906152a2565b90815260200160405180910390206000019080519060200190612bf0929190614373565b505050505050505050505050565b8260011515600160008373ffffffffffffffffffffffffffffffffffffffff1673ffffffffffffffffffffffffffffffffffffffff16815260200190815260200160002060009054906101000a900460ff16151514612c92576040517f08c379a0000000000000000000000000000000000000000000000000000000008152600401612c89906155b0565b60405180910390fd5b8180600510158015612ca5575060018110155b612ce4576040517f08c379a0000000000000000000000000000000000000000000000000000000008152600401612cdb90615530565b60405180910390fd5b600033905083600660008873ffffffffffffffffffffffffffffffffffffffff1673ffffffffffffffffffffffffffffffffffffffff16815260200190815260200160002060020186604051612d3a91906152a2565b908152602001604051809103902060010160008373ffffffffffffffffffffffffffffffffffffffff1673ffffffffffffffffffffffffffffffffffffffff16815260200190815260200160002060000181905550600660008773ffffffffffffffffffffffffffffffffffffffff1673ffffffffffffffffffffffffffffffffffffffff168152602001908152602001600020600701849080600181540180825580915050906001820390600052602060002001600090919290919091505550612e516001600660008973ffffffffffffffffffffffffffffffffffffffff1673ffffffffffffffffffffffffffffffffffffffff1681526020019081526020016000206006015461404690919063ffffffff16565b600660008873ffffffffffffffffffffffffffffffffffffffff1673ffffffffffffffffffffffffffffffffffffffff16815260200190815260200160002060060181905550612ea0866140e5565b50505050505050565b6060600660008373ffffffffffffffffffffffffffffffffffffffff1673ffffffffffffffffffffffffffffffffffffffff1681526020019081526020016000206000018054600181600116156101000203166002900480601f016020809104026020016040519081016040528092919081815260200182805460018160011615610100020316600290048015612f815780601f10612f5657610100808354040283529160200191612f81565b820191906000526020600020905b815481529060010190602001808311612f6457829003601f168201915b50505050509050919050565b8073ffffffffffffffffffffffffffffffffffffffff166108fc600d60008673ffffffffffffffffffffffffffffffffffffffff1673ffffffffffffffffffffffffffffffffffffffff16815260200190815260200160002060010184604051612ff791906152a2565b9081526020016040518091039020600901549081150290604051600060405180830381858888f19350505050158015613034573d6000803e3d6000fd5b50505050565b600e602052806000526040600020600091509050806000018054600181600116156101000203166002900480601f0160208091040260200160405190810160405280929190818152602001828054600181600116156101000203166002900480156130e65780601f106130bb576101008083540402835291602001916130e6565b820191906000526020600020905b8154815290600101906020018083116130c957829003601f168201915b505050505090806001018054600181600116156101000203166002900480601f0160208091040260200160405190810160405280929190818152602001828054600181600116156101000203166002900480156131845780601f1061315957610100808354040283529160200191613184565b820191906000526020600020905b81548152906001019060200180831161316757829003601f168201915b505050505090806002015490806003018054600181600116156101000203166002900480601f0160208091040260200160405190810160405280929190818152602001828054600181600116156101000203166002900480156132285780601f106131fd57610100808354040283529160200191613228565b820191906000526020600020905b81548152906001019060200180831161320b57829003601f168201915b5050505050908060040160009054906101000a900460ff16908060050154908060060160009054906101000a900473ffffffffffffffffffffffffffffffffffffffff16905087565b6000600d60008473ffffffffffffffffffffffffffffffffffffffff1673ffffffffffffffffffffffffffffffffffffffff168152602001908152602001600020600201826040516132c391906152a2565b908152602001604051809103902060009054906101000a900460ff16905092915050565b6000600d60008573ffffffffffffffffffffffffffffffffffffffff1673ffffffffffffffffffffffffffffffffffffffff1681526020019081526020016000206001018360405161333991906152a2565b908152602001604051809103902060060160008373ffffffffffffffffffffffffffffffffffffffff1673ffffffffffffffffffffffffffffffffffffffff16815260200190815260200160002060009054906101000a900460ff1690509392505050565b6060600980548060200260200160405190810160405280929190818152602001828054801561342257602002820191906000526020600020905b8160009054906101000a900473ffffffffffffffffffffffffffffffffffffffff1673ffffffffffffffffffffffffffffffffffffffff16815260200190600101908083116133d8575b5050505050905090565b338360011515600d60008473ffffffffffffffffffffffffffffffffffffffff1673ffffffffffffffffffffffffffffffffffffffff1681526020019081526020016000206001018260405161348291906152a2565b9081526020016040518091039020600b0160009054906101000a900460ff161515146134e3576040517f08c379a00000000000000000000000000000000000000000000000000000000081526004016134da906156b0565b60405180910390fd5b3385600160028111156134f257fe5b600d60008473ffffffffffffffffffffffffffffffffffffffff1673ffffffffffffffffffffffffffffffffffffffff1681526020019081526020016000206001018260405161354291906152a2565b908152602001604051809103902060040160009054906101000a900460ff16600281111561356c57fe5b146135ac576040517f08c379a00000000000000000000000000000000000000000000000000000000081526004016135a390615590565b60405180910390fd5b6000600d60003373ffffffffffffffffffffffffffffffffffffffff1673ffffffffffffffffffffffffffffffffffffffff168152602001908152602001600020600101886040516135fe91906152a2565b908152602001604051809103902060070160009054906101000a900473ffffffffffffffffffffffffffffffffffffffff1690506136886001600660008473ffffffffffffffffffffffffffffffffffffffff1673ffffffffffffffffffffffffffffffffffffffff1681526020019081526020016000206005015461404690919063ffffffff16565b600660008373ffffffffffffffffffffffffffffffffffffffff1673ffffffffffffffffffffffffffffffffffffffff168152602001908152602001600020600401819055506002600d60003373ffffffffffffffffffffffffffffffffffffffff1673ffffffffffffffffffffffffffffffffffffffff1681526020019081526020016000206001018960405161372091906152a2565b908152602001604051809103902060040160006101000a81548160ff0219169083600281111561374c57fe5b021790555061375c818888612bfe565b613767338983612f8d565b6002600e6000600f8b60405161377d91906152a2565b908152602001604051809103902060003373ffffffffffffffffffffffffffffffffffffffff1673ffffffffffffffffffffffffffffffffffffffff16815260200190815260200160002054815260200190815260200160002060040160006101000a81548160ff021916908360028111156137f557fe5b02179055505050505050505050565b6009818154811061381157fe5b906000526020600020016000915054906101000a900473ffffffffffffffffffffffffffffffffffffffff1681565b60001515600a60003373ffffffffffffffffffffffffffffffffffffffff1673ffffffffffffffffffffffffffffffffffffffff16815260200190815260200160002060009054906101000a900460ff161515146138d3576040517f08c379a00000000000000000000000000000000000000000000000000000000081526004016138ca90615470565b60405180910390fd5b8060001515600b826040516138e891906152a2565b908152602001604051809103902060009054906101000a900460ff16151514613946576040517f08c379a000000000000000000000000000000000000000000000000000000000815260040161393d90615670565b60405180910390fd5b81600d60003373ffffffffffffffffffffffffffffffffffffffff1673ffffffffffffffffffffffffffffffffffffffff168152602001908152602001600020600001908051906020019061399c929190614373565b506001600b836040516139af91906152a2565b908152602001604051809103902060006101000a81548160ff0219169083151502179055506001600a60003373ffffffffffffffffffffffffffffffffffffffff1673ffffffffffffffffffffffffffffffffffffffff16815260200190815260200160002060006101000a81548160ff02191690831515021790555060083390806001815401808255809150509060018203906000526020600020016000909192909190916101000a81548173ffffffffffffffffffffffffffffffffffffffff021916908373ffffffffffffffffffffffffffffffffffffffff160217905550506000600d60003373ffffffffffffffffffffffffffffffffffffffff1673ffffffffffffffffffffffffffffffffffffffff16815260200190815260200160002060030160006101000a81548160ff0219169083151502179055505050565b3360001515600160008373ffffffffffffffffffffffffffffffffffffffff1673ffffffffffffffffffffffffffffffffffffffff16815260200190815260200160002060009054906101000a900460ff16151514613b85576040517f08c379a0000000000000000000000000000000000000000000000000000000008152600401613b7c906154b0565b60405180910390fd5b8160001515600382604051613b9a91906152a2565b908152602001604051809103902060009054906101000a900460ff16151514613bf8576040517f08c379a0000000000000000000000000000000000000000000000000000000008152600401613bef906155f0565b60405180910390fd5b6005600660003373ffffffffffffffffffffffffffffffffffffffff1673ffffffffffffffffffffffffffffffffffffffff1681526020019081526020016000206004018190555082600660003373ffffffffffffffffffffffffffffffffffffffff1673ffffffffffffffffffffffffffffffffffffffff1681526020019081526020016000206000019080519060200190613c96929190614373565b506001600660003373ffffffffffffffffffffffffffffffffffffffff1673ffffffffffffffffffffffffffffffffffffffff16815260200190815260200160002060010160003373ffffffffffffffffffffffffffffffffffffffff1673ffffffffffffffffffffffffffffffffffffffff16815260200190815260200160002060006101000a81548160ff02191690831515021790555060018060003373ffffffffffffffffffffffffffffffffffffffff1673ffffffffffffffffffffffffffffffffffffffff16815260200190815260200160002060006101000a81548160ff021916908315150217905550613ddc6001600660003373ffffffffffffffffffffffffffffffffffffffff1673ffffffffffffffffffffffffffffffffffffffff1681526020019081526020016000206006015461404690919063ffffffff16565b600660003373ffffffffffffffffffffffffffffffffffffffff1673ffffffffffffffffffffffffffffffffffffffff16815260200190815260200160002060060181905550613e2b336140e5565b5060011515600384604051613e4091906152a2565b908152602001604051809103902060009054906101000a90505050505050565b6000600d60008373ffffffffffffffffffffffffffffffffffffffff1673ffffffffffffffffffffffffffffffffffffffff16815260200190815260200160002060030160009054906101000a900460ff169050919050565b6000600d60003373ffffffffffffffffffffffffffffffffffffffff1673ffffffffffffffffffffffffffffffffffffffff16815260200190815260200160002060010183604051613f0b91906152a2565b9081526020016040518091039020600c0160003373ffffffffffffffffffffffffffffffffffffffff1673ffffffffffffffffffffffffffffffffffffffff1681526020019081526020016000205414613f6457600080fd5b80600d60003373ffffffffffffffffffffffffffffffffffffffff1673ffffffffffffffffffffffffffffffffffffffff16815260200190815260200160002060010183604051613fb591906152a2565b9081526020016040518091039020600c0160003373ffffffffffffffffffffffffffffffffffffffff1673ffffffffffffffffffffffffffffffffffffffff168152602001908152602001600020819055505050565b600f82805160208101820180518482526020830160208501208183528095505050505050602052806000526040600020600091509150505481565b600080828401905083811015614091576040517f08c379a0000000000000000000000000000000000000000000000000000000008152600401614088906154f0565b60405180910390fd5b8091505092915050565b60006140dd83836040518060400160405280601e81526020017f536166654d6174683a207375627472616374696f6e206f766572666c6f77000081525061426d565b905092915050565b6000806000905060008090505b600660008573ffffffffffffffffffffffffffffffffffffffff1673ffffffffffffffffffffffffffffffffffffffff168152602001908152602001600020600701805490508110156141b8576141a9600660008673ffffffffffffffffffffffffffffffffffffffff1673ffffffffffffffffffffffffffffffffffffffff168152602001908152602001600020600701828154811061418f57fe5b90600052602060002001548361404690919063ffffffff16565b915080806001019150506140f2565b506142216005614213600660008773ffffffffffffffffffffffffffffffffffffffff1673ffffffffffffffffffffffffffffffffffffffff16815260200190815260200160002060060154846142c890919063ffffffff16565b61404690919063ffffffff16565b600660008573ffffffffffffffffffffffffffffffffffffffff1673ffffffffffffffffffffffffffffffffffffffff1681526020019081526020016000206004018190555050919050565b60008383111582906142b5576040517f08c379a00000000000000000000000000000000000000000000000000000000081526004016142ac919061534e565b60405180910390fd5b5060008385039050809150509392505050565b600061430a83836040518060400160405280601a81526020017f536166654d6174683a206469766973696f6e206279207a65726f000000000000815250614312565b905092915050565b60008083118290614359576040517f08c379a0000000000000000000000000000000000000000000000000000000008152600401614350919061534e565b60405180910390fd5b50600083858161436557fe5b049050809150509392505050565b828054600181600116156101000203166002900490600052602060002090601f016020900481019282601f106143b457805160ff19168380011785556143e2565b828001600101855582156143e2579182015b828111156143e15782518255916020019190600101906143c6565b5b5090506143ef919061447a565b5090565b828054600181600116156101000203166002900490600052602060002090601f016020900481019282601f1061442c5780548555614469565b8280016001018555821561446957600052602060002091601f016020900482015b8281111561446857825482559160010191906001019061444d565b5b509050614476919061447a565b5090565b61449c91905b80821115614498576000816000905550600101614480565b5090565b90565b6000813590506144ae81615944565b92915050565b6000813590506144c38161595b565b92915050565b600082601f8301126144da57600080fd5b81356144ed6144e882615758565b61572b565b9150808252602083016020830185838301111561450957600080fd5b6145148382846158e4565b50505092915050565b600082601f83011261452e57600080fd5b813561454161453c82615784565b61572b565b9150808252602083016020830185838301111561455d57600080fd5b6145688382846158e4565b50505092915050565b60008135905061458081615972565b92915050565b60006020828403121561459857600080fd5b60006145a68482850161449f565b91505092915050565b600080604083850312156145c257600080fd5b60006145d08582860161449f565b925050602083013567ffffffffffffffff8111156145ed57600080fd5b6145f98582860161451d565b9150509250929050565b60008060006060848603121561461857600080fd5b60006146268682870161449f565b935050602084013567ffffffffffffffff81111561464357600080fd5b61464f8682870161451d565b92505060406146608682870161449f565b9150509250925092565b60008060006060848603121561467f57600080fd5b600061468d8682870161449f565b935050602084013567ffffffffffffffff8111156146aa57600080fd5b6146b68682870161451d565b92505060406146c7868287016144b4565b9150509250925092565b600080600080608085870312156146e757600080fd5b60006146f58782880161449f565b945050602085013567ffffffffffffffff81111561471257600080fd5b61471e8782880161451d565b935050604085013567ffffffffffffffff81111561473b57600080fd5b6147478782880161451d565b925050606085013567ffffffffffffffff81111561476457600080fd5b6147708782880161451d565b91505092959194509250565b60008060006060848603121561479157600080fd5b600061479f8682870161449f565b935050602084013567ffffffffffffffff8111156147bc57600080fd5b6147c88682870161451d565b92505060406147d986828701614571565b9150509250925092565b6000602082840312156147f557600080fd5b600082013567ffffffffffffffff81111561480f57600080fd5b61481b8482850161451d565b91505092915050565b6000806040838503121561483757600080fd5b600083013567ffffffffffffffff81111561485157600080fd5b61485d8582860161451d565b925050602061486e858286016144b4565b9150509250929050565b60008060006060848603121561488d57600080fd5b600084013567ffffffffffffffff8111156148a757600080fd5b6148b38682870161451d565b935050602084013567ffffffffffffffff8111156148d057600080fd5b6148dc8682870161451d565b92505060406148ed86828701614571565b9150509250925092565b6000806040838503121561490a57600080fd5b600083013567ffffffffffffffff81111561492457600080fd5b6149308582860161451d565b925050602061494185828601614571565b9150509250929050565b6000806040838503121561495e57600080fd5b600083013567ffffffffffffffff81111561497857600080fd5b614984858286016144c9565b92505060206149958582860161449f565b9150509250929050565b6000602082840312156149b157600080fd5b60006149bf84828501614571565b91505092915050565b600080600080600060a086880312156149e057600080fd5b60006149ee88828901614571565b955050602086013567ffffffffffffffff811115614a0b57600080fd5b614a178882890161451d565b9450506040614a2888828901614571565b935050606086013567ffffffffffffffff811115614a4557600080fd5b614a518882890161451d565b9250506080614a6288828901614571565b9150509295509295909350565b6000614a7b8383614aaa565b60208301905092915050565b6000614a938383614c23565b905092915050565b614aa481615877565b82525050565b614ab381615865565b82525050565b614ac281615865565b82525050565b6000614ad3826157d0565b614add8185615816565b9350614ae8836157b0565b8060005b83811015614b19578151614b008882614a6f565b9750614b0b836157fc565b925050600181019050614aec565b5085935050505092915050565b6000614b31826157db565b614b3b8185615827565b935083602082028501614b4d856157c0565b8060005b85811015614b895784840389528151614b6a8582614a87565b9450614b7583615809565b925060208a01995050600181019050614b51565b50829750879550505050505092915050565b614ba481615889565b82525050565b614bb3816158d2565b82525050565b6000614bc4826157f1565b614bce8185615849565b9350614bde8185602086016158f3565b614be781615926565b840191505092915050565b6000614bfd826157f1565b614c07818561585a565b9350614c178185602086016158f3565b80840191505092915050565b6000614c2e826157e6565b614c388185615838565b9350614c488185602086016158f3565b614c5181615926565b840191505092915050565b6000614c67826157e6565b614c718185615849565b9350614c818185602086016158f3565b614c8a81615926565b840191505092915050565b6000614ca2602283615849565b91507f596f757220636f6d70616e7920697320616c726561647920737562736372696260008301527f65640000000000000000000000000000000000000000000000000000000000006020830152604082019050919050565b6000614d08601e83615849565b91507f546869732061727469737420616464726573732069732062616e6e65642100006000830152602082019050919050565b6000614d48601183615849565b91507f416c726561647920616e204172746973740000000000000000000000000000006000830152602082019050919050565b6000614d88601e83615849565b91507f5468697320636f6d70616e79206973206e6f74207375736372696265642100006000830152602082019050919050565b6000614dc8601b83615849565b91507f536166654d6174683a206164646974696f6e206f766572666c6f7700000000006000830152602082019050919050565b6000614e08601583615849565b91507f44656d616e6420646f65736e27742065786973747300000000000000000000006000830152602082019050919050565b6000614e48601f83615849565b91507f726174696e672073686f756c6420626520626574776565203120616e642035006000830152602082019050919050565b6000614e88601683615849565b91507f546869732070726f6a65637420697320636c6f736564000000000000000000006000830152602082019050919050565b6000614ec8600a83615849565b91507f5374696c6c206f70656e000000000000000000000000000000000000000000006000830152602082019050919050565b6000614f08601b83615849565b91507f546869732070726f6a656374206973206e6f74204f6e476f696e6700000000006000830152602082019050919050565b6000614f48601b83615849565b91507f4e6f74207265676973746572656420617320616e2041727469737400000000006000830152602082019050919050565b6000614f88602d83615849565b91507f546869732061727469737420686173206e6f74206170706c69656420746f207460008301527f6869732070726f6a6563742021000000000000000000000000000000000000006020830152604082019050919050565b6000614fee601683615849565b91507f4e616d6520697320616c726561647920696e20757365000000000000000000006000830152602082019050919050565b600061502e603783615849565b91507f796f7572206d696e756d2064656c617920697320746f6f206c6f772c2061742060008301527f6c656173742069742068617320746f20626520373230300000000000000000006020830152604082019050919050565b6000615094601583615849565b91507f44656d616e6420616c72656164792065786973747300000000000000000000006000830152602082019050919050565b60006150d4602c83615849565b91507f796f7572206d696e756d2072657075746174696f6e20697320746f6f206c6f7760008301527f2c206174206c65617374203500000000000000000000000000000000000000006020830152604082019050919050565b600061513a602783615849565b91507f5468697320636f6d70616e79206e616d6520697320616c72656164792073757360008301527f63726962656421000000000000000000000000000000000000000000000000006020830152604082019050919050565b60006151a0601583615849565b91507f596f7520617265206e6f74207468652061646d696e00000000000000000000006000830152602082019050919050565b60006151e0601983615849565b91507f417274207069656365207761736e27742075706c6f61646564000000000000006000830152602082019050919050565b6000615220601f83615849565b91507f74686973206973206e6f74207468652073656c656374656420617274697374006000830152602082019050919050565b6000615260601c83615849565b91507f546869732061727469737420686173206e6f74206170706c69656421000000006000830152602082019050919050565b61529c816158c8565b82525050565b60006152ae8284614bf2565b915081905092915050565b60006020820190506152ce6000830184614ab9565b92915050565b60006020820190506152e96000830184614a9b565b92915050565b600060208201905081810360008301526153098184614ac8565b905092915050565b6000602082019050818103600083015261532b8184614b26565b905092915050565b60006020820190506153486000830184614b9b565b92915050565b600060208201905081810360008301526153688184614bb9565b905092915050565b6000604082019050818103600083015261538a8185614c5c565b90506153996020830184614b9b565b9392505050565b600060e08201905081810360008301526153ba818a614c5c565b905081810360208301526153ce8189614c5c565b90506153dd6040830188615293565b81810360608301526153ef8187614c5c565b90506153fe6080830186614baa565b61540b60a0830185615293565b61541860c0830184614ab9565b98975050505050505050565b6000608082019050818103600083015261543e8187614c5c565b905061544d6020830186615293565b61545a6040830185615293565b6154676060830184615293565b95945050505050565b6000602082019050818103600083015261548981614c95565b9050919050565b600060208201905081810360008301526154a981614cfb565b9050919050565b600060208201905081810360008301526154c981614d3b565b9050919050565b600060208201905081810360008301526154e981614d7b565b9050919050565b6000602082019050818103600083015261550981614dbb565b9050919050565b6000602082019050818103600083015261552981614dfb565b9050919050565b6000602082019050818103600083015261554981614e3b565b9050919050565b6000602082019050818103600083015261556981614e7b565b9050919050565b6000602082019050818103600083015261558981614ebb565b9050919050565b600060208201905081810360008301526155a981614efb565b9050919050565b600060208201905081810360008301526155c981614f3b565b9050919050565b600060208201905081810360008301526155e981614f7b565b9050919050565b6000602082019050818103600083015261560981614fe1565b9050919050565b6000602082019050818103600083015261562981615021565b9050919050565b6000602082019050818103600083015261564981615087565b9050919050565b60006020820190508181036000830152615669816150c7565b9050919050565b600060208201905081810360008301526156898161512d565b9050919050565b600060208201905081810360008301526156a981615193565b9050919050565b600060208201905081810360008301526156c9816151d3565b9050919050565b600060208201905081810360008301526156e981615213565b9050919050565b6000602082019050818103600083015261570981615253565b9050919050565b60006020820190506157256000830184615293565b92915050565b6000604051905081810181811067ffffffffffffffff8211171561574e57600080fd5b8060405250919050565b600067ffffffffffffffff82111561576f57600080fd5b601f19601f8301169050602081019050919050565b600067ffffffffffffffff82111561579b57600080fd5b601f19601f8301169050602081019050919050565b6000819050602082019050919050565b6000819050602082019050919050565b600081519050919050565b600081519050919050565b600081519050919050565b600081519050919050565b6000602082019050919050565b6000602082019050919050565b600082825260208201905092915050565b600082825260208201905092915050565b600082825260208201905092915050565b600082825260208201905092915050565b600081905092915050565b6000615870826158a8565b9050919050565b6000615882826158a8565b9050919050565b60008115159050919050565b60008190506158a382615937565b919050565b600073ffffffffffffffffffffffffffffffffffffffff82169050919050565b6000819050919050565b60006158dd82615895565b9050919050565b82818337600083830152505050565b60005b838110156159115780820151818401526020810190506158f6565b83811115615920576000848401525b50505050565b6000601f19601f8301169050919050565b6003811061594157fe5b50565b61594d81615865565b811461595857600080fd5b50565b61596481615877565b811461596f57600080fd5b50565b61597b816158c8565b811461598657600080fd5b5056fea365627a7a72315820c869040249b53e77648c72083594a5bcef4dee12c9b6a2eacc0ecc4c63f0243f6c6578706572696d656e74616cf564736f6c63430005100040",
  "source": "pragma solidity >=0.4.21 <0.7.0;\npragma experimental ABIEncoderV2;\nimport \"./Artist.sol\";\nimport \"./SafeMath.sol\";\n//https://web3js.readthedocs.io/en/v1.2.0/web3-eth-contract.html#methods-mymethod-estimategas \n//SPDX-License-Identifier: UNLICENSED\ncontract marketPlace is Rating{\n\n    //VARIABLES  \n\n    //string demandx;\n    string[] all_demands;\n    enum Status {Open, Ongoing, Closed}\n    address[] public companies_addresses;\n    address[] public applications;\n    mapping(address => bool) companies_existance;\n    mapping(string => bool) companies_name;\n    uint keys = 0;\n    //STRUCTURES   \n\n    struct Dem{ \n        string company;\n        string demand;\n        uint delay;\n        string description;\n        Status status;\n        uint remuneration;\n        address company_address;\n    }\n\n    struct Demand{\n        uint remuneration;\n        uint delay;\n        uint deadline;\n        string description;\n        Status status;\n        uint minRep;\n        mapping(address => bool) candidates;\n        address payable chosen;\n        address addressCompany;\n        uint deposit;\n        string art_piece;\n        bool url_exist;\n        mapping(address => uint) balances;\n        uint value;\n    }\n\n    struct Companies{\n        string name;\n        mapping(string => Demand) demands;\n        mapping(string => bool) all_demands_company;\n        bool has_demand;\n    }\n\n    //MAPPINGS FOR STRUCTURE  \n\n    mapping(address => Companies)  public companies;\n    mapping(uint => Dem) public dems;\n    mapping(string => mapping(address => uint)) public dem_key;\n\n\n    // MODIFIERS  \n\n    modifier checkReputation(address _company, string memory _demand_name){\n        require(artists[msg.sender].userReputation >= companies[_company].demands[_demand_name].minRep);\n        _;\n    }\n\n    modifier statusOpen(address _company, string memory _demand_name) {\n        require(companies[_company].demands[_demand_name].status == Status.Open, \"This project is closed\");\n        _;\n    }\n    \n    modifier statusOnGoing(address _company, string memory _demand_name) {\n        require(companies[_company].demands[_demand_name].status == Status.Ongoing, \"This project is not OnGoing\");\n        _;\n    }\n\n    modifier selectedArtist(address _company, string memory _demand_name, address _artist) {\n        require(companies[_company].demands[_demand_name].chosen == _artist, \"this is not the selected artist\");\n        _;\n    }\n\n    modifier ownerCompany(address _company) {\n        require(msg.sender == _company);\n        _;\n    }\n    \n    modifier checkDeadline(address _company, string memory _demand_name){\n        require(companies[_company].demands[_demand_name].deadline > now, \"Still open\");\n        _;\n    }\n    \n    modifier Applied(address _company, string memory _demand_name, address _artist){\n        require(companies[_company].demands[_demand_name].candidates[_artist] == true, \"This artist has not applied to this project !\");\n        _;\n    }\n    \n    modifier notApplied(address _company, string memory _demand_name){\n        require(companies[_company].demands[_demand_name].candidates[msg.sender] == false, \"This artist has not applied!\");\n        _;\n    }\n\n    modifier companyNotSuscribed(){\n        require(companies_existance[msg.sender] == false, \"Your company is already subscribed\");\n        _;\n    }\n\n    modifier companySuscribed(address _company){\n        require(companies_existance[_company] == true, \"This company is not suscribed!\");\n        _;\n    }\n\n    modifier companyName(string memory _company_name){\n        require(companies_name[_company_name] == false, \"This company name is already suscribed!\");\n        _;\n    }\n    \n    modifier minReputation(uint _minRep) {\n        require(_minRep >= 5, \"your minum reputation is too low, at least 5\");\n        _;\n    }\n    \n    modifier minDelay(uint _delay) {\n        require(_delay >= 7200, \"your minum delay is too low, at least it has to be 7200\");\n        _;\n    }\n    \n    modifier demandNotExist(string memory _demand_name) {\n        require(companies[msg.sender].all_demands_company[_demand_name] == false, \"Demand already exists\");\n        _;\n    }\n    \n    modifier demandExist(string memory _demand_name) {\n        require(companies[msg.sender].all_demands_company[_demand_name] == true, \"Demand doesn't exists\");\n        _;\n    }\n    \n    modifier urlExists(address _company, string memory _demand_name) {\n        require(companies[_company].demands[_demand_name].url_exist == true, \"Art piece wasn't uploaded\");\n        _;\n    }\n    \n    // FUNCTIONS  \n    \n    function newCompany(string memory _company_name) companyNotSuscribed companyName(_company_name) public {\n        companies[msg.sender].name = _company_name;\n        companies_name[_company_name] = true;\n        companies_existance[msg.sender] = true;\n        companies_addresses.push(msg.sender);\n        companies[msg.sender].has_demand = false;\n    }\n\n    function getCompanies() public view returns(address[] memory){\n        return companies_addresses;\n    }\n    \n    function addDemands(uint _delay, string memory _description, uint _minRep, string memory _demand_name, uint _value) public payable\n        minReputation(_minRep) companySuscribed(msg.sender) minDelay(_delay) demandNotExist(_demand_name) {\n        //Demande memory demande;\n        companies[msg.sender].demands[_demand_name].addressCompany = msg.sender;\n        companies[msg.sender].demands[_demand_name].deposit = msg.value;\n        companies[msg.sender].demands[_demand_name].description = _description;\n        companies[msg.sender].demands[_demand_name].status = Status.Open;\n        companies[msg.sender].demands[_demand_name].minRep = _minRep;\n        companies[msg.sender].demands[_demand_name].delay = _delay;\n        companies[msg.sender].demands[_demand_name].value = _value;\n        companies[msg.sender].demands[_demand_name].balances[msg.sender] = 0;\n        companies[msg.sender].all_demands_company[_demand_name] = true;\n        companies[msg.sender].has_demand = true;\n        //demandx = strConcat(\"Company :\", companies[msg.sender].name, \" | \", _demand_name, \" \");\n        all_demands.push(_demand_name);\n        addDeposit(_demand_name, _value);\n        dems[keys].company = companies[msg.sender].name;\n        dems[keys].demand = _demand_name;\n        dems[keys].delay = _delay;\n        dems[keys].status = Status.Open;\n        dems[keys].remuneration = _value;\n        dems[keys].company_address = msg.sender;\n        keys = keys.add(1);\n        dem_key[_demand_name][msg.sender] = keys;\n    }\n\n    function getDemands() public view returns(string[] memory){\n        return all_demands;\n    }\n\n    function isDemandofCompany(address _company, string memory _demand) public view returns(bool){\n        return companies[_company].all_demands_company[_demand];\n    }\n    \n    function addDeposit(string memory _demand_name, uint _value) payable public {\n        require(companies[msg.sender].demands[_demand_name].balances[msg.sender] == 0);\n        companies[msg.sender].demands[_demand_name].balances[msg.sender] = _value;\n        //c_balances[msg.sender] = c_balances[msg.sender].add(msg.value);\n    }\n    \n    \n    function application(address _company, string memory _demand_name) public payable\n    isAnArtist(msg.sender) statusOpen(_company, _demand_name) notApplied(_company, _demand_name) checkReputation(_company, _demand_name) {\n        companies[_company].demands[_demand_name].candidates[msg.sender] = true;\n        applications.push(msg.sender);\n    }\n\n    function getAplication(address _company, string memory _demand_name, address _artist) public view returns (bool){\n        return companies[_company].demands[_demand_name].candidates[_artist];\n    }\n\n\n    function getApps() public view returns (address[] memory) {\n        return applications;\n    }\n    \n    function winningOffer(string memory _demand_name, address payable _artist) public\n    companySuscribed(msg.sender) ownerCompany(msg.sender) demandExist(_demand_name) \n    statusOpen(msg.sender, _demand_name) Applied(msg.sender, _demand_name, _artist)  {\n        companies[msg.sender].demands[_demand_name].chosen = _artist;\n        companies[msg.sender].demands[_demand_name].status = Status.Ongoing;\n        companies[msg.sender].demands[_demand_name].deadline = now.add(companies[msg.sender].demands[_demand_name].delay);\n        dems[dem_key[_demand_name][msg.sender]].status = Status.Ongoing;\n    }\n    \n    function delivery(address _company, string memory _demand_name, string memory _art_piece, string memory _url) public \n    selectedArtist(_company, _demand_name, msg.sender) statusOnGoing(_company, _demand_name) \n    checkDeadline(_company, _demand_name) /*nameArtPiece(_artist, _art_piece) */{\n        companies[_company].demands[_demand_name].art_piece = _art_piece;\n        companies[_company].demands[_demand_name].url_exist = true;\n        artists[msg.sender].art_pieces[_art_piece].art_piece_url = _url;\n    }\n    \n    \n    function artistRating(string memory _demand_name, string memory _art_piece, uint _rating) public\n    urlExists(msg.sender, _demand_name) statusOnGoing(msg.sender, _demand_name){\n        address payable _artist = companies[msg.sender].demands[_demand_name].chosen;\n        artists[_artist].userReputation = artists[_artist].userFnishedWorks.add(1);\n        companies[msg.sender].demands[_demand_name].status = Status.Closed; \n        setReview(_artist, _art_piece, _rating);\n        artistPayment(msg.sender, _demand_name, _artist);\n        dems[dem_key[_demand_name][msg.sender]].status = Status.Closed;\n\n    }\n    \n    function artistPayment(address _company, string memory _demand_name, address payable _artist) public payable {\n        //msg.sender.transfer(companies[_company].demands[_demand_name].remuneration);\n        _artist.transfer(companies[_company].demands[_demand_name].deposit);\n        //companies[msg.sender].demands[_demand_name].balances[msg.sender] = 0;\n    }\n    \n    \n    function delay(address _artist) public{\n        artists[_artist].userReputation = artists[_artist].userFnishedWorks.sub(1);\n        artists[_artist].numberRatings = artists[_artist].numberRatings.sub(5);\n        updateReputation(_artist);\n    }\n\n    function getKeys() public view returns (uint) {\n        return keys;\n    }\n\n    function companyDemands(address _company, string memory _demand_name) public view returns (bool) {\n        return companies[_company].all_demands_company[_demand_name];\n    }\n\n    function demandKey(address _company, string memory _demand_name) public view returns (uint) {\n        return dem_key[_demand_name][_company];\n    }\n    function isCompany(address _company) public view returns (bool) {\n        return companies_existance[_company];\n    }\n    function hasDemand(address _company) public view returns (bool) {\n        return companies[_company].has_demand;\n    }\n\n    function getCompanyName(address _company) public view returns (string memory){\n        return companies[_company].name;\n    }\n    /*function strConcat(string memory _a, string memory _b, string memory _c, string memory _d, string memory _e) internal returns (string memory){\n        bytes memory _ba = bytes(_a);\n        bytes memory _bb = bytes(_b);\n        bytes memory _bc = bytes(_c);\n        bytes memory _bd = bytes(_d);\n        bytes memory _be = bytes(_e);\n        string memory abcde = new string(_ba.length + _bb.length + _bc.length + _bd.length + _be.length);\n        bytes memory babcde = bytes(abcde);\n        uint k = 0;\n        for (uint i = 0; i < _ba.length; i++) babcde[k++] = _ba[i];\n        for (uint i = 0; i < _bb.length; i++) babcde[k++] = _bb[i];\n        for (uint i = 0; i < _bc.length; i++) babcde[k++] = _bc[i];\n        for (uint i = 0; i < _bd.length; i++) babcde[k++] = _bd[i];\n        for (uint i = 0; i < _be.length; i++) babcde[k++] = _be[i];\n        return string(babcde);\n    }*/\n\n}\n\n\n\n",
  "sourcePath": "/home/pupulvuh/code/gonzaloetjo/depot/Defi 2/contracts/marketPlace.sol",
  "compiler": {
    "name": "solc",
    "version": "0.5.16+commit.9c3226ce.Emscripten.clang"
  },
  "schemaVersion": "3.1.0",
  "updatedAt": "2020-05-22T02:23:04.644Z",
  "networkType": "ethereum",
  "devdoc": {
    "methods": {}
  },
  "userdoc": {
    "methods": {}
  }
}