{
  "contractName": "marketPlace",
  "abi": [
    {
      "constant": true,
      "inputs": [
        {
          "internalType": "address",
          "name": "_address",
          "type": "address"
        }
      ],
      "name": "adminExists",
      "outputs": [
        {
          "internalType": "bool",
          "name": "",
          "type": "bool"
        }
      ],
      "payable": false,
      "stateMutability": "view",
      "type": "function"
    },
    {
      "constant": true,
      "inputs": [
        {
          "internalType": "address",
          "name": "",
          "type": "address"
        }
      ],
      "name": "allArtist",
      "outputs": [
        {
          "internalType": "bool",
          "name": "",
          "type": "bool"
        }
      ],
      "payable": false,
      "stateMutability": "view",
      "type": "function"
    },
    {
      "constant": true,
      "inputs": [
        {
          "internalType": "uint256",
          "name": "",
          "type": "uint256"
        }
      ],
      "name": "applications",
      "outputs": [
        {
          "internalType": "address",
          "name": "",
          "type": "address"
        }
      ],
      "payable": false,
      "stateMutability": "view",
      "type": "function"
    },
    {
      "constant": false,
      "inputs": [
        {
          "internalType": "address",
          "name": "_artist",
          "type": "address"
        }
      ],
      "name": "ban",
      "outputs": [],
      "payable": false,
      "stateMutability": "nonpayable",
      "type": "function"
    },
    {
      "constant": true,
      "inputs": [
        {
          "internalType": "address",
          "name": "",
          "type": "address"
        }
      ],
      "name": "blackList",
      "outputs": [
        {
          "internalType": "bool",
          "name": "",
          "type": "bool"
        }
      ],
      "payable": false,
      "stateMutability": "view",
      "type": "function"
    },
    {
      "constant": true,
      "inputs": [
        {
          "internalType": "address",
          "name": "",
          "type": "address"
        }
      ],
      "name": "companies",
      "outputs": [
        {
          "internalType": "string",
          "name": "name",
          "type": "string"
        }
      ],
      "payable": false,
      "stateMutability": "view",
      "type": "function"
    },
    {
      "constant": true,
      "inputs": [
        {
          "internalType": "uint256",
          "name": "",
          "type": "uint256"
        }
      ],
      "name": "companies_addresses",
      "outputs": [
        {
          "internalType": "address",
          "name": "",
          "type": "address"
        }
      ],
      "payable": false,
      "stateMutability": "view",
      "type": "function"
    },
    {
      "constant": true,
      "inputs": [
        {
          "internalType": "address",
          "name": "",
          "type": "address"
        }
      ],
      "name": "dem_key",
      "outputs": [
        {
          "internalType": "uint256",
          "name": "",
          "type": "uint256"
        }
      ],
      "payable": false,
      "stateMutability": "view",
      "type": "function"
    },
    {
      "constant": true,
      "inputs": [
        {
          "internalType": "uint256",
          "name": "",
          "type": "uint256"
        }
      ],
      "name": "dems",
      "outputs": [
        {
          "internalType": "string",
          "name": "company",
          "type": "string"
        },
        {
          "internalType": "string",
          "name": "demand",
          "type": "string"
        },
        {
          "internalType": "uint256",
          "name": "delay",
          "type": "uint256"
        },
        {
          "internalType": "string",
          "name": "description",
          "type": "string"
        },
        {
          "internalType": "enum marketPlace.Status",
          "name": "status",
          "type": "uint8"
        },
        {
          "internalType": "uint256",
          "name": "remuneration",
          "type": "uint256"
        }
      ],
      "payable": false,
      "stateMutability": "view",
      "type": "function"
    },
    {
      "constant": true,
      "inputs": [
        {
          "internalType": "address",
          "name": "_artist",
          "type": "address"
        },
        {
          "internalType": "string",
          "name": "_art_piece",
          "type": "string"
        },
        {
          "internalType": "address",
          "name": "_rater",
          "type": "address"
        }
      ],
      "name": "existReview",
      "outputs": [
        {
          "internalType": "uint256",
          "name": "",
          "type": "uint256"
        }
      ],
      "payable": false,
      "stateMutability": "view",
      "type": "function"
    },
    {
      "constant": true,
      "inputs": [
        {
          "internalType": "address",
          "name": "_artist",
          "type": "address"
        },
        {
          "internalType": "string",
          "name": "_art_piece",
          "type": "string"
        },
        {
          "internalType": "address",
          "name": "_reviewer",
          "type": "address"
        }
      ],
      "name": "getRating",
      "outputs": [
        {
          "internalType": "uint256",
          "name": "",
          "type": "uint256"
        }
      ],
      "payable": false,
      "stateMutability": "view",
      "type": "function"
    },
    {
      "constant": true,
      "inputs": [],
      "name": "owner",
      "outputs": [
        {
          "internalType": "address",
          "name": "",
          "type": "address"
        }
      ],
      "payable": false,
      "stateMutability": "view",
      "type": "function"
    },
    {
      "constant": false,
      "inputs": [
        {
          "internalType": "string",
          "name": "_name",
          "type": "string"
        }
      ],
      "name": "register",
      "outputs": [],
      "payable": false,
      "stateMutability": "nonpayable",
      "type": "function"
    },
    {
      "constant": false,
      "inputs": [
        {
          "internalType": "address",
          "name": "_artist",
          "type": "address"
        },
        {
          "internalType": "string",
          "name": "_art_piece",
          "type": "string"
        },
        {
          "internalType": "uint256",
          "name": "_rating",
          "type": "uint256"
        }
      ],
      "name": "setReview",
      "outputs": [],
      "payable": false,
      "stateMutability": "nonpayable",
      "type": "function"
    },
    {
      "constant": true,
      "inputs": [],
      "name": "wallet",
      "outputs": [
        {
          "internalType": "address payable",
          "name": "",
          "type": "address"
        }
      ],
      "payable": false,
      "stateMutability": "view",
      "type": "function"
    },
    {
      "constant": false,
      "inputs": [
        {
          "internalType": "string",
          "name": "_company_name",
          "type": "string"
        }
      ],
      "name": "newCompany",
      "outputs": [],
      "payable": false,
      "stateMutability": "nonpayable",
      "type": "function"
    },
    {
      "constant": true,
      "inputs": [],
      "name": "getCompanies",
      "outputs": [
        {
          "internalType": "address[]",
          "name": "",
          "type": "address[]"
        }
      ],
      "payable": false,
      "stateMutability": "view",
      "type": "function"
    },
    {
      "constant": false,
      "inputs": [
        {
          "internalType": "uint256",
          "name": "_delay",
          "type": "uint256"
        },
        {
          "internalType": "string",
          "name": "_description",
          "type": "string"
        },
        {
          "internalType": "uint256",
          "name": "_minRep",
          "type": "uint256"
        },
        {
          "internalType": "string",
          "name": "_demand_name",
          "type": "string"
        },
        {
          "internalType": "uint256",
          "name": "_value",
          "type": "uint256"
        }
      ],
      "name": "addDemands",
      "outputs": [],
      "payable": true,
      "stateMutability": "payable",
      "type": "function"
    },
    {
      "constant": true,
      "inputs": [],
      "name": "getDemands",
      "outputs": [
        {
          "internalType": "string[]",
          "name": "",
          "type": "string[]"
        }
      ],
      "payable": false,
      "stateMutability": "view",
      "type": "function"
    },
    {
      "constant": true,
      "inputs": [
        {
          "internalType": "address",
          "name": "_company",
          "type": "address"
        },
        {
          "internalType": "string",
          "name": "_demand",
          "type": "string"
        }
      ],
      "name": "isDemandofCompany",
      "outputs": [
        {
          "internalType": "bool",
          "name": "",
          "type": "bool"
        }
      ],
      "payable": false,
      "stateMutability": "view",
      "type": "function"
    },
    {
      "constant": false,
      "inputs": [
        {
          "internalType": "string",
          "name": "_demand_name",
          "type": "string"
        },
        {
          "internalType": "uint256",
          "name": "_value",
          "type": "uint256"
        }
      ],
      "name": "addDeposit",
      "outputs": [],
      "payable": true,
      "stateMutability": "payable",
      "type": "function"
    },
    {
      "constant": false,
      "inputs": [
        {
          "internalType": "address",
          "name": "_company",
          "type": "address"
        },
        {
          "internalType": "string",
          "name": "_demand_name",
          "type": "string"
        }
      ],
      "name": "application",
      "outputs": [],
      "payable": true,
      "stateMutability": "payable",
      "type": "function"
    },
    {
      "constant": false,
      "inputs": [
        {
          "internalType": "string",
          "name": "_demand_name",
          "type": "string"
        },
        {
          "internalType": "address payable",
          "name": "_artist",
          "type": "address"
        }
      ],
      "name": "winningOffer",
      "outputs": [],
      "payable": false,
      "stateMutability": "nonpayable",
      "type": "function"
    },
    {
      "constant": false,
      "inputs": [
        {
          "internalType": "address",
          "name": "_company",
          "type": "address"
        },
        {
          "internalType": "string",
          "name": "_demand_name",
          "type": "string"
        },
        {
          "internalType": "string",
          "name": "_art_piece",
          "type": "string"
        },
        {
          "internalType": "string",
          "name": "_url",
          "type": "string"
        }
      ],
      "name": "delivery",
      "outputs": [],
      "payable": false,
      "stateMutability": "nonpayable",
      "type": "function"
    },
    {
      "constant": false,
      "inputs": [
        {
          "internalType": "string",
          "name": "_demand_name",
          "type": "string"
        },
        {
          "internalType": "string",
          "name": "_art_piece",
          "type": "string"
        },
        {
          "internalType": "uint256",
          "name": "_rating",
          "type": "uint256"
        }
      ],
      "name": "artistRating",
      "outputs": [],
      "payable": false,
      "stateMutability": "nonpayable",
      "type": "function"
    },
    {
      "constant": false,
      "inputs": [
        {
          "internalType": "address",
          "name": "_company",
          "type": "address"
        },
        {
          "internalType": "string",
          "name": "_demand_name",
          "type": "string"
        },
        {
          "internalType": "address payable",
          "name": "_artist",
          "type": "address"
        }
      ],
      "name": "artistPayment",
      "outputs": [],
      "payable": true,
      "stateMutability": "payable",
      "type": "function"
    },
    {
      "constant": false,
      "inputs": [
        {
          "internalType": "address",
          "name": "_artist",
          "type": "address"
        }
      ],
      "name": "delay",
      "outputs": [],
      "payable": false,
      "stateMutability": "nonpayable",
      "type": "function"
    },
    {
      "constant": true,
      "inputs": [],
      "name": "getKeys",
      "outputs": [
        {
          "internalType": "uint256",
          "name": "",
          "type": "uint256"
        }
      ],
      "payable": false,
      "stateMutability": "view",
      "type": "function"
    }
  ],
  "bytecode": "0x60806040526000600d5533600560006101000a81548173ffffffffffffffffffffffffffffffffffffffff021916908373ffffffffffffffffffffffffffffffffffffffff160217905550336000806101000a81548173ffffffffffffffffffffffffffffffffffffffff021916908373ffffffffffffffffffffffffffffffffffffffff1602179055506200009a620000a060201b60201c565b62000108565b60043390806001815401808255809150509060018203906000526020600020016000909192909190916101000a81548173ffffffffffffffffffffffffffffffffffffffff021916908373ffffffffffffffffffffffffffffffffffffffff16021790555050565b614dc780620001186000396000f3fe6080604052600436106101b75760003560e01c806395ef1468116100ec578063bad353cf1161008a578063dfefadff11610064578063dfefadff14610644578063f1e6fe8714610681578063f2c298be146106aa578063fad89e6e146106d3576101b7565b8063bad353cf146105bd578063c3c660e1146105d9578063de6aa5741461061b576101b7565b8063a310cb6a116100c6578063a310cb6a14610505578063a90fbd831461052e578063a9563db01461056b578063b25bf8bc14610594576101b7565b806395ef14681461047657806397c3ccd81461049f5780639be2d095146104c8576101b7565b80635ad0da06116101595780638294b689116101335780638294b689146103b557806382e8f119146103f25780638da5cb5b1461040e5780638fa3e00b14610439576101b7565b80635ad0da06146103315780635d7dbbc61461035c5780636bedbe5314610378576101b7565b8063355e6ce811610195578063355e6ce81461024f5780634076419e1461028c5780634838d165146102c9578063521eb27314610306576101b7565b806308352cc5146101bc5780630c0b6691146101f95780632150c51814610224575b600080fd5b3480156101c857600080fd5b506101e360048036036101de9190810190613e2e565b6106ef565b6040516101f09190614748565b60405180910390f35b34801561020557600080fd5b5061020e61072b565b60405161021b919061477e565b60405180910390f35b34801561023057600080fd5b506102396107b9565b6040516102469190614b37565b60405180910390f35b34801561025b57600080fd5b5061027660048036036102719190810190613a69565b6107c3565b60405161028391906147dd565b60405180910390f35b34801561029857600080fd5b506102b360048036036102ae9190810190613ae6565b610879565b6040516102c09190614b37565b60405180910390f35b3480156102d557600080fd5b506102f060048036036102eb9190810190613a69565b610939565b6040516102fd91906147c2565b60405180910390f35b34801561031257600080fd5b5061031b610959565b6040516103289190614763565b60405180910390f35b34801561033d57600080fd5b5061034661097e565b60405161035391906147a0565b60405180910390f35b61037660048036036103719190810190613a92565b610a67565b005b34801561038457600080fd5b5061039f600480360361039a9190810190613a69565b610e2c565b6040516103ac9190614b37565b60405180910390f35b3480156103c157600080fd5b506103dc60048036036103d79190810190613ae6565b610e44565b6040516103e99190614b37565b60405180910390f35b61040c60048036036104079190810190613e57565b610ef1565b005b34801561041a57600080fd5b506104236116b3565b6040516104309190614748565b60405180910390f35b34801561044557600080fd5b50610460600480360361045b9190810190613a92565b6116d9565b60405161046d91906147c2565b60405180910390f35b34801561048257600080fd5b5061049d60048036036104989190810190613d07565b61174f565b005b3480156104ab57600080fd5b506104c660048036036104c19190810190613a69565b611d0c565b005b3480156104d457600080fd5b506104ef60048036036104ea9190810190613a69565b611f2b565b6040516104fc91906147c2565b60405180910390f35b34801561051157600080fd5b5061052c60048036036105279190810190613a69565b611fcd565b005b34801561053a57600080fd5b5061055560048036036105509190810190613a69565b612112565b60405161056291906147c2565b60405180910390f35b34801561057757600080fd5b50610592600480360361058d9190810190613bb4565b612132565b005b3480156105a057600080fd5b506105bb60048036036105b69190810190613c5f565b612505565b005b6105d760048036036105d29190810190613b4d565b6127b0565b005b3480156105e557600080fd5b5061060060048036036105fb9190810190613e2e565b61285d565b60405161061296959493929190614821565b60405180910390f35b34801561062757600080fd5b50610642600480360361063d9190810190613d5b565b612a6e565b005b34801561065057600080fd5b5061066b60048036036106669190810190613e2e565b612e2a565b6040516106789190614748565b60405180910390f35b34801561068d57600080fd5b506106a860048036036106a39190810190613cc6565b612e66565b005b3480156106b657600080fd5b506106d160048036036106cc9190810190613cc6565b6130bc565b005b6106ed60048036036106e89190810190613dda565b61342b565b005b600881815481106106fc57fe5b906000526020600020016000915054906101000a900473ffffffffffffffffffffffffffffffffffffffff1681565b606060088054806020026020016040519081016040528092919081815260200182805480156107af57602002820191906000526020600020905b8160009054906101000a900473ffffffffffffffffffffffffffffffffffffffff1673ffffffffffffffffffffffffffffffffffffffff1681526020019060010190808311610765575b5050505050905090565b6000600d54905090565b600e602052806000526040600020600091509050806000018054600181600116156101000203166002900480601f01602080910402602001604051908101604052809291908181526020018280546001816001161561010002031660029004801561086f5780601f106108445761010080835404028352916020019161086f565b820191906000526020600020905b81548152906001019060200180831161085257829003601f168201915b5050505050905081565b600080600660008673ffffffffffffffffffffffffffffffffffffffff1673ffffffffffffffffffffffffffffffffffffffff168152602001908152602001600020600201846040516108cc9190614731565b908152602001604051809103902060010160008473ffffffffffffffffffffffffffffffffffffffff1673ffffffffffffffffffffffffffffffffffffffff16815260200190815260200160002060000154141561092d5760009050610932565b600190505b9392505050565b60026020528060005260406000206000915054906101000a900460ff1681565b6000809054906101000a900473ffffffffffffffffffffffffffffffffffffffff1681565b60606007805480602002602001604051908101604052809291908181526020016000905b82821015610a5e578382906000526020600020018054600181600116156101000203166002900480601f016020809104026020016040519081016040528092919081815260200182805460018160011615610100020316600290048015610a4a5780601f10610a1f57610100808354040283529160200191610a4a565b820191906000526020600020905b815481529060010190602001808311610a2d57829003601f168201915b5050505050815260200190600101906109a2565b50505050905090565b3360011515600160008373ffffffffffffffffffffffffffffffffffffffff1673ffffffffffffffffffffffffffffffffffffffff16815260200190815260200160002060009054906101000a900460ff16151514610afb576040517f08c379a0000000000000000000000000000000000000000000000000000000008152600401610af2906149d7565b60405180910390fd5b828260006002811115610b0a57fe5b600e60008473ffffffffffffffffffffffffffffffffffffffff1673ffffffffffffffffffffffffffffffffffffffff16815260200190815260200160002060010182604051610b5a9190614731565b908152602001604051809103902060040160009054906101000a900460ff166002811115610b8457fe5b14610bc4576040517f08c379a0000000000000000000000000000000000000000000000000000000008152600401610bbb90614977565b60405180910390fd5b848460001515600e60008473ffffffffffffffffffffffffffffffffffffffff1673ffffffffffffffffffffffffffffffffffffffff16815260200190815260200160002060010182604051610c1a9190614731565b908152602001604051809103902060060160003373ffffffffffffffffffffffffffffffffffffffff1673ffffffffffffffffffffffffffffffffffffffff16815260200190815260200160002060009054906101000a900460ff16151514610cb8576040517f08c379a0000000000000000000000000000000000000000000000000000000008152600401610caf90614b17565b60405180910390fd5b8686600e60008373ffffffffffffffffffffffffffffffffffffffff1673ffffffffffffffffffffffffffffffffffffffff16815260200190815260200160002060010181604051610d0a9190614731565b908152602001604051809103902060050154600660003373ffffffffffffffffffffffffffffffffffffffff1673ffffffffffffffffffffffffffffffffffffffff168152602001908152602001600020600401541015610d6a57600080fd5b6001600e60008b73ffffffffffffffffffffffffffffffffffffffff1673ffffffffffffffffffffffffffffffffffffffff16815260200190815260200160002060010189604051610dbc9190614731565b908152602001604051809103902060060160003373ffffffffffffffffffffffffffffffffffffffff1673ffffffffffffffffffffffffffffffffffffffff16815260200190815260200160002060006101000a81548160ff021916908315150217905550505050505050505050565b60106020528060005260406000206000915090505481565b6000600660008573ffffffffffffffffffffffffffffffffffffffff1673ffffffffffffffffffffffffffffffffffffffff16815260200190815260200160002060020183604051610e969190614731565b908152602001604051809103902060010160008373ffffffffffffffffffffffffffffffffffffffff1673ffffffffffffffffffffffffffffffffffffffff1681526020019081526020016000206000015490509392505050565b826005811015610f36576040517f08c379a0000000000000000000000000000000000000000000000000000000008152600401610f2d90614a77565b60405180910390fd5b3360011515600a60008373ffffffffffffffffffffffffffffffffffffffff1673ffffffffffffffffffffffffffffffffffffffff16815260200190815260200160002060009054906101000a900460ff16151514610fca576040517f08c379a0000000000000000000000000000000000000000000000000000000008152600401610fc1906148f7565b60405180910390fd5b86611c20811015611010576040517f08c379a000000000000000000000000000000000000000000000000000000000815260040161100790614a37565b60405180910390fd5b8460001515600e60003373ffffffffffffffffffffffffffffffffffffffff1673ffffffffffffffffffffffffffffffffffffffff168152602001908152602001600020600201826040516110659190614731565b908152602001604051809103902060009054906101000a900460ff161515146110c3576040517f08c379a00000000000000000000000000000000000000000000000000000000081526004016110ba90614a57565b60405180910390fd5b33600e60003373ffffffffffffffffffffffffffffffffffffffff1673ffffffffffffffffffffffffffffffffffffffff168152602001908152602001600020600101876040516111149190614731565b908152602001604051809103902060080160006101000a81548173ffffffffffffffffffffffffffffffffffffffff021916908373ffffffffffffffffffffffffffffffffffffffff16021790555034600e60003373ffffffffffffffffffffffffffffffffffffffff1673ffffffffffffffffffffffffffffffffffffffff168152602001908152602001600020600101876040516111b49190614731565b90815260200160405180910390206009018190555087600e60003373ffffffffffffffffffffffffffffffffffffffff1673ffffffffffffffffffffffffffffffffffffffff1681526020019081526020016000206001018760405161121a9190614731565b9081526020016040518091039020600301908051906020019061123e9291906138aa565b506000600e60003373ffffffffffffffffffffffffffffffffffffffff1673ffffffffffffffffffffffffffffffffffffffff168152602001908152602001600020600101876040516112919190614731565b908152602001604051809103902060040160006101000a81548160ff021916908360028111156112bd57fe5b021790555086600e60003373ffffffffffffffffffffffffffffffffffffffff1673ffffffffffffffffffffffffffffffffffffffff168152602001908152602001600020600101876040516113139190614731565b90815260200160405180910390206005018190555088600e60003373ffffffffffffffffffffffffffffffffffffffff1673ffffffffffffffffffffffffffffffffffffffff168152602001908152602001600020600101876040516113799190614731565b90815260200160405180910390206001018190555084600e60003373ffffffffffffffffffffffffffffffffffffffff1673ffffffffffffffffffffffffffffffffffffffff168152602001908152602001600020600101876040516113df9190614731565b9081526020016040518091039020600d01819055506000600e60003373ffffffffffffffffffffffffffffffffffffffff1673ffffffffffffffffffffffffffffffffffffffff168152602001908152602001600020600101876040516114469190614731565b9081526020016040518091039020600c0160003373ffffffffffffffffffffffffffffffffffffffff1673ffffffffffffffffffffffffffffffffffffffff168152602001908152602001600020819055506001600e60003373ffffffffffffffffffffffffffffffffffffffff1673ffffffffffffffffffffffffffffffffffffffff168152602001908152602001600020600201876040516114ea9190614731565b908152602001604051809103902060006101000a81548160ff021916908315150217905550600786908060018154018082558091505090600182039060005260206000200160009091929091909150908051906020019061154c9291906138aa565b5050611558868661342b565b600e60003373ffffffffffffffffffffffffffffffffffffffff1673ffffffffffffffffffffffffffffffffffffffff168152602001908152602001600020600001600f6000600d54815260200190815260200160002060000190805460018160011615610100020316600290046115d192919061392a565b5088600f6000600d548152602001908152602001600020600201819055506000600f6000600d54815260200190815260200160002060040160006101000a81548160ff0219169083600281111561162457fe5b021790555084600f6000600d54815260200190815260200160002060050181905550600d54601060003373ffffffffffffffffffffffffffffffffffffffff1673ffffffffffffffffffffffffffffffffffffffff168152602001908152602001600020819055506116a26001600d5461357d90919063ffffffff16565b600d81905550505050505050505050565b600560009054906101000a900473ffffffffffffffffffffffffffffffffffffffff1681565b6000600e60008473ffffffffffffffffffffffffffffffffffffffff1673ffffffffffffffffffffffffffffffffffffffff1681526020019081526020016000206002018260405161172b9190614731565b908152602001604051809103902060009054906101000a900460ff16905092915050565b3360011515600a60008373ffffffffffffffffffffffffffffffffffffffff1673ffffffffffffffffffffffffffffffffffffffff16815260200190815260200160002060009054906101000a900460ff161515146117e3576040517f08c379a00000000000000000000000000000000000000000000000000000000081526004016117da906148f7565b60405180910390fd5b338073ffffffffffffffffffffffffffffffffffffffff163373ffffffffffffffffffffffffffffffffffffffff161461181c57600080fd5b8360011515600e60003373ffffffffffffffffffffffffffffffffffffffff1673ffffffffffffffffffffffffffffffffffffffff168152602001908152602001600020600201826040516118719190614731565b908152602001604051809103902060009054906101000a900460ff161515146118cf576040517f08c379a00000000000000000000000000000000000000000000000000000000081526004016118c690614937565b60405180910390fd5b3385600060028111156118de57fe5b600e60008473ffffffffffffffffffffffffffffffffffffffff1673ffffffffffffffffffffffffffffffffffffffff1681526020019081526020016000206001018260405161192e9190614731565b908152602001604051809103902060040160009054906101000a900460ff16600281111561195857fe5b14611998576040517f08c379a000000000000000000000000000000000000000000000000000000000815260040161198f90614977565b60405180910390fd5b33878760011515600e60008573ffffffffffffffffffffffffffffffffffffffff1673ffffffffffffffffffffffffffffffffffffffff168152602001908152602001600020600101836040516119ef9190614731565b908152602001604051809103902060060160008373ffffffffffffffffffffffffffffffffffffffff1673ffffffffffffffffffffffffffffffffffffffff16815260200190815260200160002060009054906101000a900460ff16151514611a8d576040517f08c379a0000000000000000000000000000000000000000000000000000000008152600401611a84906149f7565b60405180910390fd5b88600e60003373ffffffffffffffffffffffffffffffffffffffff1673ffffffffffffffffffffffffffffffffffffffff1681526020019081526020016000206001018b604051611ade9190614731565b908152602001604051809103902060070160006101000a81548173ffffffffffffffffffffffffffffffffffffffff021916908373ffffffffffffffffffffffffffffffffffffffff1602179055506001600e60003373ffffffffffffffffffffffffffffffffffffffff1673ffffffffffffffffffffffffffffffffffffffff1681526020019081526020016000206001018b604051611b7f9190614731565b908152602001604051809103902060040160006101000a81548160ff02191690836002811115611bab57fe5b0217905550611c24600e60003373ffffffffffffffffffffffffffffffffffffffff1673ffffffffffffffffffffffffffffffffffffffff1681526020019081526020016000206001018b604051611c039190614731565b9081526020016040518091039020600101544261357d90919063ffffffff16565b600e60003373ffffffffffffffffffffffffffffffffffffffff1673ffffffffffffffffffffffffffffffffffffffff1681526020019081526020016000206001018b604051611c749190614731565b9081526020016040518091039020600201819055506001600f6000601060003373ffffffffffffffffffffffffffffffffffffffff1673ffffffffffffffffffffffffffffffffffffffff16815260200190815260200160002054815260200190815260200160002060040160006101000a81548160ff02191690836002811115611cfb57fe5b021790555050505050505050505050565b3360011515611d1a33611f2b565b151514611d5c576040517f08c379a0000000000000000000000000000000000000000000000000000000008152600401611d5390614ab7565b60405180910390fd5b8160011515600260008373ffffffffffffffffffffffffffffffffffffffff1673ffffffffffffffffffffffffffffffffffffffff16815260200190815260200160002060009054906101000a900460ff1615151514611df1576040517f08c379a0000000000000000000000000000000000000000000000000000000008152600401611de8906148b7565b60405180910390fd5b8260011515600160008373ffffffffffffffffffffffffffffffffffffffff1673ffffffffffffffffffffffffffffffffffffffff16815260200190815260200160002060009054906101000a900460ff16151514611e85576040517f08c379a0000000000000000000000000000000000000000000000000000000008152600401611e7c906149d7565b60405180910390fd5b6001600260008673ffffffffffffffffffffffffffffffffffffffff1673ffffffffffffffffffffffffffffffffffffffff16815260200190815260200160002060006101000a81548160ff0219169083151502179055506000600660008673ffffffffffffffffffffffffffffffffffffffff1673ffffffffffffffffffffffffffffffffffffffff1681526020019081526020016000206004018190555050505050565b600080600090505b600480549050811015611fc25760048181548110611f4d57fe5b9060005260206000200160009054906101000a900473ffffffffffffffffffffffffffffffffffffffff1673ffffffffffffffffffffffffffffffffffffffff168373ffffffffffffffffffffffffffffffffffffffff161415611fb5576001915050611fc8565b8080600101915050611f33565b50600090505b919050565b6120236001600660008473ffffffffffffffffffffffffffffffffffffffff1673ffffffffffffffffffffffffffffffffffffffff168152602001908152602001600020600501546135d290919063ffffffff16565b600660008373ffffffffffffffffffffffffffffffffffffffff1673ffffffffffffffffffffffffffffffffffffffff168152602001908152602001600020600401819055506120bf6005600660008473ffffffffffffffffffffffffffffffffffffffff1673ffffffffffffffffffffffffffffffffffffffff168152602001908152602001600020600601546135d290919063ffffffff16565b600660008373ffffffffffffffffffffffffffffffffffffffff1673ffffffffffffffffffffffffffffffffffffffff1681526020019081526020016000206006018190555061210e8161361c565b5050565b60016020528060005260406000206000915054906101000a900460ff1681565b8383338073ffffffffffffffffffffffffffffffffffffffff16600e60008573ffffffffffffffffffffffffffffffffffffffff1673ffffffffffffffffffffffffffffffffffffffff1681526020019081526020016000206001018360405161219c9190614731565b908152602001604051809103902060070160009054906101000a900473ffffffffffffffffffffffffffffffffffffffff1673ffffffffffffffffffffffffffffffffffffffff1614612224576040517f08c379a000000000000000000000000000000000000000000000000000000000815260040161221b90614af7565b60405180910390fd5b86866001600281111561223357fe5b600e60008473ffffffffffffffffffffffffffffffffffffffff1673ffffffffffffffffffffffffffffffffffffffff168152602001908152602001600020600101826040516122839190614731565b908152602001604051809103902060040160009054906101000a900460ff1660028111156122ad57fe5b146122ed576040517f08c379a00000000000000000000000000000000000000000000000000000000081526004016122e4906149b7565b60405180910390fd5b888842600e60008473ffffffffffffffffffffffffffffffffffffffff1673ffffffffffffffffffffffffffffffffffffffff168152602001908152602001600020600101826040516123409190614731565b90815260200160405180910390206002015411612392576040517f08c379a000000000000000000000000000000000000000000000000000000000815260040161238990614997565b60405180910390fd5b88600e60008d73ffffffffffffffffffffffffffffffffffffffff1673ffffffffffffffffffffffffffffffffffffffff1681526020019081526020016000206001018b6040516123e39190614731565b9081526020016040518091039020600a0190805190602001906124079291906138aa565b506001600e60008d73ffffffffffffffffffffffffffffffffffffffff1673ffffffffffffffffffffffffffffffffffffffff1681526020019081526020016000206001018b60405161245a9190614731565b9081526020016040518091039020600b0160006101000a81548160ff02191690831515021790555087600660003373ffffffffffffffffffffffffffffffffffffffff1673ffffffffffffffffffffffffffffffffffffffff1681526020019081526020016000206002018a6040516124d39190614731565b908152602001604051809103902060000190805190602001906124f79291906138aa565b505050505050505050505050565b8260011515600160008373ffffffffffffffffffffffffffffffffffffffff1673ffffffffffffffffffffffffffffffffffffffff16815260200190815260200160002060009054906101000a900460ff16151514612599576040517f08c379a0000000000000000000000000000000000000000000000000000000008152600401612590906149d7565b60405180910390fd5b81806005101580156125ac575060018110155b6125eb576040517f08c379a00000000000000000000000000000000000000000000000000000000081526004016125e290614957565b60405180910390fd5b600033905083600660008873ffffffffffffffffffffffffffffffffffffffff1673ffffffffffffffffffffffffffffffffffffffff168152602001908152602001600020600201866040516126419190614731565b908152602001604051809103902060010160008373ffffffffffffffffffffffffffffffffffffffff1673ffffffffffffffffffffffffffffffffffffffff16815260200190815260200160002060000181905550600660008773ffffffffffffffffffffffffffffffffffffffff1673ffffffffffffffffffffffffffffffffffffffff1681526020019081526020016000206007018490806001815401808255809150509060018203906000526020600020016000909192909190915055506127586001600660008973ffffffffffffffffffffffffffffffffffffffff1673ffffffffffffffffffffffffffffffffffffffff1681526020019081526020016000206006015461357d90919063ffffffff16565b600660008873ffffffffffffffffffffffffffffffffffffffff1673ffffffffffffffffffffffffffffffffffffffff168152602001908152602001600020600601819055506127a78661361c565b50505050505050565b8073ffffffffffffffffffffffffffffffffffffffff166108fc600e60008673ffffffffffffffffffffffffffffffffffffffff1673ffffffffffffffffffffffffffffffffffffffff1681526020019081526020016000206001018460405161281a9190614731565b9081526020016040518091039020600901549081150290604051600060405180830381858888f19350505050158015612857573d6000803e3d6000fd5b50505050565b600f602052806000526040600020600091509050806000018054600181600116156101000203166002900480601f0160208091040260200160405190810160405280929190818152602001828054600181600116156101000203166002900480156129095780601f106128de57610100808354040283529160200191612909565b820191906000526020600020905b8154815290600101906020018083116128ec57829003601f168201915b505050505090806001018054600181600116156101000203166002900480601f0160208091040260200160405190810160405280929190818152602001828054600181600116156101000203166002900480156129a75780601f1061297c576101008083540402835291602001916129a7565b820191906000526020600020905b81548152906001019060200180831161298a57829003601f168201915b505050505090806002015490806003018054600181600116156101000203166002900480601f016020809104026020016040519081016040528092919081815260200182805460018160011615610100020316600290048015612a4b5780601f10612a2057610100808354040283529160200191612a4b565b820191906000526020600020905b815481529060010190602001808311612a2e57829003601f168201915b5050505050908060040160009054906101000a900460ff16908060050154905086565b338360011515600e60008473ffffffffffffffffffffffffffffffffffffffff1673ffffffffffffffffffffffffffffffffffffffff16815260200190815260200160002060010182604051612ac49190614731565b9081526020016040518091039020600b0160009054906101000a900460ff16151514612b25576040517f08c379a0000000000000000000000000000000000000000000000000000000008152600401612b1c90614ad7565b60405180910390fd5b338560016002811115612b3457fe5b600e60008473ffffffffffffffffffffffffffffffffffffffff1673ffffffffffffffffffffffffffffffffffffffff16815260200190815260200160002060010182604051612b849190614731565b908152602001604051809103902060040160009054906101000a900460ff166002811115612bae57fe5b14612bee576040517f08c379a0000000000000000000000000000000000000000000000000000000008152600401612be5906149b7565b60405180910390fd5b6000600e60003373ffffffffffffffffffffffffffffffffffffffff1673ffffffffffffffffffffffffffffffffffffffff16815260200190815260200160002060010188604051612c409190614731565b908152602001604051809103902060070160009054906101000a900473ffffffffffffffffffffffffffffffffffffffff169050612cca6001600660008473ffffffffffffffffffffffffffffffffffffffff1673ffffffffffffffffffffffffffffffffffffffff1681526020019081526020016000206005015461357d90919063ffffffff16565b600660008373ffffffffffffffffffffffffffffffffffffffff1673ffffffffffffffffffffffffffffffffffffffff168152602001908152602001600020600401819055506002600e60003373ffffffffffffffffffffffffffffffffffffffff1673ffffffffffffffffffffffffffffffffffffffff16815260200190815260200160002060010189604051612d629190614731565b908152602001604051809103902060040160006101000a81548160ff02191690836002811115612d8e57fe5b0217905550612d9e818888612505565b612da93389836127b0565b6002600f6000601060003373ffffffffffffffffffffffffffffffffffffffff1673ffffffffffffffffffffffffffffffffffffffff16815260200190815260200160002054815260200190815260200160002060040160006101000a81548160ff02191690836002811115612e1b57fe5b02179055505050505050505050565b60098181548110612e3757fe5b906000526020600020016000915054906101000a900473ffffffffffffffffffffffffffffffffffffffff1681565b60001515600a60003373ffffffffffffffffffffffffffffffffffffffff1673ffffffffffffffffffffffffffffffffffffffff16815260200190815260200160002060009054906101000a900460ff16151514612ef9576040517f08c379a0000000000000000000000000000000000000000000000000000000008152600401612ef090614897565b60405180910390fd5b8060001515600b82604051612f0e9190614731565b908152602001604051809103902060009054906101000a900460ff16151514612f6c576040517f08c379a0000000000000000000000000000000000000000000000000000000008152600401612f6390614a97565b60405180910390fd5b81600e60003373ffffffffffffffffffffffffffffffffffffffff1673ffffffffffffffffffffffffffffffffffffffff1681526020019081526020016000206000019080519060200190612fc29291906138aa565b506001600b83604051612fd59190614731565b908152602001604051809103902060006101000a81548160ff0219169083151502179055506001600a60003373ffffffffffffffffffffffffffffffffffffffff1673ffffffffffffffffffffffffffffffffffffffff16815260200190815260200160002060006101000a81548160ff02191690831515021790555060083390806001815401808255809150509060018203906000526020600020016000909192909190916101000a81548173ffffffffffffffffffffffffffffffffffffffff021916908373ffffffffffffffffffffffffffffffffffffffff160217905550505050565b3360001515600160008373ffffffffffffffffffffffffffffffffffffffff1673ffffffffffffffffffffffffffffffffffffffff16815260200190815260200160002060009054906101000a900460ff16151514613150576040517f08c379a0000000000000000000000000000000000000000000000000000000008152600401613147906148d7565b60405180910390fd5b81600015156003826040516131659190614731565b908152602001604051809103902060009054906101000a900460ff161515146131c3576040517f08c379a00000000000000000000000000000000000000000000000000000000081526004016131ba90614a17565b60405180910390fd5b6005600660003373ffffffffffffffffffffffffffffffffffffffff1673ffffffffffffffffffffffffffffffffffffffff1681526020019081526020016000206004018190555082600660003373ffffffffffffffffffffffffffffffffffffffff1673ffffffffffffffffffffffffffffffffffffffff16815260200190815260200160002060000190805190602001906132619291906138aa565b506001600660003373ffffffffffffffffffffffffffffffffffffffff1673ffffffffffffffffffffffffffffffffffffffff16815260200190815260200160002060010160003373ffffffffffffffffffffffffffffffffffffffff1673ffffffffffffffffffffffffffffffffffffffff16815260200190815260200160002060006101000a81548160ff02191690831515021790555060018060003373ffffffffffffffffffffffffffffffffffffffff1673ffffffffffffffffffffffffffffffffffffffff16815260200190815260200160002060006101000a81548160ff0219169083151502179055506133a76001600660003373ffffffffffffffffffffffffffffffffffffffff1673ffffffffffffffffffffffffffffffffffffffff1681526020019081526020016000206006015461357d90919063ffffffff16565b600660003373ffffffffffffffffffffffffffffffffffffffff1673ffffffffffffffffffffffffffffffffffffffff168152602001908152602001600020600601819055506133f63361361c565b506001151560038460405161340b9190614731565b908152602001604051809103902060009054906101000a90505050505050565b6000600e60003373ffffffffffffffffffffffffffffffffffffffff1673ffffffffffffffffffffffffffffffffffffffff1681526020019081526020016000206001018360405161347d9190614731565b9081526020016040518091039020600c0160003373ffffffffffffffffffffffffffffffffffffffff1673ffffffffffffffffffffffffffffffffffffffff16815260200190815260200160002054146134d657600080fd5b80600e60003373ffffffffffffffffffffffffffffffffffffffff1673ffffffffffffffffffffffffffffffffffffffff168152602001908152602001600020600101836040516135279190614731565b9081526020016040518091039020600c0160003373ffffffffffffffffffffffffffffffffffffffff1673ffffffffffffffffffffffffffffffffffffffff168152602001908152602001600020819055505050565b6000808284019050838110156135c8576040517f08c379a00000000000000000000000000000000000000000000000000000000081526004016135bf90614917565b60405180910390fd5b8091505092915050565b600061361483836040518060400160405280601e81526020017f536166654d6174683a207375627472616374696f6e206f766572666c6f7700008152506137a4565b905092915050565b6000806000905060008090505b600660008573ffffffffffffffffffffffffffffffffffffffff1673ffffffffffffffffffffffffffffffffffffffff168152602001908152602001600020600701805490508110156136ef576136e0600660008673ffffffffffffffffffffffffffffffffffffffff1673ffffffffffffffffffffffffffffffffffffffff16815260200190815260200160002060070182815481106136c657fe5b90600052602060002001548361357d90919063ffffffff16565b91508080600101915050613629565b50613758600561374a600660008773ffffffffffffffffffffffffffffffffffffffff1673ffffffffffffffffffffffffffffffffffffffff16815260200190815260200160002060060154846137ff90919063ffffffff16565b61357d90919063ffffffff16565b600660008573ffffffffffffffffffffffffffffffffffffffff1673ffffffffffffffffffffffffffffffffffffffff1681526020019081526020016000206004018190555050919050565b60008383111582906137ec576040517f08c379a00000000000000000000000000000000000000000000000000000000081526004016137e391906147ff565b60405180910390fd5b5060008385039050809150509392505050565b600061384183836040518060400160405280601a81526020017f536166654d6174683a206469766973696f6e206279207a65726f000000000000815250613849565b905092915050565b60008083118290613890576040517f08c379a000000000000000000000000000000000000000000000000000000000815260040161388791906147ff565b60405180910390fd5b50600083858161389c57fe5b049050809150509392505050565b828054600181600116156101000203166002900490600052602060002090601f016020900481019282601f106138eb57805160ff1916838001178555613919565b82800160010185558215613919579182015b828111156139185782518255916020019190600101906138fd565b5b50905061392691906139b1565b5090565b828054600181600116156101000203166002900490600052602060002090601f016020900481019282601f1061396357805485556139a0565b828001600101855582156139a057600052602060002091601f016020900482015b8281111561399f578254825591600101919060010190613984565b5b5090506139ad91906139b1565b5090565b6139d391905b808211156139cf5760008160009055506001016139b7565b5090565b90565b6000813590506139e581614d3f565b92915050565b6000813590506139fa81614d56565b92915050565b600082601f830112613a1157600080fd5b8135613a24613a1f82614b7f565b614b52565b91508082526020830160208301858383011115613a4057600080fd5b613a4b838284614cdf565b50505092915050565b600081359050613a6381614d6d565b92915050565b600060208284031215613a7b57600080fd5b6000613a89848285016139d6565b91505092915050565b60008060408385031215613aa557600080fd5b6000613ab3858286016139d6565b925050602083013567ffffffffffffffff811115613ad057600080fd5b613adc85828601613a00565b9150509250929050565b600080600060608486031215613afb57600080fd5b6000613b09868287016139d6565b935050602084013567ffffffffffffffff811115613b2657600080fd5b613b3286828701613a00565b9250506040613b43868287016139d6565b9150509250925092565b600080600060608486031215613b6257600080fd5b6000613b70868287016139d6565b935050602084013567ffffffffffffffff811115613b8d57600080fd5b613b9986828701613a00565b9250506040613baa868287016139eb565b9150509250925092565b60008060008060808587031215613bca57600080fd5b6000613bd8878288016139d6565b945050602085013567ffffffffffffffff811115613bf557600080fd5b613c0187828801613a00565b935050604085013567ffffffffffffffff811115613c1e57600080fd5b613c2a87828801613a00565b925050606085013567ffffffffffffffff811115613c4757600080fd5b613c5387828801613a00565b91505092959194509250565b600080600060608486031215613c7457600080fd5b6000613c82868287016139d6565b935050602084013567ffffffffffffffff811115613c9f57600080fd5b613cab86828701613a00565b9250506040613cbc86828701613a54565b9150509250925092565b600060208284031215613cd857600080fd5b600082013567ffffffffffffffff811115613cf257600080fd5b613cfe84828501613a00565b91505092915050565b60008060408385031215613d1a57600080fd5b600083013567ffffffffffffffff811115613d3457600080fd5b613d4085828601613a00565b9250506020613d51858286016139eb565b9150509250929050565b600080600060608486031215613d7057600080fd5b600084013567ffffffffffffffff811115613d8a57600080fd5b613d9686828701613a00565b935050602084013567ffffffffffffffff811115613db357600080fd5b613dbf86828701613a00565b9250506040613dd086828701613a54565b9150509250925092565b60008060408385031215613ded57600080fd5b600083013567ffffffffffffffff811115613e0757600080fd5b613e1385828601613a00565b9250506020613e2485828601613a54565b9150509250929050565b600060208284031215613e4057600080fd5b6000613e4e84828501613a54565b91505092915050565b600080600080600060a08688031215613e6f57600080fd5b6000613e7d88828901613a54565b955050602086013567ffffffffffffffff811115613e9a57600080fd5b613ea688828901613a00565b9450506040613eb788828901613a54565b935050606086013567ffffffffffffffff811115613ed457600080fd5b613ee088828901613a00565b9250506080613ef188828901613a54565b9150509295509295909350565b6000613f0a8383613f39565b60208301905092915050565b6000613f2283836140b2565b905092915050565b613f3381614c72565b82525050565b613f4281614c60565b82525050565b613f5181614c60565b82525050565b6000613f6282614bcb565b613f6c8185614c11565b9350613f7783614bab565b8060005b83811015613fa8578151613f8f8882613efe565b9750613f9a83614bf7565b925050600181019050613f7b565b5085935050505092915050565b6000613fc082614bd6565b613fca8185614c22565b935083602082028501613fdc85614bbb565b8060005b858110156140185784840389528151613ff98582613f16565b945061400483614c04565b925060208a01995050600181019050613fe0565b50829750879550505050505092915050565b61403381614c84565b82525050565b61404281614ccd565b82525050565b600061405382614bec565b61405d8185614c44565b935061406d818560208601614cee565b61407681614d21565b840191505092915050565b600061408c82614bec565b6140968185614c55565b93506140a6818560208601614cee565b80840191505092915050565b60006140bd82614be1565b6140c78185614c33565b93506140d7818560208601614cee565b6140e081614d21565b840191505092915050565b60006140f682614be1565b6141008185614c44565b9350614110818560208601614cee565b61411981614d21565b840191505092915050565b6000614131602283614c44565b91507f596f757220636f6d70616e7920697320616c726561647920737562736372696260008301527f65640000000000000000000000000000000000000000000000000000000000006020830152604082019050919050565b6000614197601e83614c44565b91507f546869732061727469737420616464726573732069732062616e6e65642100006000830152602082019050919050565b60006141d7601183614c44565b91507f416c726561647920616e204172746973740000000000000000000000000000006000830152602082019050919050565b6000614217601e83614c44565b91507f5468697320636f6d70616e79206973206e6f74207375736372696265642100006000830152602082019050919050565b6000614257601b83614c44565b91507f536166654d6174683a206164646974696f6e206f766572666c6f7700000000006000830152602082019050919050565b6000614297601583614c44565b91507f44656d616e6420646f65736e27742065786973747300000000000000000000006000830152602082019050919050565b60006142d7601f83614c44565b91507f726174696e672073686f756c6420626520626574776565203120616e642035006000830152602082019050919050565b6000614317601683614c44565b91507f546869732070726f6a65637420697320636c6f736564000000000000000000006000830152602082019050919050565b6000614357600a83614c44565b91507f5374696c6c206f70656e000000000000000000000000000000000000000000006000830152602082019050919050565b6000614397601b83614c44565b91507f546869732070726f6a656374206973206e6f74204f6e476f696e6700000000006000830152602082019050919050565b60006143d7601b83614c44565b91507f4e6f74207265676973746572656420617320616e2041727469737400000000006000830152602082019050919050565b6000614417602d83614c44565b91507f546869732061727469737420686173206e6f74206170706c69656420746f207460008301527f6869732070726f6a6563742021000000000000000000000000000000000000006020830152604082019050919050565b600061447d601683614c44565b91507f4e616d6520697320616c726561647920696e20757365000000000000000000006000830152602082019050919050565b60006144bd603783614c44565b91507f796f7572206d696e756d2064656c617920697320746f6f206c6f772c2061742060008301527f6c656173742069742068617320746f20626520373230300000000000000000006020830152604082019050919050565b6000614523601583614c44565b91507f44656d616e6420616c72656164792065786973747300000000000000000000006000830152602082019050919050565b6000614563602c83614c44565b91507f796f7572206d696e756d2072657075746174696f6e20697320746f6f206c6f7760008301527f2c206174206c65617374203500000000000000000000000000000000000000006020830152604082019050919050565b60006145c9602783614c44565b91507f5468697320636f6d70616e79206e616d6520697320616c72656164792073757360008301527f63726962656421000000000000000000000000000000000000000000000000006020830152604082019050919050565b600061462f601583614c44565b91507f596f7520617265206e6f74207468652061646d696e00000000000000000000006000830152602082019050919050565b600061466f601983614c44565b91507f417274207069656365207761736e27742075706c6f61646564000000000000006000830152602082019050919050565b60006146af601f83614c44565b91507f74686973206973206e6f74207468652073656c656374656420617274697374006000830152602082019050919050565b60006146ef601c83614c44565b91507f546869732061727469737420686173206e6f74206170706c69656421000000006000830152602082019050919050565b61472b81614cc3565b82525050565b600061473d8284614081565b915081905092915050565b600060208201905061475d6000830184613f48565b92915050565b60006020820190506147786000830184613f2a565b92915050565b600060208201905081810360008301526147988184613f57565b905092915050565b600060208201905081810360008301526147ba8184613fb5565b905092915050565b60006020820190506147d7600083018461402a565b92915050565b600060208201905081810360008301526147f781846140eb565b905092915050565b600060208201905081810360008301526148198184614048565b905092915050565b600060c082019050818103600083015261483b81896140eb565b9050818103602083015261484f81886140eb565b905061485e6040830187614722565b818103606083015261487081866140eb565b905061487f6080830185614039565b61488c60a0830184614722565b979650505050505050565b600060208201905081810360008301526148b081614124565b9050919050565b600060208201905081810360008301526148d08161418a565b9050919050565b600060208201905081810360008301526148f0816141ca565b9050919050565b600060208201905081810360008301526149108161420a565b9050919050565b600060208201905081810360008301526149308161424a565b9050919050565b600060208201905081810360008301526149508161428a565b9050919050565b60006020820190508181036000830152614970816142ca565b9050919050565b600060208201905081810360008301526149908161430a565b9050919050565b600060208201905081810360008301526149b08161434a565b9050919050565b600060208201905081810360008301526149d08161438a565b9050919050565b600060208201905081810360008301526149f0816143ca565b9050919050565b60006020820190508181036000830152614a108161440a565b9050919050565b60006020820190508181036000830152614a3081614470565b9050919050565b60006020820190508181036000830152614a50816144b0565b9050919050565b60006020820190508181036000830152614a7081614516565b9050919050565b60006020820190508181036000830152614a9081614556565b9050919050565b60006020820190508181036000830152614ab0816145bc565b9050919050565b60006020820190508181036000830152614ad081614622565b9050919050565b60006020820190508181036000830152614af081614662565b9050919050565b60006020820190508181036000830152614b10816146a2565b9050919050565b60006020820190508181036000830152614b30816146e2565b9050919050565b6000602082019050614b4c6000830184614722565b92915050565b6000604051905081810181811067ffffffffffffffff82111715614b7557600080fd5b8060405250919050565b600067ffffffffffffffff821115614b9657600080fd5b601f19601f8301169050602081019050919050565b6000819050602082019050919050565b6000819050602082019050919050565b600081519050919050565b600081519050919050565b600081519050919050565b600081519050919050565b6000602082019050919050565b6000602082019050919050565b600082825260208201905092915050565b600082825260208201905092915050565b600082825260208201905092915050565b600082825260208201905092915050565b600081905092915050565b6000614c6b82614ca3565b9050919050565b6000614c7d82614ca3565b9050919050565b60008115159050919050565b6000819050614c9e82614d32565b919050565b600073ffffffffffffffffffffffffffffffffffffffff82169050919050565b6000819050919050565b6000614cd882614c90565b9050919050565b82818337600083830152505050565b60005b83811015614d0c578082015181840152602081019050614cf1565b83811115614d1b576000848401525b50505050565b6000601f19601f8301169050919050565b60038110614d3c57fe5b50565b614d4881614c60565b8114614d5357600080fd5b50565b614d5f81614c72565b8114614d6a57600080fd5b50565b614d7681614cc3565b8114614d8157600080fd5b5056fea365627a7a723158203320a8429aab742ff0a74a34dd1cd01d763168416b4c173e761f1a507c4fcaf16c6578706572696d656e74616cf564736f6c63430005100040",
  "source": "pragma solidity >=0.4.21 <0.7.0;\npragma experimental ABIEncoderV2;\nimport \"./Artist.sol\";\nimport \"./SafeMath.sol\";\n//https://web3js.readthedocs.io/en/v1.2.0/web3-eth-contract.html#methods-mymethod-estimategas \n\ncontract marketPlace is Rating{\n\n    //VARIABLES  \n\n    //string demandx;\n    string[] all_demands;\n    enum Status {Open, Ongoing, Closed}\n    address[] public companies_addresses;\n    address[] public applications;\n    mapping(address => bool) companies_existance;\n    mapping(string => bool) companies_name;\n    mapping(address => uint) c_balances;\n    uint keys = 0;\n    //STRUCTURES   \n\n    struct Dem{ \n        string company;\n        string demand;\n        uint delay;\n        string description;\n        Status status;\n        uint remuneration;\n    }\n\n    struct Demand{\n        uint remuneration;\n        uint delay;\n        uint deadline;\n        string description;\n        Status status;\n        uint minRep;\n        mapping(address => bool) candidates;\n        address payable chosen;\n        address addressCompany;\n        uint deposit;\n        string art_piece;\n        bool url_exist;\n        mapping(address => uint) balances;\n        uint value;\n    }\n\n    struct Companies{\n        string name;\n        mapping(string => Demand) demands;\n        mapping(string => bool) all_demands_company;\n    }\n\n    //MAPPINGS FOR STRUCTURE  \n\n    mapping(address => Companies)  public companies;\n    mapping(uint => Dem) public dems;\n    mapping(address => uint) public dem_key;\n\n\n    // MODIFIERS  \n\n    modifier checkReputation(address _company, string memory _demand_name){\n        require(artists[msg.sender].userReputation >= companies[_company].demands[_demand_name].minRep);\n        _;\n    }\n\n    modifier statusOpen(address _company, string memory _demand_name) {\n        require(companies[_company].demands[_demand_name].status == Status.Open, \"This project is closed\");\n        _;\n    }\n    \n    modifier statusOnGoing(address _company, string memory _demand_name) {\n        require(companies[_company].demands[_demand_name].status == Status.Ongoing, \"This project is not OnGoing\");\n        _;\n    }\n\n    modifier selectedArtist(address _company, string memory _demand_name, address _artist) {\n        require(companies[_company].demands[_demand_name].chosen == _artist, \"this is not the selected artist\");\n        _;\n    }\n\n    modifier ownerCompany(address _company) {\n        require(msg.sender == _company);\n        _;\n    }\n    \n    modifier checkDeadline(address _company, string memory _demand_name){\n        require(companies[_company].demands[_demand_name].deadline > now, \"Still open\");\n        _;\n    }\n    \n    modifier Applied(address _company, string memory _demand_name, address _artist){\n        require(companies[_company].demands[_demand_name].candidates[_artist] == true, \"This artist has not applied to this project !\");\n        _;\n    }\n    \n    modifier notApplied(address _company, string memory _demand_name){\n        require(companies[_company].demands[_demand_name].candidates[msg.sender] == false, \"This artist has not applied!\");\n        _;\n    }\n\n    modifier companyNotSuscribed(){\n        require(companies_existance[msg.sender] == false, \"Your company is already subscribed\");\n        _;\n    }\n\n    modifier companySuscribed(address _company){\n        require(companies_existance[_company] == true, \"This company is not suscribed!\");\n        _;\n    }\n\n    modifier companyName(string memory _company_name){\n        require(companies_name[_company_name] == false, \"This company name is already suscribed!\");\n        _;\n    }\n    \n    modifier minReputation(uint _minRep) {\n        require(_minRep >= 5, \"your minum reputation is too low, at least 5\");\n        _;\n    }\n    \n    modifier minDelay(uint _delay) {\n        require(_delay >= 7200, \"your minum delay is too low, at least it has to be 7200\");\n        _;\n    }\n    \n    modifier demandNotExist(string memory _demand_name) {\n        require(companies[msg.sender].all_demands_company[_demand_name] == false, \"Demand already exists\");\n        _;\n    }\n    \n    modifier demandExist(string memory _demand_name) {\n        require(companies[msg.sender].all_demands_company[_demand_name] == true, \"Demand doesn't exists\");\n        _;\n    }\n    \n    modifier urlExists(address _company, string memory _demand_name) {\n        require(companies[_company].demands[_demand_name].url_exist == true, \"Art piece wasn't uploaded\");\n        _;\n    }\n    \n    // FUNCTIONS  \n    \n    function newCompany(string memory _company_name) companyNotSuscribed companyName(_company_name) public {\n        companies[msg.sender].name = _company_name;\n        companies_name[_company_name] = true;\n        companies_existance[msg.sender] = true;\n        companies_addresses.push(msg.sender);\n    }\n\n    function getCompanies() public view returns(address[] memory){\n        return companies_addresses;\n    }\n    \n    function addDemands(uint _delay, string memory _description, uint _minRep, string memory _demand_name, uint _value) public payable\n        minReputation(_minRep) companySuscribed(msg.sender) minDelay(_delay) demandNotExist(_demand_name) {\n        //Demande memory demande;\n        companies[msg.sender].demands[_demand_name].addressCompany = msg.sender;\n        companies[msg.sender].demands[_demand_name].deposit = msg.value;\n        companies[msg.sender].demands[_demand_name].description = _description;\n        companies[msg.sender].demands[_demand_name].status = Status.Open;\n        companies[msg.sender].demands[_demand_name].minRep = _minRep;\n        companies[msg.sender].demands[_demand_name].delay = _delay;\n        companies[msg.sender].demands[_demand_name].value = _value;\n        companies[msg.sender].demands[_demand_name].balances[msg.sender] = 0;\n        companies[msg.sender].all_demands_company[_demand_name] = true;\n        //demandx = strConcat(\"Company :\", companies[msg.sender].name, \" | \", _demand_name, \" \");\n        all_demands.push(_demand_name);\n        addDeposit(_demand_name, _value);\n        dems[keys].company = companies[msg.sender].name;\n        dems[keys].delay = _delay;\n        dems[keys].status = Status.Open;\n        dems[keys].remuneration = _value;\n        dem_key[msg.sender] = keys;\n        keys = keys.add(1);\n    }\n\n    function getDemands() public view returns(string[] memory){\n        return all_demands;\n    }\n\n    function isDemandofCompany(address _company, string memory _demand) public view returns(bool){\n        return companies[_company].all_demands_company[_demand];\n    }\n    \n    function addDeposit(string memory _demand_name, uint _value) payable public {\n        require(companies[msg.sender].demands[_demand_name].balances[msg.sender] == 0);\n        companies[msg.sender].demands[_demand_name].balances[msg.sender] = _value;\n        //c_balances[msg.sender] = c_balances[msg.sender].add(msg.value);\n    }\n    \n    \n    function application(address _company, string memory _demand_name) public payable\n    isAnArtist(msg.sender) statusOpen(_company, _demand_name) notApplied(_company, _demand_name) checkReputation(_company, _demand_name) {\n        companies[_company].demands[_demand_name].candidates[msg.sender] = true;\n    }\n\n    function winningOffer(string memory _demand_name, address payable _artist) public\n    companySuscribed(msg.sender) ownerCompany(msg.sender) demandExist(_demand_name) \n    statusOpen(msg.sender, _demand_name) Applied(msg.sender, _demand_name, _artist)  {\n        companies[msg.sender].demands[_demand_name].chosen = _artist;\n        companies[msg.sender].demands[_demand_name].status = Status.Ongoing;\n        companies[msg.sender].demands[_demand_name].deadline = now.add(companies[msg.sender].demands[_demand_name].delay);\n        dems[dem_key[msg.sender]].status = Status.Ongoing;\n    }\n    \n    function delivery(address _company, string memory _demand_name, string memory _art_piece, string memory _url) public \n    selectedArtist(_company, _demand_name, msg.sender) statusOnGoing(_company, _demand_name) \n    checkDeadline(_company, _demand_name) /*nameArtPiece(_artist, _art_piece) */{\n        companies[_company].demands[_demand_name].art_piece = _art_piece;\n        companies[_company].demands[_demand_name].url_exist = true;\n        artists[msg.sender].art_pieces[_art_piece].art_piece_url = _url;\n    }\n    \n    \n    function artistRating(string memory _demand_name, string memory _art_piece, uint _rating) public\n    urlExists(msg.sender, _demand_name) statusOnGoing(msg.sender, _demand_name){\n        address payable _artist = companies[msg.sender].demands[_demand_name].chosen;\n        artists[_artist].userReputation = artists[_artist].userFnishedWorks.add(1);\n        companies[msg.sender].demands[_demand_name].status = Status.Closed; \n        setReview(_artist, _art_piece, _rating);\n        artistPayment(msg.sender, _demand_name, _artist);\n        dems[dem_key[msg.sender]].status = Status.Closed;\n\n    }\n    \n    function artistPayment(address _company, string memory _demand_name, address payable _artist) public payable {\n        //msg.sender.transfer(companies[_company].demands[_demand_name].remuneration);\n        _artist.transfer(companies[_company].demands[_demand_name].deposit);\n        //companies[msg.sender].demands[_demand_name].balances[msg.sender] = 0;\n    }\n    \n    \n    function delay(address _artist) public{\n        artists[_artist].userReputation = artists[_artist].userFnishedWorks.sub(1);\n        artists[_artist].numberRatings = artists[_artist].numberRatings.sub(5);\n        updateReputation(_artist);\n    }\n\n    function getKeys() public view returns (uint) {\n        return keys;\n    }\n    \n    /*function strConcat(string memory _a, string memory _b, string memory _c, string memory _d, string memory _e) internal returns (string memory){\n        bytes memory _ba = bytes(_a);\n        bytes memory _bb = bytes(_b);\n        bytes memory _bc = bytes(_c);\n        bytes memory _bd = bytes(_d);\n        bytes memory _be = bytes(_e);\n        string memory abcde = new string(_ba.length + _bb.length + _bc.length + _bd.length + _be.length);\n        bytes memory babcde = bytes(abcde);\n        uint k = 0;\n        for (uint i = 0; i < _ba.length; i++) babcde[k++] = _ba[i];\n        for (uint i = 0; i < _bb.length; i++) babcde[k++] = _bb[i];\n        for (uint i = 0; i < _bc.length; i++) babcde[k++] = _bc[i];\n        for (uint i = 0; i < _bd.length; i++) babcde[k++] = _bd[i];\n        for (uint i = 0; i < _be.length; i++) babcde[k++] = _be[i];\n        return string(babcde);\n    }*/\n\n}\n\n",
  "sourcePath": "/home/pupulvuh/code/gonzaloetjo/depot/Defi 2/contracts/marketPlace.sol",
  "compiler": {
    "name": "solc",
    "version": "0.5.16+commit.9c3226ce.Emscripten.clang"
  },
  "schemaVersion": "3.1.0",
  "updatedAt": "2020-05-20T07:08:16.815Z",
  "networkType": "ethereum",
  "devdoc": {
    "methods": {}
  },
  "userdoc": {
    "methods": {}
  }
}