{
  "contractName": "Rating",
  "abi": [
    {
      "inputs": [],
      "payable": true,
      "stateMutability": "payable",
      "type": "constructor"
    },
    {
      "constant": true,
      "inputs": [
        {
          "internalType": "address",
          "name": "",
          "type": "address"
        }
      ],
      "name": "allArtist",
      "outputs": [
        {
          "internalType": "bool",
          "name": "",
          "type": "bool"
        }
      ],
      "payable": false,
      "stateMutability": "view",
      "type": "function"
    },
    {
      "constant": true,
      "inputs": [
        {
          "internalType": "address",
          "name": "",
          "type": "address"
        }
      ],
      "name": "blackList",
      "outputs": [
        {
          "internalType": "bool",
          "name": "",
          "type": "bool"
        }
      ],
      "payable": false,
      "stateMutability": "view",
      "type": "function"
    },
    {
      "constant": true,
      "inputs": [],
      "name": "owner",
      "outputs": [
        {
          "internalType": "address",
          "name": "",
          "type": "address"
        }
      ],
      "payable": false,
      "stateMutability": "view",
      "type": "function"
    },
    {
      "constant": true,
      "inputs": [],
      "name": "wallet",
      "outputs": [
        {
          "internalType": "address payable",
          "name": "",
          "type": "address"
        }
      ],
      "payable": false,
      "stateMutability": "view",
      "type": "function"
    },
    {
      "constant": false,
      "inputs": [
        {
          "internalType": "string",
          "name": "_name",
          "type": "string"
        }
      ],
      "name": "register",
      "outputs": [],
      "payable": false,
      "stateMutability": "nonpayable",
      "type": "function"
    },
    {
      "constant": true,
      "inputs": [
        {
          "internalType": "address",
          "name": "_artist",
          "type": "address"
        },
        {
          "internalType": "string",
          "name": "_art_piece",
          "type": "string"
        },
        {
          "internalType": "address",
          "name": "_rater",
          "type": "address"
        }
      ],
      "name": "existReview",
      "outputs": [
        {
          "internalType": "uint256",
          "name": "",
          "type": "uint256"
        }
      ],
      "payable": false,
      "stateMutability": "view",
      "type": "function"
    },
    {
      "constant": false,
      "inputs": [
        {
          "internalType": "address",
          "name": "_artist",
          "type": "address"
        },
        {
          "internalType": "string",
          "name": "_art_piece",
          "type": "string"
        },
        {
          "internalType": "uint256",
          "name": "_rating",
          "type": "uint256"
        }
      ],
      "name": "setReview",
      "outputs": [],
      "payable": false,
      "stateMutability": "nonpayable",
      "type": "function"
    },
    {
      "constant": true,
      "inputs": [
        {
          "internalType": "address",
          "name": "_artist",
          "type": "address"
        },
        {
          "internalType": "string",
          "name": "_art_piece",
          "type": "string"
        },
        {
          "internalType": "address",
          "name": "_reviewer",
          "type": "address"
        }
      ],
      "name": "getRating",
      "outputs": [
        {
          "internalType": "uint256",
          "name": "",
          "type": "uint256"
        }
      ],
      "payable": false,
      "stateMutability": "view",
      "type": "function"
    },
    {
      "constant": false,
      "inputs": [
        {
          "internalType": "address",
          "name": "_artist",
          "type": "address"
        }
      ],
      "name": "ban",
      "outputs": [],
      "payable": false,
      "stateMutability": "nonpayable",
      "type": "function"
    },
    {
      "constant": true,
      "inputs": [
        {
          "internalType": "address",
          "name": "_address",
          "type": "address"
        }
      ],
      "name": "adminExists",
      "outputs": [
        {
          "internalType": "bool",
          "name": "",
          "type": "bool"
        }
      ],
      "payable": false,
      "stateMutability": "view",
      "type": "function"
    }
  ],
  "bytecode": "0x608060405233600560006101000a81548173ffffffffffffffffffffffffffffffffffffffff021916908373ffffffffffffffffffffffffffffffffffffffff160217905550336000806101000a81548173ffffffffffffffffffffffffffffffffffffffff021916908373ffffffffffffffffffffffffffffffffffffffff16021790555061009361009860201b60201c565b610100565b60043390806001815401808255809150509060018203906000526020600020016000909192909190916101000a81548173ffffffffffffffffffffffffffffffffffffffff021916908373ffffffffffffffffffffffffffffffffffffffff16021790555050565b6117f68061010f6000396000f3fe608060405234801561001057600080fd5b506004361061009e5760003560e01c806397c3ccd81161006657806397c3ccd8146103b15780639be2d095146103f5578063a90fbd8314610451578063b25bf8bc146104ad578063f2c298be146105925761009e565b80634076419e146100a35780634838d165146101b2578063521eb2731461020e5780638294b689146102585780638da5cb5b14610367575b600080fd5b61019c600480360360608110156100b957600080fd5b81019080803573ffffffffffffffffffffffffffffffffffffffff169060200190929190803590602001906401000000008111156100f657600080fd5b82018360208201111561010857600080fd5b8035906020019184600183028401116401000000008311171561012a57600080fd5b91908080601f016020809104026020016040519081016040528093929190818152602001838380828437600081840152601f19601f820116905080830192505050505050509192919290803573ffffffffffffffffffffffffffffffffffffffff16906020019092919050505061064d565b6040518082815260200191505060405180910390f35b6101f4600480360360208110156101c857600080fd5b81019080803573ffffffffffffffffffffffffffffffffffffffff169060200190929190505050610758565b604051808215151515815260200191505060405180910390f35b610216610778565b604051808273ffffffffffffffffffffffffffffffffffffffff1673ffffffffffffffffffffffffffffffffffffffff16815260200191505060405180910390f35b6103516004803603606081101561026e57600080fd5b81019080803573ffffffffffffffffffffffffffffffffffffffff169060200190929190803590602001906401000000008111156102ab57600080fd5b8201836020820111156102bd57600080fd5b803590602001918460018302840111640100000000831117156102df57600080fd5b91908080601f016020809104026020016040519081016040528093929190818152602001838380828437600081840152601f19601f820116905080830192505050505050509192919290803573ffffffffffffffffffffffffffffffffffffffff16906020019092919050505061079d565b6040518082815260200191505060405180910390f35b61036f610895565b604051808273ffffffffffffffffffffffffffffffffffffffff1673ffffffffffffffffffffffffffffffffffffffff16815260200191505060405180910390f35b6103f3600480360360208110156103c757600080fd5b81019080803573ffffffffffffffffffffffffffffffffffffffff1690602001909291905050506108bb565b005b6104376004803603602081101561040b57600080fd5b81019080803573ffffffffffffffffffffffffffffffffffffffff169060200190929190505050610b73565b604051808215151515815260200191505060405180910390f35b6104936004803603602081101561046757600080fd5b81019080803573ffffffffffffffffffffffffffffffffffffffff169060200190929190505050610c15565b604051808215151515815260200191505060405180910390f35b610590600480360360608110156104c357600080fd5b81019080803573ffffffffffffffffffffffffffffffffffffffff1690602001909291908035906020019064010000000081111561050057600080fd5b82018360208201111561051257600080fd5b8035906020019184600183028401116401000000008311171561053457600080fd5b91908080601f016020809104026020016040519081016040528093929190818152602001838380828437600081840152601f19601f82011690508083019250505050505050919291929080359060200190929190505050610c35565b005b61064b600480360360208110156105a857600080fd5b81019080803590602001906401000000008111156105c557600080fd5b8201836020820111156105d757600080fd5b803590602001918460018302840111640100000000831117156105f957600080fd5b91908080601f016020809104026020016040519081016040528093929190818152602001838380828437600081840152601f19601f820116905080830192505050505050509192919290505050610f91565b005b600080600660008673ffffffffffffffffffffffffffffffffffffffff1673ffffffffffffffffffffffffffffffffffffffff168152602001908152602001600020600201846040518082805190602001908083835b602083106106c657805182526020820191506020810190506020830392506106a3565b6001836020036101000a038019825116818451168082178552505050505050905001915050908152602001604051809103902060010160008473ffffffffffffffffffffffffffffffffffffffff1673ffffffffffffffffffffffffffffffffffffffff16815260200190815260200160002060000154141561074c5760009050610751565b600190505b9392505050565b60026020528060005260406000206000915054906101000a900460ff1681565b6000809054906101000a900473ffffffffffffffffffffffffffffffffffffffff1681565b6000600660008573ffffffffffffffffffffffffffffffffffffffff1673ffffffffffffffffffffffffffffffffffffffff168152602001908152602001600020600201836040518082805190602001908083835b6020831061081557805182526020820191506020810190506020830392506107f2565b6001836020036101000a038019825116818451168082178552505050505050905001915050908152602001604051809103902060010160008373ffffffffffffffffffffffffffffffffffffffff1673ffffffffffffffffffffffffffffffffffffffff1681526020019081526020016000206000015490509392505050565b600560009054906101000a900473ffffffffffffffffffffffffffffffffffffffff1681565b33600115156108c933610b73565b15151461093e576040517f08c379a00000000000000000000000000000000000000000000000000000000081526004018080602001828103825260158152602001807f596f7520617265206e6f74207468652061646d696e000000000000000000000081525060200191505060405180910390fd5b8160011515600260008373ffffffffffffffffffffffffffffffffffffffff1673ffffffffffffffffffffffffffffffffffffffff16815260200190815260200160002060009054906101000a900460ff1615151514610a06576040517f08c379a000000000000000000000000000000000000000000000000000000000815260040180806020018281038252601e8152602001807f546869732061727469737420616464726573732069732062616e6e656421000081525060200191505060405180910390fd5b8260011515600160008373ffffffffffffffffffffffffffffffffffffffff1673ffffffffffffffffffffffffffffffffffffffff16815260200190815260200160002060009054906101000a900460ff16151514610acd576040517f08c379a000000000000000000000000000000000000000000000000000000000815260040180806020018281038252601b8152602001807f4e6f74207265676973746572656420617320616e20417274697374000000000081525060200191505060405180910390fd5b6001600260008673ffffffffffffffffffffffffffffffffffffffff1673ffffffffffffffffffffffffffffffffffffffff16815260200190815260200160002060006101000a81548160ff0219169083151502179055506000600660008673ffffffffffffffffffffffffffffffffffffffff1673ffffffffffffffffffffffffffffffffffffffff1681526020019081526020016000206004018190555050505050565b600080600090505b600480549050811015610c0a5760048181548110610b9557fe5b9060005260206000200160009054906101000a900473ffffffffffffffffffffffffffffffffffffffff1673ffffffffffffffffffffffffffffffffffffffff168373ffffffffffffffffffffffffffffffffffffffff161415610bfd576001915050610c10565b8080600101915050610b7b565b50600090505b919050565b60016020528060005260406000206000915054906101000a900460ff1681565b8260011515600160008373ffffffffffffffffffffffffffffffffffffffff1673ffffffffffffffffffffffffffffffffffffffff16815260200190815260200160002060009054906101000a900460ff16151514610cfc576040517f08c379a000000000000000000000000000000000000000000000000000000000815260040180806020018281038252601b8152602001807f4e6f74207265676973746572656420617320616e20417274697374000000000081525060200191505060405180910390fd5b8180600510158015610d0f575060018110155b610d81576040517f08c379a000000000000000000000000000000000000000000000000000000000815260040180806020018281038252601f8152602001807f726174696e672073686f756c6420626520626574776565203120616e6420350081525060200191505060405180910390fd5b600033905083600660008873ffffffffffffffffffffffffffffffffffffffff1673ffffffffffffffffffffffffffffffffffffffff168152602001908152602001600020600201866040518082805190602001908083835b60208310610dfd5780518252602082019150602081019050602083039250610dda565b6001836020036101000a038019825116818451168082178552505050505050905001915050908152602001604051809103902060010160008373ffffffffffffffffffffffffffffffffffffffff1673ffffffffffffffffffffffffffffffffffffffff16815260200190815260200160002060000181905550600660008773ffffffffffffffffffffffffffffffffffffffff1673ffffffffffffffffffffffffffffffffffffffff168152602001908152602001600020600701849080600181540180825580915050906001820390600052602060002001600090919290919091505550610f396001600660008973ffffffffffffffffffffffffffffffffffffffff1673ffffffffffffffffffffffffffffffffffffffff168152602001908152602001600020600601546113fc90919063ffffffff16565b600660008873ffffffffffffffffffffffffffffffffffffffff1673ffffffffffffffffffffffffffffffffffffffff16815260200190815260200160002060060181905550610f8886611484565b50505050505050565b3360001515600160008373ffffffffffffffffffffffffffffffffffffffff1673ffffffffffffffffffffffffffffffffffffffff16815260200190815260200160002060009054906101000a900460ff16151514611058576040517f08c379a00000000000000000000000000000000000000000000000000000000081526004018080602001828103825260118152602001807f416c726561647920616e2041727469737400000000000000000000000000000081525060200191505060405180910390fd5b81600015156003826040518082805190602001908083835b602083106110935780518252602082019150602081019050602083039250611070565b6001836020036101000a038019825116818451168082178552505050505050905001915050908152602001604051809103902060009054906101000a900460ff16151514611149576040517f08c379a00000000000000000000000000000000000000000000000000000000081526004018080602001828103825260168152602001807f4e616d6520697320616c726561647920696e207573650000000000000000000081525060200191505060405180910390fd5b6005600660003373ffffffffffffffffffffffffffffffffffffffff1673ffffffffffffffffffffffffffffffffffffffff1681526020019081526020016000206004018190555082600660003373ffffffffffffffffffffffffffffffffffffffff1673ffffffffffffffffffffffffffffffffffffffff16815260200190815260200160002060000190805190602001906111e792919061171c565b506001600660003373ffffffffffffffffffffffffffffffffffffffff1673ffffffffffffffffffffffffffffffffffffffff16815260200190815260200160002060010160003373ffffffffffffffffffffffffffffffffffffffff1673ffffffffffffffffffffffffffffffffffffffff16815260200190815260200160002060006101000a81548160ff02191690831515021790555060018060003373ffffffffffffffffffffffffffffffffffffffff1673ffffffffffffffffffffffffffffffffffffffff16815260200190815260200160002060006101000a81548160ff02191690831515021790555061132d6001600660003373ffffffffffffffffffffffffffffffffffffffff1673ffffffffffffffffffffffffffffffffffffffff168152602001908152602001600020600601546113fc90919063ffffffff16565b600660003373ffffffffffffffffffffffffffffffffffffffff1673ffffffffffffffffffffffffffffffffffffffff1681526020019081526020016000206006018190555061137c33611484565b50600115156003846040518082805190602001908083835b602083106113b75780518252602082019150602081019050602083039250611394565b6001836020036101000a038019825116818451168082178552505050505050905001915050908152602001604051809103902060009054906101000a90505050505050565b60008082840190508381101561147a576040517f08c379a000000000000000000000000000000000000000000000000000000000815260040180806020018281038252601b8152602001807f536166654d6174683a206164646974696f6e206f766572666c6f77000000000081525060200191505060405180910390fd5b8091505092915050565b6000806000905060008090505b600660008573ffffffffffffffffffffffffffffffffffffffff1673ffffffffffffffffffffffffffffffffffffffff1681526020019081526020016000206007018054905081101561155757611548600660008673ffffffffffffffffffffffffffffffffffffffff1673ffffffffffffffffffffffffffffffffffffffff168152602001908152602001600020600701828154811061152e57fe5b9060005260206000200154836113fc90919063ffffffff16565b91508080600101915050611491565b506115c060056115b2600660008773ffffffffffffffffffffffffffffffffffffffff1673ffffffffffffffffffffffffffffffffffffffff168152602001908152602001600020600601548461160c90919063ffffffff16565b6113fc90919063ffffffff16565b600660008573ffffffffffffffffffffffffffffffffffffffff1673ffffffffffffffffffffffffffffffffffffffff1681526020019081526020016000206004018190555050919050565b600061164e83836040518060400160405280601a81526020017f536166654d6174683a206469766973696f6e206279207a65726f000000000000815250611656565b905092915050565b60008083118290611702576040517f08c379a00000000000000000000000000000000000000000000000000000000081526004018080602001828103825283818151815260200191508051906020019080838360005b838110156116c75780820151818401526020810190506116ac565b50505050905090810190601f1680156116f45780820380516001836020036101000a031916815260200191505b509250505060405180910390fd5b50600083858161170e57fe5b049050809150509392505050565b828054600181600116156101000203166002900490600052602060002090601f016020900481019282601f1061175d57805160ff191683800117855561178b565b8280016001018555821561178b579182015b8281111561178a57825182559160200191906001019061176f565b5b509050611798919061179c565b5090565b6117be91905b808211156117ba5760008160009055506001016117a2565b5090565b9056fea265627a7a723158202fd1d375c53af91abad6e07928f10eb963d4bdb07ebc56f86cf6224d0b2bc3f564736f6c63430005100032",
  "source": "pragma solidity >=0.4.21 <0.7.0;\nimport \"./SafeMath.sol\";\n\ncontract Rating {\n    using SafeMath for uint256;\n\n    //VARIABLES\n    address payable public wallet;\n    mapping (address => bool) public allArtist;\n    mapping (address => bool) public blackList;\n    mapping(string => bool) artist_name;\n    address[] private admins;\n    address public owner;\n    \n\n    //STRUCTURES  \n\n    struct Ratings{\n        uint data_rating;\n        mapping (address => bool) rater;\n    }\n\n    struct Art_piece {\n        string art_piece_url;\n        //int data_rating;\n        mapping(address => Ratings) ratings;\n    }\n    struct Artist {\n        string name;\n        mapping(address => bool) artist_present;\n        mapping(string => Art_piece) art_pieces;\n        mapping(string => bool) art_piece_names;\n        uint userReputation;\n        uint userFnishedWorks;\n        uint numberRatings;\n        uint[] allRatings;\n    }\n    mapping(address => Artist) artists;\n    \n    constructor() public payable{\n        owner = msg.sender;\n        wallet = msg.sender;\n        registerAdmin();\n    }\n\n    //MODIFIERS\n\n        \n    modifier notBanned(address _artist){\n        require(!blackList[_artist] == true, \"This artist address is banned!\");\n        _;\n    }\n    \n    \n    modifier onlyAdmin(address _address){\n        require(adminExists(msg.sender) == true, \"You are not the admin\");\n        _;\n    }\n    \n    modifier isAnArtist(address _artist) {\n        require(allArtist[_artist] == true, \"Not registered as an Artist\");\n        _;\n    }\n    \n    modifier NotAnArtist(address _artist) {\n        require(allArtist[_artist] == false, \"Already an Artist\");\n        _;\n    }\n    \n    modifier nameArtist(string memory _name) {\n        require(artist_name[_name] == false, \"Name is already in use\");\n        _;\n    }\n    \n    modifier nameArtPiece(address _artist, string memory _art_piece) {\n        require(artists[_artist].art_piece_names[_art_piece] == false, \"Name is already in use\");\n        _;\n    }\n    \n    modifier limitRatings(uint _rating) {\n        require(5 >= _rating && _rating >= 1, \"rating should be betwee 1 and 5\");\n        _;\n    }\n\n    //FUNCTIONS\n    \n    function register(string memory _name) public NotAnArtist(msg.sender) nameArtist (_name) {\n        artists[msg.sender].userReputation = 5;\n        artists[msg.sender].name = _name;\n        artists[msg.sender].artist_present[msg.sender] = true;\n        allArtist[msg.sender] = true;\n        artists[msg.sender].numberRatings = artists[msg.sender].numberRatings.add(1);\n        updateReputation(msg.sender);\n        artist_name[_name] == true;\n    }\n    \n    function existReview(address _artist, string memory _art_piece, address _rater) public view returns(uint){\n        if(artists[_artist].art_pieces[_art_piece].ratings[_rater].data_rating==0) return 0;\n        else return 1;\n    }\n    \n    function setReview(address _artist, string memory _art_piece, uint _rating) isAnArtist(_artist) limitRatings(_rating) public  {\n        address reviewer = msg.sender;\n        //artists[reviewer].art_pieces[_artist].data_content = _contents;\n        artists[_artist].art_pieces[_art_piece].ratings[reviewer].data_rating = _rating;\n        artists[_artist].allRatings.push(_rating);\n        artists[_artist].numberRatings = artists[_artist].numberRatings.add(1);\n        updateReputation(_artist);\n\n    }\n    //function getReview(address _reviewer, address _artist, string memory _art_piece) public view returns (string memory) {\n    //    return (artists[_reviewer].art_pieces[_artist].piece_reviews[_art_piece].data_content);\n    //}\n    function getRating(address _artist, string memory _art_piece, address _reviewer) public view returns (uint) {\n        return (artists[_artist].art_pieces[_art_piece].ratings[_reviewer].data_rating);\n    }\n    \n    function ban(address _artist) onlyAdmin(msg.sender) notBanned(_artist) isAnArtist(_artist) public {\n        blackList[_artist] = true;\n        artists[_artist].userReputation = 0;\n    }\n    \n    function updateReputation(address _artist) internal  returns (uint){\n        uint sumRatings = 0;\n        for (uint i = 0; i <artists[_artist].allRatings.length; i++) sumRatings = sumRatings.add(artists[_artist].allRatings[i]);\n        artists[_artist].userReputation = (sumRatings.div(artists[_artist].numberRatings)).add(5);\n    }\n    \n    function registerAdmin() private {\n        admins.push(msg.sender);\n    }\n    \n    function adminExists(address _address) public view returns (bool) {\n        for (uint i = 0; i < admins.length; i++) {\n            if (_address == admins[i]) { return true;\n            }\n        }\n        return false;\n    }\n}",
  "sourcePath": "/home/pupulvuh/code/gonzaloetjo/depot/Defi 2/contracts/Artist.sol",
  "compiler": {
    "name": "solc",
    "version": "0.5.16+commit.9c3226ce.Emscripten.clang"
  },
  "schemaVersion": "3.1.0",
  "updatedAt": "2020-05-20T07:08:14.496Z",
  "devdoc": {
    "methods": {}
  },
  "userdoc": {
    "methods": {}
  }
}