{
  "contractName": "Rating",
  "abi": [
    {
      "inputs": [],
      "payable": true,
      "stateMutability": "payable",
      "type": "constructor"
    },
    {
      "constant": true,
      "inputs": [
        {
          "internalType": "address",
          "name": "",
          "type": "address"
        }
      ],
      "name": "allArtist",
      "outputs": [
        {
          "internalType": "bool",
          "name": "",
          "type": "bool"
        }
      ],
      "payable": false,
      "stateMutability": "view",
      "type": "function"
    },
    {
      "constant": true,
      "inputs": [
        {
          "internalType": "address",
          "name": "",
          "type": "address"
        }
      ],
      "name": "artists",
      "outputs": [
        {
          "internalType": "string",
          "name": "name",
          "type": "string"
        },
        {
          "internalType": "uint256",
          "name": "userReputation",
          "type": "uint256"
        },
        {
          "internalType": "uint256",
          "name": "userFnishedWorks",
          "type": "uint256"
        },
        {
          "internalType": "uint256",
          "name": "numberRatings",
          "type": "uint256"
        }
      ],
      "payable": false,
      "stateMutability": "view",
      "type": "function"
    },
    {
      "constant": true,
      "inputs": [
        {
          "internalType": "address",
          "name": "",
          "type": "address"
        }
      ],
      "name": "blackList",
      "outputs": [
        {
          "internalType": "bool",
          "name": "",
          "type": "bool"
        }
      ],
      "payable": false,
      "stateMutability": "view",
      "type": "function"
    },
    {
      "constant": true,
      "inputs": [],
      "name": "owner",
      "outputs": [
        {
          "internalType": "address",
          "name": "",
          "type": "address"
        }
      ],
      "payable": false,
      "stateMutability": "view",
      "type": "function"
    },
    {
      "constant": true,
      "inputs": [],
      "name": "wallet",
      "outputs": [
        {
          "internalType": "address payable",
          "name": "",
          "type": "address"
        }
      ],
      "payable": false,
      "stateMutability": "view",
      "type": "function"
    },
    {
      "constant": false,
      "inputs": [
        {
          "internalType": "string",
          "name": "_name",
          "type": "string"
        }
      ],
      "name": "register",
      "outputs": [],
      "payable": false,
      "stateMutability": "nonpayable",
      "type": "function"
    },
    {
      "constant": true,
      "inputs": [
        {
          "internalType": "address",
          "name": "_artist",
          "type": "address"
        },
        {
          "internalType": "string",
          "name": "_art_piece",
          "type": "string"
        },
        {
          "internalType": "address",
          "name": "_rater",
          "type": "address"
        }
      ],
      "name": "existReview",
      "outputs": [
        {
          "internalType": "uint256",
          "name": "",
          "type": "uint256"
        }
      ],
      "payable": false,
      "stateMutability": "view",
      "type": "function"
    },
    {
      "constant": false,
      "inputs": [
        {
          "internalType": "address",
          "name": "_artist",
          "type": "address"
        },
        {
          "internalType": "string",
          "name": "_art_piece",
          "type": "string"
        },
        {
          "internalType": "uint256",
          "name": "_rating",
          "type": "uint256"
        }
      ],
      "name": "setReview",
      "outputs": [],
      "payable": false,
      "stateMutability": "nonpayable",
      "type": "function"
    },
    {
      "constant": true,
      "inputs": [
        {
          "internalType": "address",
          "name": "_artist",
          "type": "address"
        },
        {
          "internalType": "string",
          "name": "_art_piece",
          "type": "string"
        },
        {
          "internalType": "address",
          "name": "_reviewer",
          "type": "address"
        }
      ],
      "name": "getRating",
      "outputs": [
        {
          "internalType": "uint256",
          "name": "",
          "type": "uint256"
        }
      ],
      "payable": false,
      "stateMutability": "view",
      "type": "function"
    },
    {
      "constant": false,
      "inputs": [
        {
          "internalType": "address",
          "name": "_artist",
          "type": "address"
        }
      ],
      "name": "ban",
      "outputs": [],
      "payable": false,
      "stateMutability": "nonpayable",
      "type": "function"
    },
    {
      "constant": true,
      "inputs": [
        {
          "internalType": "address",
          "name": "_address",
          "type": "address"
        }
      ],
      "name": "adminExists",
      "outputs": [
        {
          "internalType": "bool",
          "name": "",
          "type": "bool"
        }
      ],
      "payable": false,
      "stateMutability": "view",
      "type": "function"
    },
    {
      "constant": true,
      "inputs": [
        {
          "internalType": "address",
          "name": "_artist",
          "type": "address"
        }
      ],
      "name": "isArtist",
      "outputs": [
        {
          "internalType": "bool",
          "name": "",
          "type": "bool"
        }
      ],
      "payable": false,
      "stateMutability": "view",
      "type": "function"
    },
    {
      "constant": true,
      "inputs": [
        {
          "internalType": "address",
          "name": "_artist",
          "type": "address"
        }
      ],
      "name": "getArtist",
      "outputs": [
        {
          "internalType": "string",
          "name": "",
          "type": "string"
        }
      ],
      "payable": false,
      "stateMutability": "view",
      "type": "function"
    }
  ],
  "bytecode": "0x608060405233600560006101000a81548173ffffffffffffffffffffffffffffffffffffffff021916908373ffffffffffffffffffffffffffffffffffffffff160217905550336000806101000a81548173ffffffffffffffffffffffffffffffffffffffff021916908373ffffffffffffffffffffffffffffffffffffffff16021790555061009361009860201b60201c565b610100565b60043390806001815401808255809150509060018203906000526020600020016000909192909190916101000a81548173ffffffffffffffffffffffffffffffffffffffff021916908373ffffffffffffffffffffffffffffffffffffffff16021790555050565b611c148061010f6000396000f3fe608060405234801561001057600080fd5b50600436106100cf5760003560e01c80638da5cb5b1161008c578063a90fbd8311610066578063a90fbd83146105b0578063b25bf8bc1461060c578063b949c804146106f1578063f2c298be146107ae576100cf565b80638da5cb5b146104c657806397c3ccd8146105105780639be2d09514610554576100cf565b8063069dab8f146100d45780634076419e146101a65780634838d165146102b5578063521eb273146103115780636b2f65b01461035b5780638294b689146103b7575b600080fd5b610116600480360360208110156100ea57600080fd5b81019080803573ffffffffffffffffffffffffffffffffffffffff169060200190929190505050610869565b6040518080602001858152602001848152602001838152602001828103825286818151815260200191508051906020019080838360005b8381101561016857808201518184015260208101905061014d565b50505050905090810190601f1680156101955780820380516001836020036101000a031916815260200191505b509550505050505060405180910390f35b61029f600480360360608110156101bc57600080fd5b81019080803573ffffffffffffffffffffffffffffffffffffffff169060200190929190803590602001906401000000008111156101f957600080fd5b82018360208201111561020b57600080fd5b8035906020019184600183028401116401000000008311171561022d57600080fd5b91908080601f016020809104026020016040519081016040528093929190818152602001838380828437600081840152601f19601f820116905080830192505050505050509192919290803573ffffffffffffffffffffffffffffffffffffffff169060200190929190505050610931565b6040518082815260200191505060405180910390f35b6102f7600480360360208110156102cb57600080fd5b81019080803573ffffffffffffffffffffffffffffffffffffffff169060200190929190505050610a3c565b604051808215151515815260200191505060405180910390f35b610319610a5c565b604051808273ffffffffffffffffffffffffffffffffffffffff1673ffffffffffffffffffffffffffffffffffffffff16815260200191505060405180910390f35b61039d6004803603602081101561037157600080fd5b81019080803573ffffffffffffffffffffffffffffffffffffffff169060200190929190505050610a81565b604051808215151515815260200191505060405180910390f35b6104b0600480360360608110156103cd57600080fd5b81019080803573ffffffffffffffffffffffffffffffffffffffff1690602001909291908035906020019064010000000081111561040a57600080fd5b82018360208201111561041c57600080fd5b8035906020019184600183028401116401000000008311171561043e57600080fd5b91908080601f016020809104026020016040519081016040528093929190818152602001838380828437600081840152601f19601f820116905080830192505050505050509192919290803573ffffffffffffffffffffffffffffffffffffffff169060200190929190505050610ad7565b6040518082815260200191505060405180910390f35b6104ce610bcf565b604051808273ffffffffffffffffffffffffffffffffffffffff1673ffffffffffffffffffffffffffffffffffffffff16815260200191505060405180910390f35b6105526004803603602081101561052657600080fd5b81019080803573ffffffffffffffffffffffffffffffffffffffff169060200190929190505050610bf5565b005b6105966004803603602081101561056a57600080fd5b81019080803573ffffffffffffffffffffffffffffffffffffffff169060200190929190505050610ead565b604051808215151515815260200191505060405180910390f35b6105f2600480360360208110156105c657600080fd5b81019080803573ffffffffffffffffffffffffffffffffffffffff169060200190929190505050610f4f565b604051808215151515815260200191505060405180910390f35b6106ef6004803603606081101561062257600080fd5b81019080803573ffffffffffffffffffffffffffffffffffffffff1690602001909291908035906020019064010000000081111561065f57600080fd5b82018360208201111561067157600080fd5b8035906020019184600183028401116401000000008311171561069357600080fd5b91908080601f016020809104026020016040519081016040528093929190818152602001838380828437600081840152601f19601f82011690508083019250505050505050919291929080359060200190929190505050610f6f565b005b6107336004803603602081101561070757600080fd5b81019080803573ffffffffffffffffffffffffffffffffffffffff1690602001909291905050506112cb565b6040518080602001828103825283818151815260200191508051906020019080838360005b83811015610773578082015181840152602081019050610758565b50505050905090810190601f1680156107a05780820380516001836020036101000a031916815260200191505b509250505060405180910390f35b610867600480360360208110156107c457600080fd5b81019080803590602001906401000000008111156107e157600080fd5b8201836020820111156107f357600080fd5b8035906020019184600183028401116401000000008311171561081557600080fd5b91908080601f016020809104026020016040519081016040528093929190818152602001838380828437600081840152601f19601f8201169050808301925050505050505091929192905050506113af565b005b6006602052806000526040600020600091509050806000018054600181600116156101000203166002900480601f0160208091040260200160405190810160405280929190818152602001828054600181600116156101000203166002900480156109155780601f106108ea57610100808354040283529160200191610915565b820191906000526020600020905b8154815290600101906020018083116108f857829003601f168201915b5050505050908060040154908060050154908060060154905084565b600080600660008673ffffffffffffffffffffffffffffffffffffffff1673ffffffffffffffffffffffffffffffffffffffff168152602001908152602001600020600201846040518082805190602001908083835b602083106109aa5780518252602082019150602081019050602083039250610987565b6001836020036101000a038019825116818451168082178552505050505050905001915050908152602001604051809103902060010160008473ffffffffffffffffffffffffffffffffffffffff1673ffffffffffffffffffffffffffffffffffffffff168152602001908152602001600020600001541415610a305760009050610a35565b600190505b9392505050565b60026020528060005260406000206000915054906101000a900460ff1681565b6000809054906101000a900473ffffffffffffffffffffffffffffffffffffffff1681565b6000600160008373ffffffffffffffffffffffffffffffffffffffff1673ffffffffffffffffffffffffffffffffffffffff16815260200190815260200160002060009054906101000a900460ff169050919050565b6000600660008573ffffffffffffffffffffffffffffffffffffffff1673ffffffffffffffffffffffffffffffffffffffff168152602001908152602001600020600201836040518082805190602001908083835b60208310610b4f5780518252602082019150602081019050602083039250610b2c565b6001836020036101000a038019825116818451168082178552505050505050905001915050908152602001604051809103902060010160008373ffffffffffffffffffffffffffffffffffffffff1673ffffffffffffffffffffffffffffffffffffffff1681526020019081526020016000206000015490509392505050565b600560009054906101000a900473ffffffffffffffffffffffffffffffffffffffff1681565b3360011515610c0333610ead565b151514610c78576040517f08c379a00000000000000000000000000000000000000000000000000000000081526004018080602001828103825260158152602001807f596f7520617265206e6f74207468652061646d696e000000000000000000000081525060200191505060405180910390fd5b8160011515600260008373ffffffffffffffffffffffffffffffffffffffff1673ffffffffffffffffffffffffffffffffffffffff16815260200190815260200160002060009054906101000a900460ff1615151514610d40576040517f08c379a000000000000000000000000000000000000000000000000000000000815260040180806020018281038252601e8152602001807f546869732061727469737420616464726573732069732062616e6e656421000081525060200191505060405180910390fd5b8260011515600160008373ffffffffffffffffffffffffffffffffffffffff1673ffffffffffffffffffffffffffffffffffffffff16815260200190815260200160002060009054906101000a900460ff16151514610e07576040517f08c379a000000000000000000000000000000000000000000000000000000000815260040180806020018281038252601b8152602001807f4e6f74207265676973746572656420617320616e20417274697374000000000081525060200191505060405180910390fd5b6001600260008673ffffffffffffffffffffffffffffffffffffffff1673ffffffffffffffffffffffffffffffffffffffff16815260200190815260200160002060006101000a81548160ff0219169083151502179055506000600660008673ffffffffffffffffffffffffffffffffffffffff1673ffffffffffffffffffffffffffffffffffffffff1681526020019081526020016000206004018190555050505050565b600080600090505b600480549050811015610f445760048181548110610ecf57fe5b9060005260206000200160009054906101000a900473ffffffffffffffffffffffffffffffffffffffff1673ffffffffffffffffffffffffffffffffffffffff168373ffffffffffffffffffffffffffffffffffffffff161415610f37576001915050610f4a565b8080600101915050610eb5565b50600090505b919050565b60016020528060005260406000206000915054906101000a900460ff1681565b8260011515600160008373ffffffffffffffffffffffffffffffffffffffff1673ffffffffffffffffffffffffffffffffffffffff16815260200190815260200160002060009054906101000a900460ff16151514611036576040517f08c379a000000000000000000000000000000000000000000000000000000000815260040180806020018281038252601b8152602001807f4e6f74207265676973746572656420617320616e20417274697374000000000081525060200191505060405180910390fd5b8180600510158015611049575060018110155b6110bb576040517f08c379a000000000000000000000000000000000000000000000000000000000815260040180806020018281038252601f8152602001807f726174696e672073686f756c6420626520626574776565203120616e6420350081525060200191505060405180910390fd5b600033905083600660008873ffffffffffffffffffffffffffffffffffffffff1673ffffffffffffffffffffffffffffffffffffffff168152602001908152602001600020600201866040518082805190602001908083835b602083106111375780518252602082019150602081019050602083039250611114565b6001836020036101000a038019825116818451168082178552505050505050905001915050908152602001604051809103902060010160008373ffffffffffffffffffffffffffffffffffffffff1673ffffffffffffffffffffffffffffffffffffffff16815260200190815260200160002060000181905550600660008773ffffffffffffffffffffffffffffffffffffffff1673ffffffffffffffffffffffffffffffffffffffff1681526020019081526020016000206007018490806001815401808255809150509060018203906000526020600020016000909192909190915055506112736001600660008973ffffffffffffffffffffffffffffffffffffffff1673ffffffffffffffffffffffffffffffffffffffff1681526020019081526020016000206006015461181a90919063ffffffff16565b600660008873ffffffffffffffffffffffffffffffffffffffff1673ffffffffffffffffffffffffffffffffffffffff168152602001908152602001600020600601819055506112c2866118a2565b50505050505050565b6060600660008373ffffffffffffffffffffffffffffffffffffffff1673ffffffffffffffffffffffffffffffffffffffff1681526020019081526020016000206000018054600181600116156101000203166002900480601f0160208091040260200160405190810160405280929190818152602001828054600181600116156101000203166002900480156113a35780601f10611378576101008083540402835291602001916113a3565b820191906000526020600020905b81548152906001019060200180831161138657829003601f168201915b50505050509050919050565b3360001515600160008373ffffffffffffffffffffffffffffffffffffffff1673ffffffffffffffffffffffffffffffffffffffff16815260200190815260200160002060009054906101000a900460ff16151514611476576040517f08c379a00000000000000000000000000000000000000000000000000000000081526004018080602001828103825260118152602001807f416c726561647920616e2041727469737400000000000000000000000000000081525060200191505060405180910390fd5b81600015156003826040518082805190602001908083835b602083106114b1578051825260208201915060208101905060208303925061148e565b6001836020036101000a038019825116818451168082178552505050505050905001915050908152602001604051809103902060009054906101000a900460ff16151514611567576040517f08c379a00000000000000000000000000000000000000000000000000000000081526004018080602001828103825260168152602001807f4e616d6520697320616c726561647920696e207573650000000000000000000081525060200191505060405180910390fd5b6005600660003373ffffffffffffffffffffffffffffffffffffffff1673ffffffffffffffffffffffffffffffffffffffff1681526020019081526020016000206004018190555082600660003373ffffffffffffffffffffffffffffffffffffffff1673ffffffffffffffffffffffffffffffffffffffff1681526020019081526020016000206000019080519060200190611605929190611b3a565b506001600660003373ffffffffffffffffffffffffffffffffffffffff1673ffffffffffffffffffffffffffffffffffffffff16815260200190815260200160002060010160003373ffffffffffffffffffffffffffffffffffffffff1673ffffffffffffffffffffffffffffffffffffffff16815260200190815260200160002060006101000a81548160ff02191690831515021790555060018060003373ffffffffffffffffffffffffffffffffffffffff1673ffffffffffffffffffffffffffffffffffffffff16815260200190815260200160002060006101000a81548160ff02191690831515021790555061174b6001600660003373ffffffffffffffffffffffffffffffffffffffff1673ffffffffffffffffffffffffffffffffffffffff1681526020019081526020016000206006015461181a90919063ffffffff16565b600660003373ffffffffffffffffffffffffffffffffffffffff1673ffffffffffffffffffffffffffffffffffffffff1681526020019081526020016000206006018190555061179a336118a2565b50600115156003846040518082805190602001908083835b602083106117d557805182526020820191506020810190506020830392506117b2565b6001836020036101000a038019825116818451168082178552505050505050905001915050908152602001604051809103902060009054906101000a90505050505050565b600080828401905083811015611898576040517f08c379a000000000000000000000000000000000000000000000000000000000815260040180806020018281038252601b8152602001807f536166654d6174683a206164646974696f6e206f766572666c6f77000000000081525060200191505060405180910390fd5b8091505092915050565b6000806000905060008090505b600660008573ffffffffffffffffffffffffffffffffffffffff1673ffffffffffffffffffffffffffffffffffffffff1681526020019081526020016000206007018054905081101561197557611966600660008673ffffffffffffffffffffffffffffffffffffffff1673ffffffffffffffffffffffffffffffffffffffff168152602001908152602001600020600701828154811061194c57fe5b90600052602060002001548361181a90919063ffffffff16565b915080806001019150506118af565b506119de60056119d0600660008773ffffffffffffffffffffffffffffffffffffffff1673ffffffffffffffffffffffffffffffffffffffff1681526020019081526020016000206006015484611a2a90919063ffffffff16565b61181a90919063ffffffff16565b600660008573ffffffffffffffffffffffffffffffffffffffff1673ffffffffffffffffffffffffffffffffffffffff1681526020019081526020016000206004018190555050919050565b6000611a6c83836040518060400160405280601a81526020017f536166654d6174683a206469766973696f6e206279207a65726f000000000000815250611a74565b905092915050565b60008083118290611b20576040517f08c379a00000000000000000000000000000000000000000000000000000000081526004018080602001828103825283818151815260200191508051906020019080838360005b83811015611ae5578082015181840152602081019050611aca565b50505050905090810190601f168015611b125780820380516001836020036101000a031916815260200191505b509250505060405180910390fd5b506000838581611b2c57fe5b049050809150509392505050565b828054600181600116156101000203166002900490600052602060002090601f016020900481019282601f10611b7b57805160ff1916838001178555611ba9565b82800160010185558215611ba9579182015b82811115611ba8578251825591602001919060010190611b8d565b5b509050611bb69190611bba565b5090565b611bdc91905b80821115611bd8576000816000905550600101611bc0565b5090565b9056fea265627a7a723158202a2405e8c617a6413798ebd05b116a5218a260fd3d0c693d809dd88b126b61df64736f6c63430005100032",
  "source": "pragma solidity >=0.4.21 <0.7.0;\nimport \"./SafeMath.sol\";\n\ncontract Rating {\n    using SafeMath for uint256;\n\n    //VARIABLES\n    address payable public wallet;\n    mapping (address => bool) public allArtist;\n    mapping (address => bool) public blackList;\n    mapping(string => bool) artist_name;\n    address[] private admins;\n    address public owner;\n    \n\n    //STRUCTURES  \n\n    struct Ratings{\n        uint data_rating;\n        mapping (address => bool) rater;\n    }\n\n    struct Art_piece {\n        string art_piece_url;\n        //int data_rating;\n        mapping(address => Ratings) ratings;\n    }\n    struct Artist {\n        string name;\n        mapping(address => bool) artist_present;\n        mapping(string => Art_piece) art_pieces;\n        mapping(string => bool) art_piece_names;\n        uint userReputation;\n        uint userFnishedWorks;\n        uint numberRatings;\n        uint[] allRatings;\n    }\n    mapping(address => Artist) public artists;\n    \n    constructor() public payable{\n        owner = msg.sender;\n        wallet = msg.sender;\n        registerAdmin();\n    }\n\n    //MODIFIERS\n\n        \n    modifier notBanned(address _artist){\n        require(!blackList[_artist] == true, \"This artist address is banned!\");\n        _;\n    }\n    \n    \n    modifier onlyAdmin(address _address){\n        require(adminExists(msg.sender) == true, \"You are not the admin\");\n        _;\n    }\n    \n    modifier isAnArtist(address _artist) {\n        require(allArtist[_artist] == true, \"Not registered as an Artist\");\n        _;\n    }\n    \n    modifier NotAnArtist(address _artist) {\n        require(allArtist[_artist] == false, \"Already an Artist\");\n        _;\n    }\n    \n    modifier nameArtist(string memory _name) {\n        require(artist_name[_name] == false, \"Name is already in use\");\n        _;\n    }\n    \n    modifier nameArtPiece(address _artist, string memory _art_piece) {\n        require(artists[_artist].art_piece_names[_art_piece] == false, \"Name is already in use\");\n        _;\n    }\n    \n    modifier limitRatings(uint _rating) {\n        require(5 >= _rating && _rating >= 1, \"rating should be betwee 1 and 5\");\n        _;\n    }\n\n    //FUNCTIONS\n    \n    function register(string memory _name) public NotAnArtist(msg.sender) nameArtist (_name) {\n        artists[msg.sender].userReputation = 5;\n        artists[msg.sender].name = _name;\n        artists[msg.sender].artist_present[msg.sender] = true;\n        allArtist[msg.sender] = true;\n        artists[msg.sender].numberRatings = artists[msg.sender].numberRatings.add(1);\n        updateReputation(msg.sender);\n        artist_name[_name] == true;\n    }\n    \n    function existReview(address _artist, string memory _art_piece, address _rater) public view returns(uint){\n        if(artists[_artist].art_pieces[_art_piece].ratings[_rater].data_rating==0) return 0;\n        else return 1;\n    }\n    \n    function setReview(address _artist, string memory _art_piece, uint _rating) isAnArtist(_artist) limitRatings(_rating) public  {\n        address reviewer = msg.sender;\n        //artists[reviewer].art_pieces[_artist].data_content = _contents;\n        artists[_artist].art_pieces[_art_piece].ratings[reviewer].data_rating = _rating;\n        artists[_artist].allRatings.push(_rating);\n        artists[_artist].numberRatings = artists[_artist].numberRatings.add(1);\n        updateReputation(_artist);\n\n    }\n    //function getReview(address _reviewer, address _artist, string memory _art_piece) public view returns (string memory) {\n    //    return (artists[_reviewer].art_pieces[_artist].piece_reviews[_art_piece].data_content);\n    //}\n    function getRating(address _artist, string memory _art_piece, address _reviewer) public view returns (uint) {\n        return (artists[_artist].art_pieces[_art_piece].ratings[_reviewer].data_rating);\n    }\n    \n    function ban(address _artist) onlyAdmin(msg.sender) notBanned(_artist) isAnArtist(_artist) public {\n        blackList[_artist] = true;\n        artists[_artist].userReputation = 0;\n    }\n    \n    function updateReputation(address _artist) internal  returns (uint){\n        uint sumRatings = 0;\n        for (uint i = 0; i <artists[_artist].allRatings.length; i++) sumRatings = sumRatings.add(artists[_artist].allRatings[i]);\n        artists[_artist].userReputation = (sumRatings.div(artists[_artist].numberRatings)).add(5);\n    }\n    \n    function registerAdmin() private {\n        admins.push(msg.sender);\n    }\n    \n    function adminExists(address _address) public view returns (bool) {\n        for (uint i = 0; i < admins.length; i++) {\n            if (_address == admins[i]) { return true;\n            }\n        }\n        return false;\n    }\n    function isArtist(address _artist) public view returns (bool) {\n        return allArtist[_artist];\n    }\n    function getArtist(address _artist) public view returns (string memory){\n        return artists[_artist].name;\n    }\n}",
  "sourcePath": "/home/pupulvuh/code/gonzaloetjo/depot/Defi 2/contracts/Artist.sol",
  "compiler": {
    "name": "solc",
    "version": "0.5.16+commit.9c3226ce.Emscripten.clang"
  },
  "schemaVersion": "3.1.0",
  "updatedAt": "2020-05-22T02:22:56.914Z",
  "devdoc": {
    "methods": {}
  },
  "userdoc": {
    "methods": {}
  }
}