{
  "contractName": "MarketPlace",
  "abi": [
    {
      "inputs": [],
      "stateMutability": "nonpayable",
      "type": "constructor"
    },
    {
      "inputs": [
        {
          "internalType": "address",
          "name": "",
          "type": "address"
        }
      ],
      "name": "blacklist",
      "outputs": [
        {
          "internalType": "bool",
          "name": "",
          "type": "bool"
        }
      ],
      "stateMutability": "view",
      "type": "function",
      "constant": true
    },
    {
      "inputs": [],
      "name": "owner",
      "outputs": [
        {
          "internalType": "address",
          "name": "",
          "type": "address"
        }
      ],
      "stateMutability": "view",
      "type": "function",
      "constant": true
    },
    {
      "inputs": [
        {
          "internalType": "uint256",
          "name": "",
          "type": "uint256"
        }
      ],
      "name": "requests",
      "outputs": [
        {
          "internalType": "uint256",
          "name": "id",
          "type": "uint256"
        },
        {
          "internalType": "uint256",
          "name": "payment",
          "type": "uint256"
        },
        {
          "internalType": "uint256",
          "name": "deadline",
          "type": "uint256"
        },
        {
          "internalType": "string",
          "name": "description",
          "type": "string"
        },
        {
          "internalType": "enum MarketPlace.State",
          "name": "state",
          "type": "uint8"
        },
        {
          "internalType": "uint256",
          "name": "minReputation",
          "type": "uint256"
        }
      ],
      "stateMutability": "view",
      "type": "function",
      "constant": true
    },
    {
      "inputs": [
        {
          "internalType": "address",
          "name": "",
          "type": "address"
        }
      ],
      "name": "users",
      "outputs": [
        {
          "internalType": "string",
          "name": "name",
          "type": "string"
        },
        {
          "internalType": "uint256",
          "name": "reputation",
          "type": "uint256"
        }
      ],
      "stateMutability": "view",
      "type": "function",
      "constant": true
    },
    {
      "inputs": [
        {
          "internalType": "string",
          "name": "url",
          "type": "string"
        }
      ],
      "name": "hash",
      "outputs": [
        {
          "internalType": "bytes32",
          "name": "",
          "type": "bytes32"
        }
      ],
      "stateMutability": "pure",
      "type": "function",
      "constant": true
    },
    {
      "inputs": [
        {
          "internalType": "string",
          "name": "_name",
          "type": "string"
        }
      ],
      "name": "register",
      "outputs": [
        {
          "internalType": "bool",
          "name": "",
          "type": "bool"
        }
      ],
      "stateMutability": "nonpayable",
      "type": "function"
    },
    {
      "inputs": [
        {
          "internalType": "address",
          "name": "_address",
          "type": "address"
        }
      ],
      "name": "blacklisted",
      "outputs": [],
      "stateMutability": "nonpayable",
      "type": "function"
    },
    {
      "inputs": [
        {
          "internalType": "address",
          "name": "_address",
          "type": "address"
        }
      ],
      "name": "unBlacklisted",
      "outputs": [],
      "stateMutability": "nonpayable",
      "type": "function"
    },
    {
      "inputs": [
        {
          "internalType": "string",
          "name": "_description",
          "type": "string"
        },
        {
          "internalType": "uint256",
          "name": "_payment",
          "type": "uint256"
        },
        {
          "internalType": "uint256",
          "name": "_deadline",
          "type": "uint256"
        },
        {
          "internalType": "uint256",
          "name": "_minReputation",
          "type": "uint256"
        }
      ],
      "name": "addRequest",
      "outputs": [],
      "stateMutability": "payable",
      "type": "function",
      "payable": true
    },
    {
      "inputs": [],
      "name": "getRequests",
      "outputs": [
        {
          "components": [
            {
              "internalType": "uint256",
              "name": "id",
              "type": "uint256"
            },
            {
              "internalType": "uint256",
              "name": "payment",
              "type": "uint256"
            },
            {
              "internalType": "uint256",
              "name": "deadline",
              "type": "uint256"
            },
            {
              "internalType": "string",
              "name": "description",
              "type": "string"
            },
            {
              "internalType": "enum MarketPlace.State",
              "name": "state",
              "type": "uint8"
            },
            {
              "internalType": "uint256",
              "name": "minReputation",
              "type": "uint256"
            },
            {
              "internalType": "address[]",
              "name": "candidates",
              "type": "address[]"
            }
          ],
          "internalType": "struct MarketPlace.Request[]",
          "name": "",
          "type": "tuple[]"
        }
      ],
      "stateMutability": "view",
      "type": "function",
      "constant": true
    },
    {
      "inputs": [
        {
          "internalType": "uint256",
          "name": "requestId",
          "type": "uint256"
        }
      ],
      "name": "applyToRequest",
      "outputs": [
        {
          "internalType": "bool",
          "name": "",
          "type": "bool"
        }
      ],
      "stateMutability": "nonpayable",
      "type": "function"
    }
  ],
  "bytecode": "0x608060405234801561001057600080fd5b50336000806101000a81548173ffffffffffffffffffffffffffffffffffffffff021916908373ffffffffffffffffffffffffffffffffffffffff160217905550611d2e806100606000396000f3fe60806040526004361061009c5760003560e01c8063a87430ba11610064578063a87430ba14610192578063b411ee94146101d0578063d86c466b1461020d578063dbac26e914610236578063f2c298be1461025f578063f9f92be41461029c5761009c565b80631b95ab99146100a157806359a1f7cb146100bd57806381d12c58146100fa5780638813ce121461013c5780638da5cb5b14610167575b600080fd5b6100bb60048036036100b691908101906113c0565b6102d9565b005b3480156100c957600080fd5b506100e460048036036100df919081019061143b565b610513565b6040516100f1919061192d565b60405180910390f35b34801561010657600080fd5b50610121600480360361011c919081019061143b565b6106c5565b60405161013396959493929190611a93565b60405180910390f35b34801561014857600080fd5b506101516107b3565b60405161015e919061190b565b60405180910390f35b34801561017357600080fd5b5061017c610997565b60405161018991906118f0565b60405180910390f35b34801561019e57600080fd5b506101b960048036036101b49190810190611356565b6109bc565b6040516101c7929190611963565b60405180910390f35b3480156101dc57600080fd5b506101f760048036036101f2919081019061137f565b610a78565b6040516102049190611948565b60405180910390f35b34801561021957600080fd5b50610234600480360361022f9190810190611356565b610a89565b005b34801561024257600080fd5b5061025d60048036036102589190810190611356565b610c4e565b005b34801561026b57600080fd5b506102866004803603610281919081019061137f565b610e14565b604051610293919061192d565b60405180910390f35b3480156102a857600080fd5b506102c360048036036102be9190810190611356565b611029565b6040516102d0919061192d565b60405180910390f35b60018060003373ffffffffffffffffffffffffffffffffffffffff1673ffffffffffffffffffffffffffffffffffffffff16815260200190815260200160002060010154101561035e576040517f08c379a0000000000000000000000000000000000000000000000000000000008152600401610355906119f3565b60405180910390fd5b60011515600260003373ffffffffffffffffffffffffffffffffffffffff1673ffffffffffffffffffffffffffffffffffffffff16815260200190815260200160002060009054906101000a900460ff16151514156103f2576040517f08c379a00000000000000000000000000000000000000000000000000000000081526004016103e990611993565b60405180910390fd5b6103fa61109e565b6003805490508160000181815250508381602001818152505084816060018190525082816040018181525050818160a001818152505060008160800190600281111561044257fe5b9081600281111561044f57fe5b81525050600381908060018154018082558091505060019003906000526020600020906007020160009091909190915060008201518160000155602082015181600101556040820151816002015560608201518160030190805190602001906104b99291906110e6565b5060808201518160040160006101000a81548160ff021916908360028111156104de57fe5b021790555060a0820151816005015560c0820151816006019080519060200190610509929190611166565b5050505050505050565b600060018060003373ffffffffffffffffffffffffffffffffffffffff1673ffffffffffffffffffffffffffffffffffffffff16815260200190815260200160002060010154101561059a576040517f08c379a0000000000000000000000000000000000000000000000000000000008152600401610591906119f3565b60405180910390fd5b600382815481106105a757fe5b906000526020600020906007020160050154600160003373ffffffffffffffffffffffffffffffffffffffff1673ffffffffffffffffffffffffffffffffffffffff16815260200190815260200160002060010154101561063d576040517f08c379a000000000000000000000000000000000000000000000000000000000815260040161063490611a73565b60405180910390fd5b6003828154811061064a57fe5b9060005260206000209060070201600601339080600181540180825580915050600190039060005260206000200160009091909190916101000a81548173ffffffffffffffffffffffffffffffffffffffff021916908373ffffffffffffffffffffffffffffffffffffffff16021790555060019050919050565b600381815481106106d257fe5b9060005260206000209060070201600091509050806000015490806001015490806002015490806003018054600181600116156101000203166002900480601f0160208091040260200160405190810160405280929190818152602001828054600181600116156101000203166002900480156107905780601f1061076557610100808354040283529160200191610790565b820191906000526020600020905b81548152906001019060200180831161077357829003601f168201915b5050505050908060040160009054906101000a900460ff16908060050154905086565b60606003805480602002602001604051908101604052809291908181526020016000905b8282101561098e57838290600052602060002090600702016040518060e0016040529081600082015481526020016001820154815260200160028201548152602001600382018054600181600116156101000203166002900480601f0160208091040260200160405190810160405280929190818152602001828054600181600116156101000203166002900480156108b15780601f10610886576101008083540402835291602001916108b1565b820191906000526020600020905b81548152906001019060200180831161089457829003601f168201915b505050505081526020016004820160009054906101000a900460ff1660028111156108d857fe5b60028111156108e357fe5b8152602001600582015481526020016006820180548060200260200160405190810160405280929190818152602001828054801561097657602002820191906000526020600020905b8160009054906101000a900473ffffffffffffffffffffffffffffffffffffffff1673ffffffffffffffffffffffffffffffffffffffff168152602001906001019080831161092c575b505050505081525050815260200190600101906107d7565b50505050905090565b6000809054906101000a900473ffffffffffffffffffffffffffffffffffffffff1681565b6001602052806000526040600020600091509050806000018054600181600116156101000203166002900480601f016020809104026020016040519081016040528092919081815260200182805460018160011615610100020316600290048015610a685780601f10610a3d57610100808354040283529160200191610a68565b820191906000526020600020905b815481529060010190602001808311610a4b57829003601f168201915b5050505050908060010154905082565b600081805190602001209050919050565b3373ffffffffffffffffffffffffffffffffffffffff166000809054906101000a900473ffffffffffffffffffffffffffffffffffffffff1673ffffffffffffffffffffffffffffffffffffffff1614610b18576040517f08c379a0000000000000000000000000000000000000000000000000000000008152600401610b0f90611a53565b60405180910390fd5b60001515600260008373ffffffffffffffffffffffffffffffffffffffff1673ffffffffffffffffffffffffffffffffffffffff16815260200190815260200160002060009054906101000a900460ff1615151415610bac576040517f08c379a0000000000000000000000000000000000000000000000000000000008152600401610ba390611a33565b60405180910390fd5b6000600260008373ffffffffffffffffffffffffffffffffffffffff1673ffffffffffffffffffffffffffffffffffffffff16815260200190815260200160002060006101000a81548160ff02191690831515021790555060018060008373ffffffffffffffffffffffffffffffffffffffff1673ffffffffffffffffffffffffffffffffffffffff1681526020019081526020016000206001018190555050565b3373ffffffffffffffffffffffffffffffffffffffff166000809054906101000a900473ffffffffffffffffffffffffffffffffffffffff1673ffffffffffffffffffffffffffffffffffffffff1614610cdd576040517f08c379a0000000000000000000000000000000000000000000000000000000008152600401610cd490611a53565b60405180910390fd5b60011515600260008373ffffffffffffffffffffffffffffffffffffffff1673ffffffffffffffffffffffffffffffffffffffff16815260200190815260200160002060009054906101000a900460ff1615151415610d71576040517f08c379a0000000000000000000000000000000000000000000000000000000008152600401610d68906119d3565b60405180910390fd5b6001600260008373ffffffffffffffffffffffffffffffffffffffff1673ffffffffffffffffffffffffffffffffffffffff16815260200190815260200160002060006101000a81548160ff0219169083151502179055506000600160008373ffffffffffffffffffffffffffffffffffffffff1673ffffffffffffffffffffffffffffffffffffffff1681526020019081526020016000206001018190555050565b600060018060003373ffffffffffffffffffffffffffffffffffffffff1673ffffffffffffffffffffffffffffffffffffffff1681526020019081526020016000206001015410610e9a576040517f08c379a0000000000000000000000000000000000000000000000000000000008152600401610e91906119b3565b60405180910390fd5b60011515600260003373ffffffffffffffffffffffffffffffffffffffff1673ffffffffffffffffffffffffffffffffffffffff16815260200190815260200160002060009054906101000a900460ff1615151415610f2e576040517f08c379a0000000000000000000000000000000000000000000000000000000008152600401610f2590611993565b60405180910390fd5b610f8360018060003373ffffffffffffffffffffffffffffffffffffffff1673ffffffffffffffffffffffffffffffffffffffff1681526020019081526020016000206001015461104990919063ffffffff16565b600160003373ffffffffffffffffffffffffffffffffffffffff1673ffffffffffffffffffffffffffffffffffffffff1681526020019081526020016000206001018190555081600160003373ffffffffffffffffffffffffffffffffffffffff1673ffffffffffffffffffffffffffffffffffffffff168152602001908152602001600020600001908051906020019061101f9291906111f0565b5060019050919050565b60026020528060005260406000206000915054906101000a900460ff1681565b600080828401905083811015611094576040517f08c379a000000000000000000000000000000000000000000000000000000000815260040161108b90611a13565b60405180910390fd5b8091505092915050565b6040518060e0016040528060008152602001600081526020016000815260200160608152602001600060028111156110d257fe5b815260200160008152602001606081525090565b828054600181600116156101000203166002900490600052602060002090601f016020900481019282601f1061112757805160ff1916838001178555611155565b82800160010185558215611155579182015b82811115611154578251825591602001919060010190611139565b5b5090506111629190611270565b5090565b8280548282559060005260206000209081019282156111df579160200282015b828111156111de5782518260006101000a81548173ffffffffffffffffffffffffffffffffffffffff021916908373ffffffffffffffffffffffffffffffffffffffff16021790555091602001919060010190611186565b5b5090506111ec9190611295565b5090565b828054600181600116156101000203166002900490600052602060002090601f016020900481019282601f1061123157805160ff191683800117855561125f565b8280016001018555821561125f579182015b8281111561125e578251825591602001919060010190611243565b5b50905061126c9190611270565b5090565b61129291905b8082111561128e576000816000905550600101611276565b5090565b90565b6112d591905b808211156112d157600081816101000a81549073ffffffffffffffffffffffffffffffffffffffff02191690555060010161129b565b5090565b90565b6000813590506112e781611cca565b92915050565b600082601f8301126112fe57600080fd5b813561131161130c82611b28565b611afb565b9150808252602083016020830185838301111561132d57600080fd5b611338838284611c6a565b50505092915050565b60008135905061135081611ce1565b92915050565b60006020828403121561136857600080fd5b6000611376848285016112d8565b91505092915050565b60006020828403121561139157600080fd5b600082013567ffffffffffffffff8111156113ab57600080fd5b6113b7848285016112ed565b91505092915050565b600080600080608085870312156113d657600080fd5b600085013567ffffffffffffffff8111156113f057600080fd5b6113fc878288016112ed565b945050602061140d87828801611341565b935050604061141e87828801611341565b925050606061142f87828801611341565b91505092959194509250565b60006020828403121561144d57600080fd5b600061145b84828501611341565b91505092915050565b60006114708383611490565b60208301905092915050565b6000611488838361182f565b905092915050565b61149981611bf3565b82525050565b6114a881611bf3565b82525050565b60006114b982611b74565b6114c38185611baf565b93506114ce83611b54565b8060005b838110156114ff5781516114e68882611464565b97506114f183611b95565b9250506001810190506114d2565b5085935050505092915050565b600061151782611b7f565b6115218185611bc0565b93508360208202850161153385611b64565b8060005b8581101561156f5784840389528151611550858261147c565b945061155b83611ba2565b925060208a01995050600181019050611537565b50829750879550505050505092915050565b61158a81611c05565b82525050565b61159981611c11565b82525050565b6115a881611c58565b82525050565b6115b781611c58565b82525050565b60006115c882611b8a565b6115d28185611bd1565b93506115e2818560208601611c79565b6115eb81611cac565b840191505092915050565b600061160182611b8a565b61160b8185611be2565b935061161b818560208601611c79565b61162481611cac565b840191505092915050565b600061163c601183611be2565b91507f5573657220626c61636b6c6973746564210000000000000000000000000000006000830152602082019050919050565b600061167c601383611be2565b91507f5573657220616c726561647920657869737421000000000000000000000000006000830152602082019050919050565b60006116bc601983611be2565b91507f5573657220616c726561647920626c61636b6c697374656421000000000000006000830152602082019050919050565b60006116fc601483611be2565b91507f55736572206e6f742072656769737465726564210000000000000000000000006000830152602082019050919050565b600061173c601b83611be2565b91507f536166654d6174683a206164646974696f6e206f766572666c6f7700000000006000830152602082019050919050565b600061177c601583611be2565b91507f55736572206e6f7420626c61636b6c69737465642100000000000000000000006000830152602082019050919050565b60006117bc600a83611be2565b91507f4e6f74206f776e657221000000000000000000000000000000000000000000006000830152602082019050919050565b60006117fc601683611be2565b91507f4e6f7420656e6f756768742072657075746174696f6e000000000000000000006000830152602082019050919050565b600060e08301600083015161184760008601826118d2565b50602083015161185a60208601826118d2565b50604083015161186d60408601826118d2565b506060830151848203606086015261188582826115bd565b915050608083015161189a608086018261159f565b5060a08301516118ad60a08601826118d2565b5060c083015184820360c08601526118c582826114ae565b9150508091505092915050565b6118db81611c4e565b82525050565b6118ea81611c4e565b82525050565b6000602082019050611905600083018461149f565b92915050565b60006020820190508181036000830152611925818461150c565b905092915050565b60006020820190506119426000830184611581565b92915050565b600060208201905061195d6000830184611590565b92915050565b6000604082019050818103600083015261197d81856115f6565b905061198c60208301846118e1565b9392505050565b600060208201905081810360008301526119ac8161162f565b9050919050565b600060208201905081810360008301526119cc8161166f565b9050919050565b600060208201905081810360008301526119ec816116af565b9050919050565b60006020820190508181036000830152611a0c816116ef565b9050919050565b60006020820190508181036000830152611a2c8161172f565b9050919050565b60006020820190508181036000830152611a4c8161176f565b9050919050565b60006020820190508181036000830152611a6c816117af565b9050919050565b60006020820190508181036000830152611a8c816117ef565b9050919050565b600060c082019050611aa860008301896118e1565b611ab560208301886118e1565b611ac260408301876118e1565b8181036060830152611ad481866115f6565b9050611ae360808301856115ae565b611af060a08301846118e1565b979650505050505050565b6000604051905081810181811067ffffffffffffffff82111715611b1e57600080fd5b8060405250919050565b600067ffffffffffffffff821115611b3f57600080fd5b601f19601f8301169050602081019050919050565b6000819050602082019050919050565b6000819050602082019050919050565b600081519050919050565b600081519050919050565b600081519050919050565b6000602082019050919050565b6000602082019050919050565b600082825260208201905092915050565b600082825260208201905092915050565b600082825260208201905092915050565b600082825260208201905092915050565b6000611bfe82611c2e565b9050919050565b60008115159050919050565b6000819050919050565b6000819050611c2982611cbd565b919050565b600073ffffffffffffffffffffffffffffffffffffffff82169050919050565b6000819050919050565b6000611c6382611c1b565b9050919050565b82818337600083830152505050565b60005b83811015611c97578082015181840152602081019050611c7c565b83811115611ca6576000848401525b50505050565b6000601f19601f8301169050919050565b60038110611cc757fe5b50565b611cd381611bf3565b8114611cde57600080fd5b50565b611cea81611c4e565b8114611cf557600080fd5b5056fea2646970667358221220ad65d4e7f0d216dfe88dcbdb858825a5acba02c28e08cf0ba36509eb859cc17764736f6c63430006000033",
  "source": "pragma solidity >=0.4.21 <0.7.0;\npragma experimental ABIEncoderV2;\n\nimport \"@openzeppelin/contracts/math/SafeMath.sol\";\n\ncontract MarketPlace {\n    using SafeMath for uint;\n\n    address public owner;\n\n    enum State {OPEN, INPROGRESS , CLOSED}\n\n    struct User {\n        string name;\n        uint reputation;\n    }\n\n    struct Request {\n        uint id;\n        uint payment;\n        uint deadline;\n        string description;\n        State state;\n        uint minReputation;\n        address[] candidates;\n    }\n\n    mapping(address => User) public users;\n    mapping(address => bool) public blacklist;\n\n    Request[] public requests;\n\n    constructor() public {\n        owner = msg.sender;\n    }\n\n    function hash(string memory url) public pure returns (bytes32) {\n        return keccak256(bytes(url));\n    }\n\n    function register(string memory _name) public returns (bool) {\n        require(users[msg.sender].reputation < 1, \"User already exist!\");\n        require(blacklist[msg.sender] != true, \"User blacklisted!\");\n        users[msg.sender].reputation = users[msg.sender].reputation.add(1);\n        users[msg.sender].name = _name;\n        return true;\n    }\n\n    function blacklisted(address _address) public {\n        require(owner == msg.sender, \"Not owner!\");\n        require(blacklist[_address] != true, \"User already blacklisted!\");\n        blacklist[_address] = true;\n        users[_address].reputation = 0;\n    }\n\n    function unBlacklisted(address _address) public {\n        require(owner == msg.sender, \"Not owner!\");\n        require(blacklist[_address] != false, \"User not blacklisted!\");\n        blacklist[_address] = false;\n        users[_address].reputation = 1;\n    }\n\n    function addRequest(\n        string memory _description,\n        uint _payment,\n        uint _deadline,\n        uint _minReputation\n    ) public payable {\n        require(users[msg.sender].reputation >= 1, \"User not registered!\");\n        require(blacklist[msg.sender] != true, \"User blacklisted!\");\n\n        Request memory request;\n        request.id = requests.length;\n        request.payment = _payment;\n        request.description = _description;\n        request.deadline = _deadline;\n        request.minReputation = _minReputation;\n        request.state = State.OPEN;\n        requests.push(request);\n    }\n\n    function getRequests() public view returns (Request[] memory) {\n        //require(users[msg.sender].reputation >= 1, \"User not registered!\");\n\n\t\treturn requests;\n\t}\n\n    function applyToRequest(uint requestId) public returns (bool) {\n        require(users[msg.sender].reputation >= 1, \"User not registered!\");\n        require(users[msg.sender].reputation >= requests[requestId].minReputation, \"Not enought reputation\");\n\n        requests[requestId].candidates.push(msg.sender);\n        return true;\n    }\n\n}\n",
  "sourcePath": "/home/pupulvuh/code/gonzaloetjo/depot/challenge2/contracts/MarketPlace.sol",
  "compiler": {
    "name": "solc",
    "version": "0.6.0+commit.26b70077.Emscripten.clang"
  },
  "schemaVersion": "3.1.0",
  "updatedAt": "2020-05-14T16:25:22.799Z",
  "networkType": "ethereum",
  "devdoc": {
    "methods": {}
  },
  "userdoc": {
    "methods": {}
  }
}