{
  "contractName": "Owned",
  "abi": [
    {
      "inputs": [],
      "name": "Own",
      "outputs": [],
      "stateMutability": "nonpayable",
      "type": "function"
    }
  ],
  "bytecode": "0x6080604052348015600f57600080fd5b5060ad8061001e6000396000f3fe6080604052348015600f57600080fd5b506004361060285760003560e01c8063dc846d9514602d575b600080fd5b60336035565b005b336000806101000a81548173ffffffffffffffffffffffffffffffffffffffff021916908373ffffffffffffffffffffffffffffffffffffffff16021790555056fea26469706673582212202bf84cfa169d34a537c36c25c86c08c15554542802d295d5d7a5e0bb63a9771664736f6c63430006000033",
  "source": "pragma solidity ^0.6.0;\n\ncontract Owned {\n    address owner;\n\n    function Own() public {\n        owner = msg.sender;\n    }\n\n    modifier onlyOwner() {\n        require(msg.sender == owner);\n        _;\n    }\n}\n\ncontract Whitelist is Owned {\n    uint256 dateLimit;\n    //address[] whitelist; //in case of using a table instead of the mapping\n\n    constructor() public {\n        //owner = msg.sender;\n        dateLimit = now + 10 days;\n    }\n    \n    struct Whitelists {\n        string name; // description\n        uint portion;\n        mapping (address => bool) _whitelist_team;// association keys values\n        //mapping (bool => address[]) _lists;\n        //address[] addresses;\n        uint dateFin; // end date for voting\n    }\n\n    Whitelists[] public whitelists;\n    mapping (address => bool) members;\n    mapping (uint256 => address[]) addresses;\n    //mapping (bool => uint[]) tryhard;\n    //Whitelists[] public whitelists;\n    \n    function newGroup(uint _portion,string memory _name) public onlyOwner {\n        whitelists.push(Whitelists(_name,_portion, now + 7 days));\n    }\n        \n    function add (address _address, uint indice) public onlyOwner {\n        //require(owner == msg.sender, \"Not Owner\")\n        require(_address != address(0), \"Can't add this address\");\n        require(!members[_address], \"This address already has a team\" ); //!decisions[indice].aVote[msg.sender]\n        require(now <= dateLimit, \"Date Limit !\");\n        whitelists[indice]._whitelist_team[_address] = true;\n        //whitelists[indice]._lists[true].push[_address];\n        //whitelists[indice].address.push(_address);\n        members[_address] = true;\n        addresses[indice].push(_address);\n        \n        //tryhard[]\n        //whitelist.push(_address) // in case of using the table\n    }\n    \n\n    function getList (uint indice) public view returns (string memory, uint, address [] memory) {\n        return (whitelists[indice].name, whitelists[indice].portion, addresses[indice]);\n    }\n}",
  "sourcePath": "/home/pupulvuh/code/gonzaloetjo/depot/truffle_crowdsale/contracts/whitelist_devs.sol",
  "compiler": {
    "name": "solc",
    "version": "0.6.0+commit.26b70077.Emscripten.clang"
  },
  "schemaVersion": "3.1.0",
  "updatedAt": "2020-05-05T09:52:57.949Z",
  "devdoc": {
    "methods": {}
  },
  "userdoc": {
    "methods": {}
  }
}