{
  "contractName": "Whitelist",
  "abi": [
    {
      "inputs": [],
      "stateMutability": "nonpayable",
      "type": "constructor"
    },
    {
      "inputs": [],
      "name": "Own",
      "outputs": [],
      "stateMutability": "nonpayable",
      "type": "function"
    },
    {
      "inputs": [
        {
          "internalType": "uint256",
          "name": "",
          "type": "uint256"
        }
      ],
      "name": "whitelists",
      "outputs": [
        {
          "internalType": "string",
          "name": "name",
          "type": "string"
        },
        {
          "internalType": "uint256",
          "name": "portion",
          "type": "uint256"
        },
        {
          "internalType": "uint256",
          "name": "dateFin",
          "type": "uint256"
        }
      ],
      "stateMutability": "view",
      "type": "function"
    },
    {
      "inputs": [
        {
          "internalType": "uint256",
          "name": "_portion",
          "type": "uint256"
        },
        {
          "internalType": "string",
          "name": "_name",
          "type": "string"
        }
      ],
      "name": "newGroup",
      "outputs": [],
      "stateMutability": "nonpayable",
      "type": "function"
    },
    {
      "inputs": [
        {
          "internalType": "address",
          "name": "_address",
          "type": "address"
        },
        {
          "internalType": "uint256",
          "name": "indice",
          "type": "uint256"
        }
      ],
      "name": "add",
      "outputs": [],
      "stateMutability": "nonpayable",
      "type": "function"
    },
    {
      "inputs": [
        {
          "internalType": "uint256",
          "name": "indice",
          "type": "uint256"
        }
      ],
      "name": "getList",
      "outputs": [
        {
          "internalType": "string",
          "name": "",
          "type": "string"
        },
        {
          "internalType": "uint256",
          "name": "",
          "type": "uint256"
        },
        {
          "internalType": "address[]",
          "name": "",
          "type": "address[]"
        }
      ],
      "stateMutability": "view",
      "type": "function"
    }
  ],
  "bytecode": "0x608060405234801561001057600080fd5b50620d2f004201600181905550610aea8061002c6000396000f3fe608060405234801561001057600080fd5b50600436106100575760003560e01c80631ab5b3831461005c578063dc846d9514610152578063f5d82b6b1461015c578063fe4d5add146101aa578063fea459b51461025f575b600080fd5b6100886004803603602081101561007257600080fd5b8101908080359060200190929190505050610324565b604051808060200184815260200180602001838103835286818151815260200191508051906020019080838360005b838110156100d25780820151818401526020810190506100b7565b50505050905090810190601f1680156100ff5780820380516001836020036101000a031916815260200191505b50838103825284818151815260200191508051906020019060200280838360005b8381101561013b578082015181840152602081019050610120565b505050509050019550505050505060405180910390f35b61015a6104ab565b005b6101a86004803603604081101561017257600080fd5b81019080803573ffffffffffffffffffffffffffffffffffffffff169060200190929190803590602001909291905050506104ed565b005b6101d6600480360360208110156101c057600080fd5b8101908080359060200190929190505050610865565b6040518080602001848152602001838152602001828103825285818151815260200191508051906020019080838360005b83811015610222578082015181840152602081019050610207565b50505050905090810190601f16801561024f5780820380516001836020036101000a031916815260200191505b5094505050505060405180910390f35b6103226004803603604081101561027557600080fd5b81019080803590602001909291908035906020019064010000000081111561029c57600080fd5b8201836020820111156102ae57600080fd5b803590602001918460018302840111640100000000831117156102d057600080fd5b91908080601f016020809104026020016040519081016040528093929190818152602001838380828437600081840152601f19601f820116905080830192505050505050509192919290505050610934565b005b6060600060606002848154811061033757fe5b90600052602060002090600402016000016002858154811061035557fe5b90600052602060002090600402016001015460046000878152602001908152602001600020828054600181600116156101000203166002900480601f01602080910402602001604051908101604052809291908181526020018280546001816001161561010002031660029004801561040f5780601f106103e45761010080835404028352916020019161040f565b820191906000526020600020905b8154815290600101906020018083116103f257829003601f168201915b505050505092508080548060200260200160405190810160405280929190818152602001828054801561049757602002820191906000526020600020905b8160009054906101000a900473ffffffffffffffffffffffffffffffffffffffff1673ffffffffffffffffffffffffffffffffffffffff168152602001906001019080831161044d575b505050505090509250925092509193909250565b336000806101000a81548173ffffffffffffffffffffffffffffffffffffffff021916908373ffffffffffffffffffffffffffffffffffffffff160217905550565b6000809054906101000a900473ffffffffffffffffffffffffffffffffffffffff1673ffffffffffffffffffffffffffffffffffffffff163373ffffffffffffffffffffffffffffffffffffffff161461054657600080fd5b600073ffffffffffffffffffffffffffffffffffffffff168273ffffffffffffffffffffffffffffffffffffffff1614156105e9576040517f08c379a00000000000000000000000000000000000000000000000000000000081526004018080602001828103825260168152602001807f43616e277420616464207468697320616464726573730000000000000000000081525060200191505060405180910390fd5b600360008373ffffffffffffffffffffffffffffffffffffffff1673ffffffffffffffffffffffffffffffffffffffff16815260200190815260200160002060009054906101000a900460ff16156106a9576040517f08c379a000000000000000000000000000000000000000000000000000000000815260040180806020018281038252601f8152602001807f54686973206164647265737320616c7265616479206861732061207465616d0081525060200191505060405180910390fd5b600154421115610721576040517f08c379a000000000000000000000000000000000000000000000000000000000815260040180806020018281038252600c8152602001807f44617465204c696d69742021000000000000000000000000000000000000000081525060200191505060405180910390fd5b60016002828154811061073057fe5b906000526020600020906004020160020160008473ffffffffffffffffffffffffffffffffffffffff1673ffffffffffffffffffffffffffffffffffffffff16815260200190815260200160002060006101000a81548160ff0219169083151502179055506001600360008473ffffffffffffffffffffffffffffffffffffffff1673ffffffffffffffffffffffffffffffffffffffff16815260200190815260200160002060006101000a81548160ff02191690831515021790555060046000828152602001908152602001600020829080600181540180825580915050600190039060005260206000200160009091909190916101000a81548173ffffffffffffffffffffffffffffffffffffffff021916908373ffffffffffffffffffffffffffffffffffffffff1602179055505050565b6002818154811061087257fe5b9060005260206000209060040201600091509050806000018054600181600116156101000203166002900480601f01602080910402602001604051908101604052809291908181526020018280546001816001161561010002031660029004801561091e5780601f106108f35761010080835404028352916020019161091e565b820191906000526020600020905b81548152906001019060200180831161090157829003601f168201915b5050505050908060010154908060030154905083565b6000809054906101000a900473ffffffffffffffffffffffffffffffffffffffff1673ffffffffffffffffffffffffffffffffffffffff163373ffffffffffffffffffffffffffffffffffffffff161461098d57600080fd5b6002604051806060016040528083815260200184815260200162093a804201815250908060018154018082558091505060019003906000526020600020906004020160009091909190915060008201518160000190805190602001906109f4929190610a0f565b50602082015181600101556040820151816003015550505050565b828054600181600116156101000203166002900490600052602060002090601f016020900481019282601f10610a5057805160ff1916838001178555610a7e565b82800160010185558215610a7e579182015b82811115610a7d578251825591602001919060010190610a62565b5b509050610a8b9190610a8f565b5090565b610ab191905b80821115610aad576000816000905550600101610a95565b5090565b9056fea2646970667358221220b23450468f0c4a402157ca82a1861375e9421842ce18f4a0ba78670cbe5b49c664736f6c63430006000033",
  "source": "pragma solidity ^0.6.0;\n\ncontract Owned {\n    address owner;\n\n    function Own() public {\n        owner = msg.sender;\n    }\n\n    modifier onlyOwner() {\n        require(msg.sender == owner);\n        _;\n    }\n}\n\ncontract Whitelist is Owned {\n    uint256 dateLimit;\n    //address[] whitelist; //in case of using a table instead of the mapping\n\n    constructor() public {\n        //owner = msg.sender;\n        dateLimit = now + 10 days;\n    }\n    \n    struct Whitelists {\n        string name; // description\n        uint portion;\n        mapping (address => bool) _whitelist_team;// association keys values\n        //mapping (bool => address[]) _lists;\n        //address[] addresses;\n        uint dateFin; // end date for voting\n    }\n\n    Whitelists[] public whitelists;\n    mapping (address => bool) members;\n    mapping (uint256 => address[]) addresses;\n    //mapping (bool => uint[]) tryhard;\n    //Whitelists[] public whitelists;\n    \n    function newGroup(uint _portion,string memory _name) public onlyOwner {\n        whitelists.push(Whitelists(_name,_portion, now + 7 days));\n    }\n        \n    function add (address _address, uint indice) public onlyOwner {\n        //require(owner == msg.sender, \"Not Owner\")\n        require(_address != address(0), \"Can't add this address\");\n        require(!members[_address], \"This address already has a team\" ); //!decisions[indice].aVote[msg.sender]\n        require(now <= dateLimit, \"Date Limit !\");\n        whitelists[indice]._whitelist_team[_address] = true;\n        //whitelists[indice]._lists[true].push[_address];\n        //whitelists[indice].address.push(_address);\n        members[_address] = true;\n        addresses[indice].push(_address);\n        \n        //tryhard[]\n        //whitelist.push(_address) // in case of using the table\n    }\n    \n\n    function getList (uint indice) public view returns (string memory, uint, address [] memory) {\n        return (whitelists[indice].name, whitelists[indice].portion, addresses[indice]);\n    }\n}",
  "sourcePath": "/home/pupulvuh/code/gonzaloetjo/depot/truffle_crowdsale/contracts/whitelist_devs.sol",
  "compiler": {
    "name": "solc",
    "version": "0.6.0+commit.26b70077.Emscripten.clang"
  },
  "schemaVersion": "3.1.0",
  "updatedAt": "2020-05-05T09:52:57.951Z",
  "devdoc": {
    "methods": {}
  },
  "userdoc": {
    "methods": {}
  }
}